:020000040800F2
:10000000E0060020A101000823300008332F00087B
:10001000213000080D230008493B000800000000C3
:100020000000000000000000000000009D350008F6
:10003000F125000800000000FD32000875360008B8
:10004000593B0008BB010008BB010008BB010008C8
:10005000BB010008BB010008BB010008092C000817
:10006000BB010008BB010008312C0008BB010008DF
:10007000BB010008BB010008BB010008BB01000870
:10008000BB010008BB010008BB010008BB01000860
:10009000BB010008BB010008BB010008BB01000850
:1000A000BB010008BB010008BB010008BB01000840
:1000B000BB010008BB010008BB010008B52F000808
:1000C000352F0008BB010008BB010008BB01000878
:1000D000BB010008BB010008BB010008BB01000810
:1000E000BB010008F5330008BB010008BB01000894
:1000F000BB010008BB010008BB010008BB010008F0
:10010000BB010008BD340008BB010008BB010008AA
:10011000BB010008BB010008BB010008BB010008CF
:10012000BB010008BB010008BB010008C125000895
:10013000BB010008BB010008BB010008BB010008AF
:10014000BB010008BB010008BB010008BB0100089F
:10015000BB010008BB010008BB010008BB0100088F
:10016000BB010008BB010008BB010008BB0100087F
:10017000BB010008BB010008BB010008BB0100086F
:10018000BB010008BB010008DFF810D000F0BAFA8C
:100190000048004759440008AFF30080E006002003
:1001A0000648804706480047FEE7FEE7FEE7FEE711
:1001B000FEE7FEE7FEE7FEE7FEE7FEE7793600082A
:1001C000890100082DE9F05F0546002092469B4614
:1001D00088460646814640241BE02846414647465D
:1001E000224600F070F953465A46C01A914110D386
:1001F00011461846224600F057F92D1A67EB010800
:100200004F4622460120002100F04EF917EB00096D
:100210004E41201EA4F10104DFDC484631462A4647
:100220004346BDE8F09F40EA01039B0703D009E085
:1002300008C9121F08C0042AFAD203E011F8013BD2
:1002400000F8013B521EF9D270472DE9FE4F80465F
:1002500081EA0300C00F0C46009021F0004123F01A
:100260000045B8EB0200A94105D240462146904620
:100270001C460B46024623F00040104347D0270D92
:10028000C7F30A00C3F30A510290401A01904028B4
:100290006BDAC3F3130040F4801B0098924620B140
:1002A0000023D2EB030A63EB0B0B01985946C0F114
:1002B0004002504600F0F8F806460D4650465946B2
:1002C000019A00F010F910EB08006141002487EA60
:1002D000115284EAE7731A4340D0009A62B3019A3C
:1002E000012A4FEA075215DC001B61EB02014FF0B7
:1002F000004202EA0752CDE90042001C41F580119C
:1003000032462B4600F010F903B0BDE8F08F4046AE
:100310002146F9E7001B61EB0201001C41F5801347
:1003200000185B412018A2F5001747EB030140EAD3
:10033000D570B6196D4111E06D084FEA360645EAF1
:10034000C0754FEA0752001B61EB0201001C41F52A
:10035000801149084FEA30000019514132462B46BE
:1003600003B0BDE8F04F00F0D0B800980122400083
:100370000023D0EB020263EBE073009821464FEAC2
:10038000E074B8EB000061EB0401E9E783F000439F
:100390005BE781F0004158E72DE9FE4F81EA030455
:1003A00004F0004421F0004100944FF0000B23F0D2
:1003B000004350EA01045ED052EA03045BD0C3F369
:1003C0000A54C1F30A552C44A4F2F3340194A0FB5F
:1003D0000254C1F3130141F48011C3F3130343F436
:1003E000801301FB024400FB034E840A970A44EA8F
:1003F000815447EA8357A4FB076802958D0A05FBE1
:1004000007854FEA932C04FB0C542705029D4FEA05
:10041000065847EA1637B5EB08056EEB070C870E52
:10042000920E47EA811742EA8312A7FB0201B6EB5C
:100430000B0164EB00042B0D43EA0C335E1844EB14
:100440001C50DA465146E7FB0201C5F313044FEA9C
:100450000B3343EA14534FEA0432019C43EA060388
:10046000A4F10C040294009CCDE900B400F05CF807
:1004700003B0BDE8F08F00200146F9E730B50B4628
:10048000014600202022012409E021FA02F59D42C4
:1004900005D303FA02F5491B04FA02F52844151E98
:1004A000A2F10102F1DC30BD202A04DB203A00FA7F
:1004B00002F1002070479140C2F1200320FA03F3BB
:1004C000194390407047202A04DB203A21FA02F0B9
:1004D0000021704721FA02F3D040C2F1200291407E
:1004E000084319467047202A06DBCB17203A41FA09
:1004F00002F043EAE07306E041FA02F3D040C2F1B1
:100500002002914008431946704710B5141E73F13C
:10051000000408DA401C41F1000192185B411A43C3
:1005200001D120F0010010BD2DE9F04D92469B460F
:1005300011B1B1FA81F202E0B0FA80F220329046B5
:10054000FFF7B2FF04460F4640EA0A0041EA0B01FA
:1005500053465A46084313D0114653EA010019D0B6
:10056000C8F140025046FFF7AEFF05460E46504622
:1005700059464246FFF798FF084305D0012004E0A2
:1005800020463946BDE8F08D0020054346EAE07676
:100590002C4337430A986305E40AA0EB08000022C5
:1005A000FD0A44EA47540A3002D500200146E9E733
:1005B000010510196941DDE9084500196941BDE8E7
:1005C000F04DA2E72DE9F04D81EA030404F0004B61
:1005D00021F0004514464FF0000A23F0004150EA94
:1005E000050220D054EA01021DD0C5F30A57024685
:1005F000C5F31303C1F31300C1F30A5640F4801589
:1006000043F48013A7EB0608101BD64608F2FD380A
:1006100073EB050002D308F1010801E092185B4179
:10062000B8F1000F03DA00200146BDE8F08D00208C
:100630004FF48011064684460EE0171B73EB050746
:1006400005D3121B63EB050306434CEA010C490872
:100650004FEA300092185B4150EA0107EDD152EAAF
:10066000030012D082EA040083EA0501084305D0A2
:10067000101BAB4106D20122002306E000224FF0FE
:10068000004302E06FF0010253101AEB06004CEB3E
:10069000085110EB0A0041EB0B01BDE8F04DFFF7EC
:1006A00034BFC1F30A52C1F3130140F2FF3341F4E6
:1006B00080119A4202DA00200146704740F233432B
:1006C0009A42A2F2334202DC5242FFF7FCBEFFF72D
:1006D000EBBE000030B5041E71F1000404DB4FF0E6
:1006E0000044404264EB0101141E73F1000405DB79
:1006F0001C464FF00043524263EB0403994208BF8B
:10070000904230BD064C074D06E0E06840F0010322
:1007100094E8070098471034AC42F6D3FFF738FD51
:100720005C5D00087C5D000810220149FFF77BBD7D
:100730001401002000B587B04FF4A06002F0BCFDAA
:10074000A82002F07CFB02F078FB03A802F002FE76
:10075000DDE904120698CDE9001202901522034942
:100760000348039B03F000FA07B000BD744400087F
:10077000185D000802F086BB70B506460024002113
:10078000084601F0ABF801F0F7F9064D03E03046FA
:1007900001F0F0F9641C298868884143A142F6D829
:1007A00070BD00001401002030B417494FF4F072FE
:1007B0000A804FF448734B8000248C71002802D0CB
:1007C000012804D007E00A804B808C7103E00B8085
:1007D0004A8001228A714FF430520A814FF4385214
:1007E0004A814FF428528A814FF42C52CA8128B191
:1007F000012807D130BC062001F046B830BC0020EB
:1008000001F042B830BC7047140100202DE9FE4FC2
:1008100000250026171AA3EB010881468A46681EA8
:10082000002F03DD4FF00101019107E003D14FF0EC
:100830000001019102E00190C7F10007B8F1000F3B
:1008400003DD4FF00100009007E003D14FF00000FE
:10085000009002E00090C8F10008474501DD3C46E9
:1008600000E044464FF0000B601C029016E01FFAB7
:100870008AF11FFA89F00C9A00F015F83D444644BD
:10088000A54202DD2D1B01988144A64202DD361BE4
:10089000009882440BF1010B1FFA8BFB02988345F1
:1008A000E5DDBDE8FE8F10B5144601F017F801F044
:1008B00063F92046BDE8104001F05CB92DE9F8432A
:1008C0008046089C0E4615461F4633462A4631464A
:1008D00040460094FFF79AFF3B4642463146404669
:1008E0000094FFF793FF3B462A4639464046009462
:1008F000FFF78CFF3B462A46314628460094FFF717
:1009000085FFBDE8F8832DE9F0478046DDF82090AB
:100910000D461F46A2EB0800401C86B210E0294697
:10092000404600F0DBFF01F027F9002404E04846D0
:1009300001F020F9641CA4B2B442F8D36D1CADB22E
:10094000BD42ECD9BDE8F08702F09EBA2DE9F05F18
:100950004FF470445521204601F014F9651CAA217A
:10096000284601F00FF9A61C5221304601F00AF981
:10097000E71C0821384601F005F94FF2040801216F
:10098000404601F0FFF80D214FF4304001F0FAF835
:100990000D214BF2010001F0F5F80D214BF20200A0
:1009A00001F0F0F84FF436493421484601F0EAF8F6
:1009B00034214BF2016001F0E5F834214BF2026082
:1009C00001F0E0F84FF4314A0D21504601F0DAF819
:1009D0004BF2011B0D21584601F0D4F80D214BF2CA
:1009E000021001F0CFF834214FF4374001F0CAF87B
:1009F00034214BF2017001F0C5F834214BF2027042
:100A000001F0C0F800214FF4324001F0BBF80021A2
:100A10004BF2012001F0B6F800214BF2022001F068
:100A2000B1F824214FF4384001F0ACF824214BF602
:100A3000010001F0A7F824214BF6020001F0A2F812
:100A400001214FF43F4001F09DF80F214FF4334056
:100A500001F098F80F214BF2013001F093F80F21CB
:100A60004BF2023001F08EF834214FF4394001F09E
:100A700089F834214BF6011001F084F834214BF64B
:100A8000021001F07FF808214FF4354001F07AF8A8
:100A900008214BF2015001F075F808214BF2025089
:100AA00001F070F803214FF4424001F06BF824216B
:100AB0004FF43A4001F066F824214BF6012001F092
:100AC00061F824214BF6022001F05CF800214FF47C
:100AD0003C4001F057F878214BF6014001F052F804
:100AE00000214BF6024001F04DF800214FF43D404B
:100AF00001F048F878214BF6015001F043F800214D
:100B00004BF6025001F03EF800214FF43E4001F058
:100B100039F864214BF6016001F034F800214FF4FC
:100B2000514001F02FF833214DF2011001F02AF865
:100B300000214DF2021001F025F834214DF203108E
:100B400001F020F800214DF2041001F01BF83A21C9
:100B50004DF2051001F016F800214DF2061001F0DB
:100B600011F84A214DF2071001F00CF800214DF266
:100B7000081001F007F85C214DF2091001F002F8AD
:100B800000214DF20A1000F0FDFF81214DF20B1003
:100B900000F0F8FF00214DF20C1000F0F3FFA62149
:100BA0004DF20D1000F0EEFF00214DF20E1000F09E
:100BB000E9FFE5214DF20F1000F0E4FF01214DF2B5
:100BC000101000F0DFFF13214DF2111000F0DAFFDA
:100BD00001214DF2121000F0D5FF54214DF21310F7
:100BE00000F0D0FF01214DF2141000F0CBFF822164
:100BF0004DF2151000F0C6FF01214DF2161000F065
:100C0000C1FFCA214DF2171000F0BCFF02214DF2C6
:100C1000181000F0B7FF00214DF2191000F0B2FFDC
:100C200002214DF21A1000F0ADFF01214DF21B1010
:100C300000F0A8FF02214DF21C1000F0A3FF3421A8
:100C40004DF21D1000F09EFF02214DF21E1000F02B
:100C500099FF67214DF21F1000F094FF02214DF221
:100C6000201000F08FFF84214DF2211000F08AFF48
:100C700002214DF2221000F085FFA4214DF2231035
:100C800000F080FF02214DF2241000F07BFFB7211D
:100C90004DF2251000F076FF02214DF2261000F0F3
:100CA00071FFCF214DF2271000F06CFF02214DF2B1
:100CB000281000F067FFDE214DF2291000F062FFDE
:100CC00002214DF22A1000F05DFFF2214DF22B10AF
:100CD00000F058FF02214DF22C1000F053FFFE21CE
:100CE0004DF22D1000F04EFF03214DF22E1000F0BA
:100CF00049FF10214DF22F1000F044FF03214DF267
:100D0000301000F03FFF33214DF2311000F03AFF78
:100D100003214DF2321000F035FF6D214DF23310FA
:100D200000F030FF00214FF4524000F02BFF332140
:100D30004DF2012000F026FF00214DF2022000F0CC
:100D400021FF34214DF2032000F01CFF00214DF261
:100D5000042000F017FF3A214DF2052000F012FFA9
:100D600000214DF2062000F00DFF4A214DF2072030
:100D700000F008FF00214DF2082000F003FF5C2185
:100D80004DF2092000F0FEFE00214DF20A2000F095
:100D9000F9FE81214DF20B2000F0F4FE00214DF20E
:100DA0000C2000F0EFFEA6214DF20D2000F0EAFE2F
:100DB00000214DF20E2000F0E5FEE5214DF20F205E
:100DC00000F0E0FE01214DF2102000F0DBFE1321C7
:100DD0004DF2112000F0D6FE01214DF2122000F05C
:100DE000D1FE54214DF2132000F0CCFE01214DF232
:100DF000142000F0C7FE82214DF2152000F0C2FE43
:100E000001214DF2162000F0BDFECA214DF217203F
:100E100000F0B8FE02214DF2182000F0B3FE0021D0
:100E20004DF2192000F0AEFE02214DF21A2000F022
:100E3000A9FE01214DF21B2000F0A4FE02214DF27B
:100E40001C2000F09FFE34214DF21D2000F09AFE80
:100E500002214DF21E2000F095FE67214DF21F2069
:100E600000F090FE02214DF2202000F08BFE842144
:100E70004DF2212000F086FE02214DF2222000F0EA
:100E800081FEA4214DF2232000F07CFE02214DF2D0
:100E9000242000F077FEB7214DF2252000F072FEED
:100EA00002214DF2262000F06DFECF214DF22720C9
:100EB00000F068FE02214DF2282000F063FEDE21E2
:100EC0004DF2292000F05EFE02214DF22A2000F0B2
:100ED00059FEF2214DF22B2000F054FE02214DF27A
:100EE0002C2000F04FFEFE214DF22D2000F04AFE96
:100EF00003214DF22E2000F045FE10214DF22F204F
:100F000000F040FE03214DF2302000F03BFE332183
:100F10004DF2312000F036FE03214DF2322000F078
:100F200031FE6D214DF2332000F02CFE00214FF4F4
:100F3000534000F027FE33214DF2013000F022FE35
:100F400000214DF2023000F01DFE34214DF203303D
:100F500000F018FE00214DF2043000F013FE3A219B
:100F60004DF2053000F00EFE00214DF2063000F08B
:100F700009FE4A214DF2073000F004FE00214DF237
:100F8000083000F0FFFD5C214DF2093000F0FAFD61
:100F900000214DF20A3000F0F5FD81214DF20B30B9
:100FA00000F0F0FD00214DF20C3000F0EBFDA62129
:100FB0004DF20D3000F0E6FD00214DF20E3000F054
:100FC000E1FDE5214DF20F3000F0DCFD01214DF295
:100FD000103000F0D7FD13214DF2113000F0D2FD9A
:100FE00001214DF2123000F0CDFD54214DF21330AD
:100FF00000F0C8FD01214DF2143000F0C3FD822144
:101000004DF2153000F0BEFD01214DF2163000F01A
:10101000B9FDCA214DF2173000F0B4FD02214DF2A6
:10102000183000F0AFFD00214DF2193000F0AAFD9C
:1010300002214DF21A3000F0A5FD01214DF21B30C6
:1010400000F0A0FD02214DF21C3000F09BFD342188
:101050004DF21D3000F096FD02214DF21E3000F0E1
:1010600091FD67214DF21F3000F08CFD02214DF201
:10107000203000F087FD84214DF2213000F082FD08
:1010800002214DF2223000F07DFDA4214DF22330EB
:1010900000F078FD02214DF2243000F073FDB721FD
:1010A0004DF2253000F06EFD02214DF2263000F0A9
:1010B00069FDCF214DF2273000F064FD02214DF291
:1010C000283000F05FFDDE214DF2293000F05AFD9E
:1010D00002214DF22A3000F055FDF2214DF22B3065
:1010E00000F050FD02214DF22C3000F04BFDFE21AE
:1010F0004DF22D3000F046FD03214DF22E3000F070
:1011000041FD10214DF22F3000F03CFD03214DF246
:10111000303000F037FD33214DF2313000F032FD38
:1011200003214DF2323000F02DFD6D214DF23330B0
:1011300000F028FD00214FF4544000F023FD33213E
:101140004DF2014000F01EFD00214DF2024000F082
:1011500019FD34214DF2034000F014FD00214DF241
:10116000044000F00FFD3A214DF2054000F00AFD69
:1011700000214DF2064000F005FD4A214DF20740E6
:1011800000F000FD00214DF2084000F0FBFC5C2166
:101190004DF2094000F0F6FC00214DF20A4000F04B
:1011A000F1FC81214DF20B4000F0ECFC00214DF2EE
:1011B0000C4000F0E7FCA6214DF20D4000F0E2FCEF
:1011C00000214DF20E4000F0DDFCE5214DF20F4014
:1011D00000F0D8FC01214DF2104000F0D3FC1321A7
:1011E0004DF2114000F0CEFC01214DF2124000F012
:1011F000C9FC54214DF2134000F0C4FC01214DF212
:10120000144000F0BFFC82214DF2154000F0BAFC02
:1012100001214DF2164000F0B5FCCA214DF21740F5
:1012200000F0B0FC02214DF2184000F0ABFC0021B0
:101230004DF2194000F0A6FC02214DF21A4000F0D8
:10124000A1FC01214DF21B4000F09CFC02214DF25B
:101250001C4000F097FC34214DF21D4000F092FC40
:1012600002214DF21E4000F08DFC67214DF21F401F
:1012700000F088FC02214DF2204000F083FC842124
:101280004DF2214000F07EFC02214DF2224000F0A0
:1012900079FCA4214DF2234000F074FC02214DF2B0
:1012A000244000F06FFCB7214DF2254000F06AFCAD
:1012B00002214DF2264000F065FCCF214DF227407F
:1012C00000F060FC02214DF2284000F05BFCDE21C2
:1012D0004DF2294000F056FC02214DF22A4000F068
:1012E00051FCF2214DF22B4000F04CFC02214DF25A
:1012F0002C4000F047FCFE214DF22D4000F042FC56
:1013000003214DF22E4000F03DFC10214DF22F4004
:1013100000F038FC03214DF2304000F033FC332163
:101320004DF2314000F02EFC03214DF2324000F02E
:1013300029FC6D214DF2334000F024FC00214FF4D4
:10134000554000F01FFC33214DF2015000F01AFC13
:1013500000214DF2025000F015FC34214DF20350F3
:1013600000F010FC00214DF2045000F00BFC3A217B
:101370004DF2055000F006FC00214DF2065000F041
:1013800001FC4A214DF2075000F0FCFB00214DF218
:10139000085000F0F7FB5C214DF2095000F0F2FB21
:1013A00000214DF20A5000F0EDFB81214DF20B506F
:1013B00000F0E8FB00214DF20C5000F0E3FBA62109
:1013C0004DF20D5000F0DEFB00214DF20E5000F00A
:1013D000D9FBE5214DF20F5000F0D4FB01214DF275
:1013E000105000F0CFFB13214DF2115000F0CAFB5A
:1013F00001214DF2125000F0C5FB54214DF2135063
:1014000000F0C0FB01214DF2145000F0BBFB822123
:101410004DF2155000F0B6FB01214DF2165000F0D0
:10142000B1FBCA214DF2175000F0ACFB02214DF286
:10143000185000F0A7FB00214DF2195000F0A2FB5C
:1014400002214DF21A5000F09DFB01214DF21B507C
:1014500000F098FB02214DF21C5000F093FB342168
:101460004DF21D5000F08EFB02214DF21E5000F097
:1014700089FB67214DF21F5000F084FB02214DF2E1
:10148000205000F07FFB84214DF2215000F07AFBC8
:1014900002214DF2225000F075FBA4214DF22350A1
:1014A00000F070FB02214DF2245000F06BFBB721DD
:1014B0004DF2255000F066FB02214DF2265000F05F
:1014C00061FBCF214DF2275000F05CFB02214DF271
:1014D000285000F057FBDE214DF2295000F052FB5E
:1014E00002214DF22A5000F04DFBF2214DF22B501B
:1014F00000F048FB02214DF22C5000F043FBFE218E
:101500004DF22D5000F03EFB03214DF22E5000F025
:1015100039FB10214DF22F5000F034FB03214DF226
:10152000305000F02FFB33214DF2315000F02AFBF8
:1015300003214DF2325000F025FB6D214DF2335066
:1015400000F020FB00214FF4564000F01BFB33213C
:101550004DF2016000F016FB00214DF2026000F038
:1015600011FB34214DF2036000F00CFB00214DF221
:10157000046000F007FB3A214DF2056000F002FB29
:1015800000214DF2066000F0FDFA4A214DF207609D
:1015900000F0F8FA00214DF2086000F0F3FA5C2147
:1015A0004DF2096000F0EEFA00214DF20A6000F001
:1015B000E9FA81214DF20B6000F0E4FA00214DF2CE
:1015C0000C6000F0DFFAA6214DF20D6000F0DAFAAF
:1015D00000214DF20E6000F0D5FAE5214DF20F60CA
:1015E00000F0D0FA01214DF2106000F0CBFA132187
:1015F0004DF2116000F0C6FA01214DF2126000F0C8
:10160000C1FA54214DF2136000F0BCFA01214DF2F1
:10161000146000F0B7FA82214DF2156000F0B2FAC2
:1016200001214DF2166000F0ADFACA214DF21760AB
:1016300000F0A8FA02214DF2186000F0A3FA002190
:101640004DF2196000F09EFA02214DF21A6000F08E
:1016500099FA01214DF21B6000F094FA02214DF23B
:101660001C6000F08FFA34214DF21D6000F08AFA00
:1016700002214DF21E6000F085FA67214DF21F60D5
:1016800000F080FA02214DF2206000F07BFA842104
:101690004DF2216000F076FA02214DF2226000F056
:1016A00071FAA4214DF2236000F06CFA02214DF290
:1016B000246000F067FAB7214DF2256000F062FA6D
:1016C00002214DF2266000F05DFACF214DF2276035
:1016D00000F058FA02214DF2286000F053FADE21A2
:1016E0004DF2296000F04EFA02214DF22A6000F01E
:1016F00049FAF2214DF22B6000F044FA02214DF23A
:101700002C6000F03FFAFE214DF22D6000F03AFA15
:1017100003214DF22E6000F035FA10214DF22F60BA
:1017200000F030FA03214DF2306000F02BFA332143
:101730004DF2316000F026FA03214DF2326000F0E4
:1017400021FA6D214DF2336000F01CFA552120463C
:1017500000F018FAAA21284600F014FA5221304667
:1017600000F010FA0821384600F00CFA002140463B
:1017700000F008FACC21504600F004FA0021584647
:1017800000F000FA0521484600F0FCF970214FF402
:10179000374000F0F7F970214BF2017000F0F2F9D8
:1017A00001214FF4384000F0EDF903214BF6010020
:1017B00000F0E8F903214BF6020000F0E3F9032101
:1017C0004BF6030000F0DEF902214FF43C4000F03C
:1017D000D9F900214BF6014000F0D4F900214BF675
:1017E000024000F0CFF9D0214FF4494000F0CAF98F
:1017F00002214CF6011000F0C5F950214CF6021000
:1018000000F0C0F950214CF6031000F0BBF9502154
:101810004CF6041000F0B6F900214FF4545000F0DB
:10182000B1F955214FF4685000F0ACF94FF48850ED
:1018300000F09EF9782001F006FBBDE8F05F4FF460
:10184000245000F095B9000070B54FF45A4000F0F4
:1018500019F8C4B24FF45B4000F014F8C5B24FF46D
:101860005C4000F00FF8C1B2200440EA05200843B4
:10187000B0F5004F01D145F210500149888070BD8C
:101880001401002001F00BBB70B504464FF458550D
:101890002846FFF7F7FF20F0E001082C19D2DFE817
:1018A00004F01804070A0D10131641F0800110E02F
:1018B00041F040010DE041F0C0010AE041F020019B
:1018C00007E041F0600104E041F0A00101E041F0D7
:1018D000E0012846BDE8704000F054B970B50446F8
:1018E0000D46114E3088401EA04201DA012070BD25
:1018F0007088401EA84201DA022070BD210AB0891A
:1019000000F040F9B089E1B2401C80B200F03AF931
:10191000290AF08900F036F9F089E9B2401C80B25A
:1019200000F030F9002070BD14010020014A108041
:10193000518070472C0000202DE9F04105460E46ED
:1019400090461F461A4C0021A08900F01BF9A0897F
:101950000021401C80B200F015F9A08945446D1E9D
:10196000801CC5F30F2180B200F00CF9A089E9B208
:10197000C01C80B200F006F9E089002100F002F9F5
:10198000E0890021401C80B200F0FCF8E089F519E4
:101990006D1E801CC5F30F2180B200F0F3F8E089C2
:1019A000E9B2BDE8F041C01C80B200F0EBB8000025
:1019B000140100202DE9F84F82460C461F46A3462D
:1019C000780701D0012000E0002000EBD700790863
:1019D0004843C0B20090203A02F0FF09002649E0D7
:1019E0000C2F14D0102F19D0182F46D1244909EBF1
:1019F000C90001EB8000855D4FF00008280612D574
:101A00002048214602885046FEF74DFF13E01E494C
:101A100009EB490001EB8000855DEDE71B4800EB19
:101A20000910855DE8E70A9828B9164821464288DA
:101A30005046FEF738FF6806050E641CA4B2144831
:101A40004088A04219D9A4EB0B00B84209D15C46EA
:101A50000AF1010A1FFA8AFA0D48008850450CD98C
:101A600006E008F1010808F0FF08B8F1080FC5D337
:101A7000761CF6B200988642B2D3BDE8F88F00001B
:101A8000544F00082C000020F0440008644900086E
:101A9000140100202DE9F84F0446DDE90A760D46D1
:101AA00004F0FF0810191FFA80F958191FFA80FA7C
:101AB0004FF0000B11E04C4502D34446E81985B2C3
:101AC00055450FD23B4629462046CDF800B0FFF7DA
:101AD00071FF04EB570084B2761C3278A2F120002B
:101AE0005E28E8D9BDE8F88F00B589B0FEF72CFF75
:101AF000FFF7AAFE83B2A3F5AA40103804D00F2244
:101B00000F4910A002F030F8FEF720FF0020FEF78A
:101B10004BFE01A8FEF708FE019805900021BDF8D4
:101B20001630BDF814200846FFF706FFFEF722FE28
:101B300009B04FF6FF705DF804EBFEF71DBE000024
:101B40008044000844656275673A203C25732C2068
:101B500025643E3A204C43442072656164206964E8
:101B6000206572726F72203A202578200D0A0000DD
:101B700001F09CB901F09CB901480089FFF7F8BF5A
:101B80001401002001F096B97047000038B5BA235F
:101B9000012440F21512154915A001F0E5FF48F2A5
:101BA000470501226946284601F0BFF99DF800303B
:101BB0004FF48C720D4918A001F0D6FF2149002086
:101BC0000870BA211F4800F03FF81E4901F1BA021F
:101BD00081F8B80002F8014CBA22284601F0A7F9B2
:101BE000C82001F02EF9002038BD0000DC5C0008A0
:101BF00044656275673A203C25732C2025643E3A83
:101C000020677439313120636667206E756D203A24
:101C1000202564200D0A000044656275673A203C67
:101C200025732C2025643E3A2067743931312063B6
:101C300066672076657273696F6E203A202578207A
:101C40000D0A00003700002010B500230022891E75
:101C500004E0845C2344DBB2521CD2B28A42F8DB3B
:101C6000D843401CC0B210BD2DE9FE4304460D46CA
:101C70001646CDE900560293234640F23B120E4928
:101C80000EA001F071FFB1B2A8B201F023FD174F11
:101C900015480090A7F10A0833B22AB237F9141098
:101CA00038F914001E46154600F0F5FE28F81450C9
:101CB00027F81460BDE8FE83F05C00084465627597
:101CC000673A203C25732C2025643E3A2049443A4B
:101CD00025642C20583A25642C20593A25642C2060
:101CE000573A2564200D0A0008010020FC0000205E
:101CF00010B501F00FF900F033F80446012C04D1BF
:101D0000F2220A490AA001F02FFF134B4FF4F070A2
:101D1000D8804FF44871198105229A7200F054F866
:101D2000FFF734FF00F05CF8204610BDC75C0008E8
:101D300044656275673A203C25732C2025643E3A41
:101D400020677439313120726561642069642065CF
:101D5000727220210D0A000024010020704700004B
:101D600070B5002404220D4948F2401001F0DDF85E
:101D70000A4D002028712B46CE22094909A001F006
:101D8000F3FE2878392805D16878312802D1A8785F
:101D9000312800D00124204670BD0000240100201D
:101DA000B05C0008496E666F3A203C25732C2025F4
:101DB000643E3A2067743931315F6964203A2025E6
:101DC00073200D0A00000000044B5870000A987040
:101DD000D970080A18715A71704700003700002046
:101DE00038B50220009048F240040122694620469E
:101DF00001F09DF80A2001F024F800210091012251
:101E00006946204601F093F838BD000070B50446DD
:101E10000B4EA6F10A0536F8141035F8140001F03F
:101E2000F3FD4FF0FF3025F8140026F81400234688
:101E3000BDE8704040F26712024903A001F094BE71
:101E4000FC000020055D000844656275673A203C8F
:101E500025732C2025643E3A20546F7563682069F1
:101E6000645B2532645D2072656C65617365210D6C
:101E70000A0000002DE9F04F8DB0002648F24E1BFD
:101E8000012201A9584601F050F89DF804000028ED
:101E900066D000F00F05052D5BD8012000EBC500D2
:101EA000C2B201A9584601F040F8DFF8BCA00DF11C
:101EB00004080AF10209BAF80000A84216D819E08D
:101EC00000246F1E0EE008EBC400407800F00F0104
:101ED00019F80600884207D0BC4201DBFFF796FFE5
:101EE000641CE4B2AC42EED3761CF6B2BAF8000041
:101EF0008642E5D3E5B1002417E008EBC400417841
:101F000001F00F0609F804608178C27841EA0221E5
:101F10000279437942EA03228379C07943EA0023B4
:101F20003046FFF7A1FE641CE4B2AC42E5D30EE0FC
:101F3000BAF8000058B1002405E019F80400FFF7D2
:101F400065FF641CE4B2BAF800008442F5D3AAF835
:101F5000005000200C9001220CA9584600F0E7FF29
:101F60000DB0BDE8F08F000030000020FFF7BCFD91
:101F700000F005F801F0AAF9FFF77CFFFCE7FFF796
:101F8000B7BE00002DE9FC4101217A2001F0B8F92B
:101F90004FF48054009402208DF8040000218DF845
:101FA000061001218DF807108DF80500464D694691
:101FB000284600F0E9FE0094444C6946204600F0B3
:101FC000E3FE30210091424E6946304600F0DCFECF
:101FD0004CF2030100916946304600F0D5FE4FF601
:101FE000807100913B4F6946384600F0CDFE4FF4BA
:101FF000E06100916946304600F0C6FE0C221146B1
:10200000284600F0FFFE0C221146204600F0FAFEA2
:102010000C220521304600F0F5FE0C22042130464A
:1020200000F0F0FE0C220E21304600F0EBFE0C22F8
:102030000F21304600F0E6FE0C220021304600F071
:10204000E1FE0C220121304600F0DCFE0C220721CB
:10205000384600F0D7FE0C220821384600F0D2FEA8
:102060000C220921384600F0CDFE0C220A21384608
:1020700000F0C8FE0C220B21384600F0C3FE0C22F3
:102080001146384600F0BEFE0C220D21384600F005
:10209000B9FE0C220E21384600F0B4FE0C220F21AE
:1020A000384600F0AFFE0C220821304600F0AAFEB0
:1020B0000C220921304600F0A5FE0C220A213046F0
:1020C00000F0A0FEBDE8FC810014024000180240B0
:1020D000000C02400010024000B597B001210846F4
:1020E00001F01CF9002014904FF08051169104214A
:1020F00010911190082112911590139006220192CF
:102100000290039110210491059006900790089089
:10211000099009020A910B9089000C910D9010A86A
:102120000E900F9001A800F0BBFD0121062000F0E9
:10213000A5FD17B000BD00007CB50121022001F013
:10214000DFF84FF40044009401208DF804000022D1
:102150008DF806208DF8070002208DF80500054D4A
:102160006946284600F010FE2146284600F061FE30
:102170007CBD0000000402404FF40041014800F023
:102180005ABE000000040240014800887047000069
:102190008000006C01490880704700007E00006CE0
:1021A00001490880704700008000006C00F030BFDB
:1021B0001CB50121022001F0A3F8022000900120AB
:1021C0008DF8040000248DF806408DF807400320A8
:1021D0008DF805006946034800F0D6FD024804600A
:1021E0001CBD0000000402408482404210B5094C2E
:1021F00000202060084908600A2000F05DFA0120F4
:1022000020600A2000F058FABDE81040322000F0AB
:1022100053BA0000B4024142848240422DE9F041A9
:1022200004460D46164600F03DF9BA2000F00AF9C2
:1022300000F074F9200A00F005F900F06FF9E0B23F
:1022400000F000F900F06AF900F02CF9BB2000F072
:10225000F9F800F063F90024771E09E0BC4201D0D0
:10226000012000E0002000F0B5F82855641CE4B21D
:10227000B442F3D3BDE8F04100F032B91CB50121FE
:10228000042001F03DF84FF40050009001208DF83B
:10229000040000248DF806408DF8070003208DF817
:1022A00005006946024800F06FFD024804601CBD4D
:1022B00000080240B40241422DE9F04104460E46B6
:1022C0001546002700F0EEF8BA2000F0BBF800F049
:1022D00025F9200A00F0B6F800F020F9E0B200F08D
:1022E000B1F800F01BF9002409E0305D00F0AAF815
:1022F00000F014F90746380003D1641CE4B2AC4284
:10230000F3D300F0EDF83846BDE8F081FEE7022097
:1023100000F0DEB970B50C4C002525600B48016853
:1023200021F440010160016841F480010160FFF780
:10233000EEFF07480560FFF7EAFF01202060FFF786
:10234000E6FF256070BD000080824042001402401C
:10235000AC8242421CB50121222000F0D1FF0124B1
:1023600000948DF8044000208DF806008DF8074099
:102370006946064800F008FDE00200908DF8044030
:102380006946034800F000FD1CBD00000004024047
:102390000014024070B50C4C002525600B48016804
:1023A00021F440010160016841F480010160FFF700
:1023B000AEFF074801260660FFF7A9FF2660FFF77A
:1023C000A6FF256070BD00008082404200140240DC
:1023D000AC8242422DE9F04782460024164801684B
:1023E00021F440010160016801601E2000F070F9D5
:1023F0000025124EDFF8489000274FF00108C6F87C
:102400008072FFF784FFC6F880826006040ED9F858
:102410002C0208B1641CE4B26D1CEDB2082DEED3A1
:10242000BAF1000F04D0FFF775FF2046BDE8F08732
:10243000FFF7B0FFF9E700000014024000804042BF
:10244000008042422DE9F04705461348016821F417
:1024500040010160016841F4800101600F4E4FF0BE
:102460000008C6F88082FFF752FF0024DFF83090A2
:102470000127E809C9F8AC026806050EC6F88072A3
:10248000FFF745FFC6F88082FFF741FF641CE4B206
:10249000082CEED3BDE8F0870014024000804042D3
:1024A0000080424270B50B48016821F44001016090
:1024B000016841F480010160074D01202860074E4A
:1024C00030601E2000F004F900242C60FFF71FFF8D
:1024D000346070BD00140240AC82424280824042AF
:1024E00070B50B48016821F440010160016841F4B6
:1024F000800101600748012505601E2000F0E8F812
:10250000054C00202060FFF702FF256070BD000031
:102510000014024080824042AC82424270B50024E6
:102520001048016821F440010160016801600E4D0E
:102530000120C5F8AC020D4EC6F88002FFF7E7FE99
:1025400009E0641CE4B2FA2C03D9FFF7C9FF0120AB
:1025500070BDFFF7DCFED5F82C020028F1D1C6F8DB
:10256000800270BD00140240008042420080404260
:102570001CB501204FF6FF71CDE9001000214FF48A
:102580001B7340F2DF12084600F081FE1CBD000004
:10259000044980680871082802D14FF6FF7008606E
:1025A000704700000801002081680448016001793B
:1025B000082901D1002101717047000008010020A5
:1025C00000F08CBF074A904201D2074801E005485D
:1025D0001038064A8B0001EA020101D5C16070473C
:1025E0008160704710640240006002407D0F7D0FE3
:1025F0007047000070B586B00121084600F080FEEB
:102600000121102000F098FE1E4E07220A213046BC
:1026100000F0F8FB07220921304600F0F3FB00240C
:102620008DF8164001208DF8170002258DF8145002
:10263000410204918DF8155004A9304600F0A4FB26
:102640008DF814506802049004A9304600F09CFBF9
:102650004FF4E1300090ADF80440ADF80640ADF81D
:102660000840ADF80C400C20ADF80A00064C694655
:10267000204601F007FA0121204601F0EFF906B0EB
:1026800070BD0000000002400010014010B504467B
:102690006FF0040000F0E0FF0649E008087000EB6E
:1026A0004002C2EBC0104FF6FF7202EAC000488041
:1026B00010BD00001000002070B504464FF47A757C
:1026C00002E0284600F004F8641E601CF9D170BDD9
:1026D00010B504460D48844202D90DA001F044FA19
:1026E00011484FF0E021007844434C61086940F004
:1026F000010008610869C20701D0C003FAD5086962
:1027000020F0010008610020486110BDC2300C00BB
:102710006E757320697320746F6F206C61726765CA
:10272000202E2E2E200D0A00100000202DE9FC4145
:1027300004461026E2886188A388208894F80C80DB
:10274000521A1D1A4FF0010C4FF47847B8F1000FE0
:102750002ED04FF6FF78CDE9008C93B2AAB200F0EC
:1027600096FD41463846FFF7E1F821A0CDE900602B
:10277000E08861881023401A00EBD07001EB600004
:1027800081B22088C822401D80B2FFF783F9002063
:102790004FF40471CDE90010E0886188A288401AE6
:1027A00083B22088121A92B200F071FDBDE8FC815C
:1027B0004DF6FB68CDE9008C93B2AAB200F067FD3C
:1027C00041463846FFF7B2F809A0CDE90060E1883C
:1027D00060881023091A01EBD17100EB610081B20E
:1027E0002088C822401D80B2FFF754F9CFE70000CF
:1027F000436C6561720000002DE9FC41044601272D
:102800002189E3888AB26188A5882088267B5B1AA3
:102810002D1A002E16D0CDE900279BB2AAB200F0E7
:1028200036FD2089002180B2CDE90001E088618871
:10283000A288401A83B22088121A92B200F027FDB3
:10284000BDE8FC81CDE900279BB2AAB200F01FFDD4
:10285000E7E72DE9FC4704460025A1882788E088A2
:10286000CA1B6188237B0126401A4FF404794FF676
:10287000FF78002B1DD0CDE9008683B2384692B296
:1028800000F005FDCDE90095E0886188A288401A36
:1028900083B22088121A92B200F0F9FCA0680A27CD
:1028A00009282ED2DFE800F01B2F43586D8297AB2A
:1028B000DE004DF6FB63CDE9003683B2384692B2B6
:1028C00000F0E5FCCDE90095E0886188A288401A17
:1028D00083B22088121A92B200F0D9FCDEE700958C
:1028E000E1886088091A01EBD17100EB610083B2C5
:1028F00081B2A088143882B22088143080B200F0EF
:1029000049FCBDE8FC87CDE90056E1886088091ADA
:1029100001EBD17100EB610083B281B2A088143861
:1029200082B22088143080B200F03AFCE9E702203D
:10293000CDE90050E1886088091A01EBD17100EB04
:10294000610083B281B2A088143882B2208814302A
:1029500080B200F025FCD4E70320CDE90050E088E8
:102960006188401A00EBD07001EB600083B281B245
:10297000A088143882B22088143080B200F010FC95
:10298000BFE70420CDE90050E1886088091A01EB17
:10299000D17100EB610083B281B2A088143882B299
:1029A0002088143080B200F0FBFBAAE70820CDE9B4
:1029B0000050E1886088091A01EBD17100EB6100D9
:1029C00083B281B2A088143882B22088143080B2D9
:1029D00000F0E6FB95E7CDE90057E1886088091A29
:1029E00001EBD17100EB610083B281B2A088143891
:1029F00082B22088143080B200F0D2FB81E70095CB
:102A0000E1886088091A01EBD17100EB610083B2A3
:102A100081B2A088401F82B22088401D80B200F0A1
:102A2000B9FB002515E00096E28861880523521A5B
:102A300002EBD27201EB620105EB850203EB42026D
:102A4000104489B280B20023032200F0EBFA6D1C1F
:102A5000ADB2A1882088091A0A3991FBF7F1A94281
:102A6000E1DC4EE7CDE90086E08861882288401AE3
:102A7000283800EBD07001EB600081B2A0882823D9
:102A8000801A283800EBD07002EB600080B21A4642
:102A900000F0FDFB35E72DE9FC411446089E1D467C
:102AA000002C1DDD00281BDD4FF41B72954217DA48
:102AB000914215DA32790127092A11D2DFE802F0B2
:102AC00005122131415161718900002908DB3288EA
:102AD000ABB292B20092A2B289B280B200F05AFBBD
:102AE000BDE8FC81012CFBD40128F9D43288ABB2BB
:102AF00092B2CDE90027A2B289B280B200F050FBB9
:102B0000EEE7022CECD40228EAD43288022392B2F7
:102B1000CDE90023ABB2A2B289B280B200F040FB93
:102B2000DEE7032CDCD40328DAD43288032392B204
:102B3000CDE90023ABB2A2B289B280B200F030FB83
:102B4000CEE7042CCCD40428CAD43288042392B211
:102B5000CDE90023ABB2A2B289B280B200F020FB73
:102B6000BEE7082CBCD40828BAD43288082392B215
:102B7000CDE90023ABB2A2B289B280B200F010FB63
:102B8000AEE70A2CACD40A28AAD432880A2392B21F
:102B9000CDE90023ABB2A2B289B280B200F000FB53
:102BA0009EE7032C9CD403289AD4002998DB328812
:102BB000ABB292B20092A2B289B280B200F0EAFA4D
:102BC00000973088A9B283B2A0B2032200F02AFA9B
:102BD00086E7142C84D404F11400B0F5F07F8FDC68
:102BE000143C05F11400B0F5487F89DC142D87D41E
:102BF0003088143D80B2CDE900072823A9B2A0B2E5
:102C00001A4600F044FB6BE710B5022000F02CF8E8
:102C100038B10221054800F005F9012801D1FFF77C
:102C20009DF8BDE81040022000F018B800040240F2
:102C300010B5102000F018F848B10A2000F001F992
:102C40001021054800F0EEF808B900F0FFF8BDE8E3
:102C50001040102000F002B8001002400149086046
:102C600070470000143C014001460020024A1268EF
:102C70000A4200D001207047143C01408000A0F1BE
:102C8000C040002904D0016841F001010160704793
:102C90000168024A1140016070470000FEFF0F000A
:102CA00070B501688900A1F1C0410B68344A134036
:102CB000D0E901242243D0E903452C43224344694F
:102CC000224384692243C4692243046A2243446A3A
:102CD0002243846A2243C46A2243046B22431A4378
:102CE0000A608168082907D101688900A1F1C04103
:102CF0000A6842F040020A600168491C8A00A2F199
:102D0000C042116801F04044416BD1E9003543EA0B
:102D100005138D688E892D0245EA06452B430D8AE1
:102D200043EA05530D7D896943EA05630B43234359
:102D30001360C16AB1F5804F08D000686FF0704130
:102D40008000A0F1C040C0F8041170BD0168890086
:102D5000A1F1C041D1F804210A4B1A40806BD0E99F
:102D6000003443EA041384688589240244EA054454
:102D70008069234303431343C1F8043170BD00004D
:102D80008000F7FF0000F0CF2DE9F041002201277D
:102D90004FF0030C07FA02F50B682B40AB422CD125
:102DA000066853000CFA03F4A64306600E79D0F8C7
:102DB00000809E4046EA080606600E79012E01D08A
:102DC000022E12D18668A64386604E79D0F808801C
:102DD0009E4046EA080686604668AE4346604568FF
:102DE0008E799640B6B235434560C568A543C56047
:102DF000CC799C40C3681C43C460521C102AC9D3C0
:102E0000BDE8F08110B54B07DB0E9A40C90800EB16
:102E10008100016A0F249C40A1430162016A1143B1
:102E2000016210BD0246002012690A4200D0012052
:102E300070474183704701837047FFF7DBBBFFF7A3
:102E400025BCFFF739BCFFF743BC000010B50E22CC
:102E5000034904A000F088FEBDE81040FFF7A6B9C2
:102E600066440008496E666F3A203C25732C202585
:102E7000643E3A2049574447CEB9B9B7202E2E2E8A
:102E8000200D0A00FFF778B910B5FFF755F9FFF7E5
:102E900079F8BDE81040FFF71FB9FFF775B910B515
:102EA00000F004F8BDE81040FFF7F7BFFFF772B974
:102EB000FFF776B910B50C46FFF7F8FF2046BDE8DE
:102EC0001040FFF7F5BF00004FF400710148FFF715
:102ED000B0BF0000001402404FF480610148FFF7CA
:102EE000A8BF00000014024010B5002809D0012836
:102EF0000BD002280DD1FFF7E7FFBDE81040FFF728
:102F0000EBBFBDE81040FFF7DFBFBDE81040FFF7A3
:102F1000E3BF10BD10B5FFF71DFAFFF7AFF9FFF7DC
:102F200047F9BDE81040FFF761B9FFF777B9FFF740
:102F3000C3B9FEE770B5194C1749204600F04FF8A9
:102F400018BB1749204600F04AF8F0B91549204649
:102F500000F045F8C8B91449204600F040F8A0B97F
:102F6000124D2046294600F03AF820B12946204665
:102F700000F026F809E00E49204600F030F820B9AC
:102F80004FF00121204600F02AF82046BDE87040AD
:102F9000012100F018B8000000800001005400403A
:102FA00000400001001000010008000100040001C1
:102FB00000020001014800F023B800000054004066
:102FC000C94381827047002904D0018841F400710F
:102FD00001807047018821F400710180704710B5AD
:102FE00002460020938801F0E06403EA144321F0D4
:102FF0007F41928A0A4202D0002B00D0012010BDEE
:10300000818A008B0004014321F07F40704700005B
:1030100002494AF6AA2008607047000000300040CC
:10302000FEE770472DE9FF4F85B00746884600242C
:1030300016B20320A0EB42000FFA80F9A4E0129828
:10304000E8B325464AE0381908EB050A04901FFA50
:103050008AF180B2089AFDF726FCA7EB040B1FFA51
:103060008AF11FFA8BF0089AFDF71DFC08EB0400AB
:10307000039081B2A7EB050A1FFA8AF0089AFDF7C0
:1030800012FCA8EB040081B202901FFA8AF0089AA1
:10309000FDF709FCA8EB050A1FFA8AF11FFA8BF06D
:1030A000089AFDF700FC04981FFA8AF180B2089A8A
:1030B000FDF7F9FB029807EB050A81B200E010E08A
:1030C0001FFA8AF0089AFDF7EEFB0398089A81B27E
:1030D0001FFA8AF0FDF7E7FB6D1C2DB2B542B2DD99
:1030E0003FE008EB060507EB040AA9B21FFA8AF0D5
:1030F000089AFDF7D8FBA9B23D1BA8B2089AFDF7C4
:10310000D2FB08EB040081B2A7EB060B01901FFA7B
:103110008BF0089AFDF7C7FBA8EB040081B2009082
:103120001FFA8BF0089AFDF7BEFBA8EB060B1FFAFF
:103130008BF1A8B2089AFDF7B6FB1FFA8BF11FFAC4
:103140008AF0089AFDF7AFFB0098BD1981B2A8B2CA
:10315000089AFDF7A8FB0198089A81B2A8B2FDF77A
:10316000A2FB641C24B2B9F1000F05DA09EB84005C
:10317000801D0FFA80F907E0A01B09EB80000A30E0
:103180000FFA80F9761E36B2B4427FF758AF09B015
:10319000BDE8F08F38B5049C0094FDF737FB38BDCF
:1031A0002DE9F04F85B084460F9F0E464FF0000882
:1031B000A2EB0C00002801DCACEB020000B2991B72
:1031C000002900DCF11A09B20FFA8CF435B24FF085
:1031D000FF39624504D34FF0010A4FF0010B01E0C3
:1031E000CA46CB46B34203D301220492039203E0C2
:1031F000CDF81090CDF80C9088420ADB4FF0000A11
:103200000022039200EBD072521016B20291814656
:1032100038E04FF0000B0022049201EBD172521003
:1032200016B2029089462DE0E019B0F5F07F25DC5A
:10323000E01B23D4E819B0F5487F1FDCE81B1DD440
:1032400001210E98CDE900017A00A9B2A0B213467F
:1032500000F01DF80298304406B24E4508DBA6EB9C
:10326000090006B204EB0A0004B20498284405B22F
:1032700004EB0B0004B20398284405B208F10108DE
:103280000FFA88F8C845CFDD05B0BDE8F08F38B536
:10329000DDE904450B4402445B1E521E002D05D09F
:1032A0009BB292B20094FDF72EFB38BD9BB292B256
:1032B0000094FDF703FB38BD02490843024908604A
:1032C000704700000000FA050CED00E070B500F05A
:1032D0002FFA0024074D04EB440005EBC000016900
:1032E0008847641CE4B2122CF5D30349002008601F
:1032F000087170BD300100200801002070470000F7
:10330000054A002903D01168014311607047116814
:10331000814311607047000030380240054A00299F
:1033200003D0116801431160704711688143116037
:103330007047000038380240054A002903D0116860
:1033400001431160704711688143116070470000AC
:103350004438024070B5244B196801F00C01234C2D
:1033600000291ED0661004291DD008291DD0046034
:10337000196801F0F00109091D4A545C0168E14037
:1033800041601C6804F4E054A40A145D21FA04F4BA
:1033900084601B6803F460435B0BD25CD140C16066
:1033A00070BD0460E4E70660E2E70F4A121F11688F
:1033B000C1F38055116801F03F0135B1B6FBF1F161
:1033C0001468C4F38814614305E0B4FBF1F1146898
:1033D000C4F3881461431268C2F30142521C5200C4
:1033E000B1FBF2F10160C3E7083802400024F400A9
:1033F0000000002010B54FF4805000F02FF84FF47B
:10340000003450B10020FFF76FFD601200F018F893
:103410002046BDE81040FFF721BC4FF4005000F0FB
:103420001DF800280BD00120FFF75EFD4FF400705F
:1034300000F006F82046BDE81040FFF70FBC10BDB5
:1034400080B240F08000C1430348026802F080026D
:1034500011430160704700000C28004010B50021A6
:103460000D4A126802F004020B4B383B1B6802EA5B
:10347000D0340340234302EA10421343064A343A4D
:10348000126802EA1010002B03D00004000C00D0D8
:103490000121084610BD0000402800400149086095
:1034A00070470000382C014001460020024A126893
:1034B0000A4200D001207047342C014000F022B8AD
:1034C000054A002903D01168014311607047116853
:1034D00081431160704700003C2C014007480068A0
:1034E00010F0C05F08D006490120486103484FF042
:1034F000C2515830FFF766B87047000000640240C0
:103500001400002070B54FF480752846FFF7CCFFFB
:10351000214C38B1002020702846FFF7BFFF012062
:10352000206132E00220FFF7BFFF28B10220FFF741
:10353000B5FF0220207028E00820FFF7B5FF28B172
:103540000820FFF7ABFF042020701EE02020FFF7CB
:10355000ABFF28B12020FFF7A1FF0620207014E068
:103560001020FFF7A1FF28B11020FFF797FF0520DB
:1035700020700AE04FF400752846FFF795FF20B150
:103580002846FFF78BFF0720207000214CF23A30CD
:10359000FFF796FF207870BD1400002070470000F0
:1035A0000CB50022019200922749086840F480304F
:1035B00008604FF4A043086800F4003000900198C0
:1035C000401C0190009810B901989842F3D1086806
:1035D000800302D50120009000E0009200980128AD
:1035E00031D119484030026842F0805202601748D9
:1035F000026842F4404202601348083002680260E8
:10360000026842F400420260026842F4A052026082
:10361000021F0F4B13600A6842F080720A600A684A
:103620009201FCD50B4A40F205711160016821F04E
:1036300003010160016841F0020101600168C1F30A
:1036400081010229FAD10CBD00380240007000400F
:1036500008544007003C02404FF0E021042804D009
:10366000086920F0040008617047086940F0040010
:10367000086170477047000010B51248016841F4B6
:10368000700101601048016841F0010101600E4ABB
:1036900000210832116002680C4B1A400260031DC1
:1036A0000B4A1A60026822F48022026006480C303D
:1036B0000160FFF775FF03494FF000608039086033
:1036C00010BD000088ED00E000380240FFFFF6FE6C
:1036D000103000242DE9F04105460E460024134F1A
:1036E00004EB440207EBC2008188A94210D3C188D1
:1036F000B1420DD34188B1420AD837F83210A942FD
:1037000006D8017B59B9012101730169884706E098
:10371000017B012903D10021017301698847641CE1
:10372000E4B2122CDCD3BDE8F081000030010020AF
:103730002DE9F04FAD48002120F8D01C40F2C62200
:1037400020F8CE2C322520F8CC5C2A0120F8CA2C97
:1037500040F8C81C00F8C41CA54B40F8C03CA54C60
:1037600040F8BC4C20F8B85C40F2C62620F8B66C95
:10377000642620F8B46C20F8B22C46F20C3740F8DE
:10378000B07C00F8AC1C40F8A83C40F8A44C20F8F1
:10379000A06C40F2C62720F89E7C962720F89C7CDF
:1037A00020F89A2C4FF01F0C40F898CC00F8941C8D
:1037B00040F8903C40F88C4C20F8887C40F2C62CB5
:1037C00020F886CC4FF0C80C20F884CC20F8822C4E
:1037D0004FF0100840F8808C00F87C1C40F8783CD2
:1037E00040F8744C20F870CC40F2C62820F86E8C5B
:1037F0004FF0FA0820F86C8C20F86A2C4FF47849C6
:1038000040F8689C00F8641C40F8603C40F85C4C50
:1038100020F8588C40F2C62920F8569C4FF496792F
:1038200020F8549C20F8522C4FF61F0A40F850AC58
:1038300000F84C1C40F8483C40F8444C20F8409CB0
:1038400040F2C62A20F83EAC4FF4AF7A20F83CACE8
:1038500020F83A2C4FF4FC6B40F838BC00F8341CCC
:1038600040F8303C40F82C4C20F828AC40F2C62BF5
:1038700020F826BC4FF4C87B20F824BC20F8222C6A
:1038800040F2FF7E40F820EC00F81C1C40F8183C89
:1038900040F8144C20F810BC40F2C62320F80E3C2F
:1038A0004FF4E17320F80C3C20F80A2C4DF6FB6233
:1038B00040F8082C00F8041C4F4A02604F4A42604E
:1038C00001814FF41B724281858140F2C623C3817E
:1038D000016101754A4B83614A4CC461058442848D
:1038E000868440F2C625C5840125856280F82C10A7
:1038F0000363446306874287878740F2C625C587EE
:103900000225056480F844108364C464A0F85070F4
:10391000A0F85220A0F854C040F2C625A0F8565096
:103920000325856580F85C1003664466A0F868C0CE
:10393000A0F86A20A0F86C8040F2C625A0F86E506E
:103940000425056780F874108367C467A0F8808039
:10395000A0F88220A0F8849040F2C625A0F88650F6
:103960000525C0F8885080F88C10C0F89030C0F859
:103970009440A0F89890A0F89A20A0F89CA040F25B
:10398000C625A0F89E500625C0F8A05080F8A410C7
:10399000C0F8A830C0F8AC40A0F8B0A0A0F8B220A1
:1039A000A0F8B4B040F2C625A0F8B6500725C0F87C
:1039B000B85080F8BC10C0F8C030C0F8C440A0F8BF
:1039C000C8B0A0F8CA204FF4E172A0F8CC2040F2B1
:1039D000C622A0F8CE200822C0F8D02080F8D4104B
:1039E000C0F8D830C0F8DC40BDE8F08F00020020FD
:1039F000F9270008A92500082D27000871250008CF
:103A0000532800089125000870B503460020124D88
:103A100000EB400205EBC204A6889E4217D935F898
:103A200032209A4213D2E2888A4210D962888A42AE
:103A30000DD200EB400005EBC000002101732169AD
:103A40002046884720466169BDE870400847401C11
:103A5000C0B21228DCD370BD30010020002904D090
:103A6000818941F4005181817047818921F400519D
:103A7000818170470246002012880A4200D001204E
:103A8000704700007FB504460D46208A20F440515F
:103A9000E88808432082A08941F20C618843A98804
:103AA0002A8911436A8902431143A181A08A20F423
:103AB0004071A8890843A0826846FFF74BFC1E4866
:103AC000844202D01D48844201D1039800E002984C
:103AD000A189090408D500EBC00101EB0010296899
:103AE0004900B0FBF1F007E000EBC00101EB001072
:103AF00029688900B0FBF1F06422B0FBF2F1090102
:103B00000B096FF018056B4300EB8300A3891D04BC
:103B10004FF0320307D503EBC000B0FBF2F000F02A
:103B20000700084306E003EB0010B0FBF2F000F0E2
:103B30000F00084320817FBD0010014000140140A8
:103B4000C1F3080181807047FEE7000001490020B1
:103B500008607047082C004010B50020FFF7C4F93A
:103B6000BDE81040FFF7F2BF0FB4054B10B503A935
:103B7000044A029800F0DAF810BC5DF814FB00006B
:103B8000354400081001002002E008C8121F08C1D7
:103B9000002AFAD170477047002001E001C1121FCE
:103BA000002AFBD1704700002DE9FF5F82B00021A1
:103BB000DDE90430020DDDF840B0034318D044F6CF
:103BC0001050A2F2FF3242431514119801281FD061
:103BD000A5EB0B00401C5FEA000A4FF000064E4FB9
:103BE000DFF83891B046504615D5CAF1000413E00D
:103BF000119801244AA3012801D16FEA0B01029810
:103C0000119AC0E90031C0E9024206B0BDE8F09F58
:103C1000CBF10000DFE704460021404A491842EB9F
:103C20000450CDE9001012E0E00707D032463B46D1
:103C300040464946FCF7B0FB8046894632463B4643
:103C400010461946FCF7A8FB06460F466410002CE8
:103C5000EAD1DDE90401DDE90023BAF1000F06DA5B
:103C6000FCF79AFB42464B46FCF796FB05E0FCF757
:103C7000A9FC42464B46FCF7A5FC04460E46002232
:103C8000284BFCF727FD03D84FF0FF30014607E033
:103C90000022254B20463146FCF7D7FAFCF701FD00
:103CA000102409E0002C0ADB0A220023FCF78AFA20
:103CB000039B30321A55641E50EA0102F2D1641C93
:103CC000039AC4F111031444119A012A03D001226A
:103CD00008430DD10AE0084304D000204FF0110B37
:103CE000119072E7A3EB0B056D1E0DE05B4504DD43
:103CF0004FF0000205F1010504E003DA4FF0000285
:103D0000A5F10105002AECD002981199C0E9023111
:103D1000C0E9004579E70000000014400000F03FD2
:103D2000300000000000F0430000E03F2DE9FF4FAD
:103D300095B09A46884606460025EEE1252877D1BB
:103D400000242746F94A0121039400E0044316F8B1
:103D5000013F203B01FA03F01042F7D130782A28C6
:103D600011D06FF02F033078A0F13002092A16D855
:103D7000039A44F0020402EB820203EB4202104475
:103D8000761C0390EFE758F8042B0392002A03DA1D
:103D9000504244F40054039044F00204761C3078FE
:103DA0002E2816D116F8010F44F004042A280DD04D
:103DB0006FF02F023078A0F13003092B09D807EB00
:103DC000870302EB4303C718761CF3E758F8047B1C
:103DD000761C30786C280FD006DC4C2817D0682869
:103DE0000DD06A2814D104E0742810D07A280FD19D
:103DF0000DE044F400140AE044F4801401E044F4BB
:103E000040147278824202D104F58014761C761C2C
:103E1000307866280BD013DC582877D009DC0028CE
:103E200075D04528F6D04628F4D047281AD193E11A
:103E300018E0632835D0642879D0652812D18BE149
:103E4000702873D008DC6728F1D069286FD06E28FD
:103E50000DD06F2806D1ACE073282CD0752874D013
:103E6000782853D05246179990476D1C54E1C4F3FB
:103E70000250022809D003280DD0D8F800100428D9
:103E80000DD00D6008F1040846E1D8F80010EA17DB
:103E9000C1E90052F6E7D8F800100D80F2E70D7086
:103EA000F0E718F8041B8DF8001000208DF80100D1
:103EB000EB46012003E058F804BB4FF0FF306107E8
:103EC0004FF0000102D40DE009F101018946B94229
:103ED0000FDA8145F8DB1BF809100029F4D108E05E
:103EE00009F1010189468142FADB1BF8091000291A
:103EF000F6D103985346A0EB090721463846179A96
:103F000000F080FA284400EB090507E044E008E1EE
:103F10000DE01BF8010B524617999047B9F10109C2
:103F2000F7D2534621463846179AF2E039E00A2183
:103F3000C4F302524FF0000B0091022A06D058F849
:103F4000040BC117032A09D00AE023E008F1070097
:103F500020F00702F2E80201904605E000B2C11726
:103F6000042A01D140B2C117002906DA0A4600210D
:103F7000404261EB02012D2202E0220504D52B22F2
:103F80008DF80420012203E0E20701D02022F7E7A8
:103F9000914657E00A2100E010214FF0000B0091FC
:103FA0000BE010214FF0000B44F0040408270091AF
:103FB00003E008204FF0000B0090C4F30252022AE5
:103FC00005D058F8040B0021032A08D008E008F1B6
:103FD000070020F00702F2E80201904603E080B2F9
:103FE000042A00D1C0B24FF0000922072AD5327846
:103FF000702A07D0DDF800C08CF0100C5CEA0B0CC6
:1040000005D00EE040228DF80420012208E050EA9D
:10401000010306D030238DF804308DF805200222EC
:104020009146009B83F0080353EA0B030AD150EA40
:10403000010201D1620705D530228DF804204FF02E
:1040400001097F1E3278582A04D039A20C920CAA9A
:1040500002920BE03BA2F9E75B46009AFCF7B2F84C
:104060000C9B9B5C029A521E0292137050EA010252
:10407000F2D1029804A9081A00F1200B600702D5BA
:1040800024F4803400E001275F4502DDA7EB0B003C
:1040900000E0002000EB0B01009003984944401A17
:1040A0000390E00306D453462146179A039800F084
:1040B000A9F90544002706E001A85246C05D1799FA
:1040C00090476D1C7F1C4F45F6DBE0030CD5534633
:1040D0002146179A039800F095F9054404E0302032
:1040E0005246179990476D1C0099481E0090002970
:1040F000F5DC08E00298029952460078491C0291CA
:10410000179990476D1CBBF10001ABF1010BF1DC7D
:104110005BE100F065F90544761C307800287FF4F7
:104120000DAE19B02846BDE8F08F00000928010047
:10413000303132333435363738396162636465661D
:1041400000000000303132333435363738394142DF
:104150004344454600000000600700D4062708F1EC
:10416000070020F00700F0E80223804603F0004C2F
:104170005FEA0C0001D097A009E0200501D596A0C8
:1041800005E0E00701D095A001E0AFF24C001390EC
:10419000307823F0004365280CD006DC452809D090
:1041A00046281DD047287FD13BE0662818D06728D5
:1041B0007AD136E00021112F01DB112000E0781CBC
:1041C000CDE9000104A90CA8FFF7EEFCDDE90D0123
:1041D0000C9A4FF0000B07F10109109200914EE08C
:1041E0004FF000400097CDE9011004A90CA8FFF79B
:1041F000DBFCDDE90D020C9B0F994FF0000B9146A3
:104200001093009211B9791C00EB0109B7EB09007A
:1042100003D4C0F1FF3B07F10109A9EB07000190AE
:1042200042E0012F00DA01270021112F01DD1120CA
:1042300000E03846CDE9000104A90CA8FFF7B4FC62
:10424000DDE90D010C9A00914FF0000BB946109278
:1042500021070FD4009A4A4503DA914601E0A9F1FB
:104260000109B9F1010F05DD109AA9F10101515CB5
:104270003029F4D0B84202DA10F1040F03DA012138
:10428000CDE9011010E0002803DC8344A9EB000114
:1042900002E0411C494500DD8946A0EB0B00401CB3
:1042A00001904FF000400290200705D40198484546
:1042B00002DB4FF0FF30019000208DF84B00029898
:1042C0000DF14B07B0F1004F25D002200C902B20B0
:1042D0000D90029800280CDA404202902D200D909B
:1042E00007E00A210298FCF7C9F83031029007F87C
:1042F000011D0C99481E0C900029F2DC0298002840
:10430000EFD1791E0D980870307800F0200040F051
:10431000450007F8020D11A8C01BC01D029013989C
:10432000007800B1012000EB0901019801EBE07178
:10433000029801440398401A401E0390E00306D4FB
:1043400053462146179A039800F05CF805441398E9
:10435000007818B15246179990476D1CE00323D599
:1043600053462146179A039800F04CF805441BE089
:10437000BBF1000F07DB0098584504DD1098179932
:1043800010F80B0001E01799302052469047019831
:104390000BF1010B401E05F10105019004D12E2007
:1043A0005246179990476D1CB9F10001A9F1010916
:1043B000DEDC05E017F8010B5246179990476D1C9B
:1043C0000299481E02900029F4DC53462146179AB0
:1043D00003989EE62D0000002B0000002000000046
:1043E0002DE9F041044600251E461746880404D4F2
:1043F00005E039462020B0476D1C641EF9D52846DB
:10440000BDE8F0812DE9F041044600251E469046A6
:10441000C80301D5302700E02027880404D505E033
:1044200041463846B0476D1C641EF9D52846BDE8A4
:10443000F081000070B50446064DE1B22846FFF752
:104440007FFB80212846FFF715FB0028F9D0204686
:1044500070BD000000100140FCF76CF9FDF794FB03
:10446000FDF784FDFEE748616C5F495744475F46AE
:10447000656564004170705F48575F496E697400FC
:104480004170705F4C43445F5461736B5F496E6968
:1044900074004170705F4C43445F53637265656E96
:1044A000466C7573685F54657374004170705F4C3F
:1044B00043445F447261774C696E655F5465737401
:1044C000004170705F4C43445F53686F7753747260
:1044D000696E675F54657374004170705F4C43444C
:1044E0005F52656164506F696E745F5465737400E8
:1044F00000000000000000000000000000000000BC
:104500003F4000000000000000003000400030008C
:104510004000000009000BC03D000BC03D00090039
:1045200018C024407FE0224031800000180024C0E1
:104530001B000D803240018003801C4027401C80FE
:104540000740004010006000000000000000000074
:104550000000000000001F8020404020000040209C
:1045600020401F8000000000090006001F80060098
:1045700009000000040004003F8004000400000063
:1045800000100060000000000000000004000400B3
:1045900004000400040000000000004000000000CF
:1045A00000000000002001C00600380040000000AC
:1045B0001F802040204020401F800000000010404D
:1045C0003FC000400000000018C0214022402440AD
:1045D0001840000010802040244024401B80000030
:1045E00002000D0011003FC0014000003C8024404B
:1045F00024402440238000001F8024402440344075
:10460000038000003000200027C038002000000098
:104610001B802440244024401B8000001C0022C03A
:10462000224022401F8000000000000008400000DF
:104630000000000000000000046000000000000016
:10464000000004000A001100208040400900090019
:10465000090009000900000000004040208011000E
:104660000A00040018002000234024001800000065
:104670001F802040274029401F400000004007C005
:1046800039000F0001C0004020403FC024402440BA
:104690001B8000001F802040204020403080000010
:1046A00020403FC0204020401F80000020403FC0ED
:1046B00024402E4030C0000020403FC024402E0047
:1046C000300000000F0010802040224033800200A4
:1046D00020403FC0040004003FC020402040204054
:1046E0003FC02040204000000060202020203FC02C
:1046F0002000200020403FC024400B0030C020405C
:1047000020403FC020400040004000C03FC03C006F
:1047100003C03C003FC0000020403FC00C402300CD
:104720003FC020001F802040204020401F8000000C
:1047300020403FC024402400180000001F8021407A
:10474000214020E01FA0000020403FC02440260060
:1047500019C0004018C0244024402240318000008D
:10476000300020403FC020403000000020003F804B
:10477000004000403F80200020003E0001C00700B4
:1047800038002000380007C03C0007C03800000097
:10479000204039C0060039C02040000020003840C9
:1047A00007C0384020000000304021C0264038407B
:1047B00020C00000000000007FE0402040200000FA
:1047C000000070000C00038000400000000040204A
:1047D00040207FE00000000000002000400020009A
:1047E0000000000000100010001000100010001069
:1047F00000000000400000000000000000000280F7
:104800000540054003C0004020003FC00440044074
:1048100003800000000003800440044006400000C4
:1048200000000380044024403FC00040000003809B
:104830000540054003400000000004401FC0244024
:1048400024402000000002E00550055006500420DE
:1048500020403FC00440040003C00040000004406A
:1048600027C000400000000000100010041027E0E6
:104870000000000020403FC00140070004C0044089
:10488000204020403FC000400040000007C004001E
:1048900007C0040003C00000044007C00440040037
:1048A00003C0004000000380044004400380000077
:1048B000041007F00450044003800000000003804F
:1048C0000440045007F00010044007C002400400F8
:1048D00004000000000006400540054004C0000040
:1048E000000004001F800440004000000400078016
:1048F0000040044007C000400400070004C00180DD
:1049000006000400060001C0070001C00600000008
:10491000044006C0010006C0044000000410071057
:1049200004E00180060004000000044005C00640C9
:10493000044000000000000004007BE04020000074
:10494000000000000000FFF0000000000000402018
:104950007BE00400000000004000800040002000D8
:1049600020004000000000000000000000000000E7
:10497000000000000000000000001FCC000C000040
:104980000000000000000800300060000800300057
:1049900060000000022003FC1E20022003FC1E20F9
:1049A0000220000000000E1811043FFF10840C7854
:1049B000000000000F0010840F3800C00778188432
:1049C0000078000000780F8410C411240E9800E4D1
:1049D000008400080800680070000000000000006B
:1049E0000000000000000000000007E0181820048C
:1049F00040020000000040022004181807E00000F8
:104A0000000000000240024001800FF001800240DF
:104A1000024000000080008000800FF800800080CD
:104A2000008000000001000D000E000000000000EA
:104A300000000000000000800080008000800080F6
:104A4000008000800000000C000C0000000000004E
:104A50000000000000000006001800600180060051
:104A600018002000000007F00808100410040808CF
:104A700007F000000000080408041FFC0004000404
:104A80000000000000000E0C1014102410441184CB
:104A90000E0C000000000C18100411041104128800
:104AA0000C700000000000E00320042408241FFC18
:104AB0000024000000001F981084110411041088C5
:104AC00010700000000007F0088811041104188815
:104AD0000070000000001C00100010FC13001C00FF
:104AE0001000000000000E3811441084108411449E
:104AF0000E38000000000700088C1044104408889D
:104B000007F00000000000000000030C030C000090
:104B1000000000000000000000010106000000008D
:104B2000000000000000008001400220041008087E
:104B30001004000002200220022002200220022095
:104B400002200000000010040808041002200140A8
:104B50000080000000000E001200100C106C10808D
:104B60000F00000003E00C1813E4142417C40828F5
:104B700007D000000004003C03C41C40074000E4D0
:104B8000001C000410041FFC1104110411040E8801
:104B90000070000003E00C1810041004100410084A
:104BA0001C10000010041FFC10041004100408085E
:104BB00007F0000010041FFC1104110417C41004B6
:104BC0000818000010041FFC1104110017C0100089
:104BD0000800000003E00C181004100410441C78B6
:104BE0000040000010041FFC10840080008010842E
:104BF0001FFC10040000100410041FFC100410041B
:104C00000000000000030001100110011FFE100051
:104C10001000000010041FFC110403801464181C11
:104C20001004000010041FFC100400040004000421
:104C3000000C000010041FFC1F0000FC1F001FFCE4
:104C40001004000010041FFC0C04030000E0101806
:104C50001FFC100007F008081004100410040808D6
:104C600007F0000010041FFC1084108010801080DA
:104C70000F00000007F0081810241024101C080A68
:104C800007F2000010041FFC1104110011C01130C4
:104C90000E0C000400000E1C11041084108410443B
:104CA0001C3800001800100010041FFC1004100035
:104CB0001800000010001FF8100400040004100485
:104CC0001FF8100010001E0011E0001C007013807F
:104CD0001C0010001FC0103C00E01F0000E0103C52
:104CE0001FC000001004180C163401C001C0163497
:104CF000180C100410001C00130400FC13041C000A
:104D0000100000000804101C1064108413041C041C
:104D1000101800000000000000007FFE400240026A
:104D200040020000000030000C0003800060001C06
:104D30000003000000004002400240027FFE00002D
:104D40000000000000000000200040004000400083
:104D5000200000000001000100010001000100012D
:104D600000010001000040004000200000000000A1
:104D700000000000000000980124014401440144A7
:104D800000FC000410001FFC0088010401040088DE
:104D9000007000000000007000880104010401049C
:104DA0000088000000000070008801040104110860
:104DB0001FFC0004000000F80144014401440144C8
:104DC00000C800000000010401040FFC11041104DC
:104DD00011001800000000D601290129012901C98C
:104DE0000106000010041FFC008401000100010402
:104DF00000FC000400000104190419FC0004000474
:104E0000000000000000000300010101190119FE6B
:104E10000000000010041FFC0024004001B4010C3D
:104E2000010400000000100410041FFC0004000432
:104E300000000000010401FC0104010001FC010468
:104E4000010000FC010401FC0084010001000104D8
:104E500000FC0004000000F8010401040104010446
:104E600000F80000010101FF008501040104008831
:104E700000700000000000700088010401040105BA
:104E800001FF00010104010401FC00840104010090
:104E900001800000000000CC012401240124012431
:104EA0000198000000000100010007F8010401045E
:104EB00000000000010001F80004000400040108E3
:104EC00001FC0004010001800170000C0010016071
:104ED0000180010001F0010C003001C00030010C24
:104EE00001F0010000000104018C00740170018CCC
:104EF00001040000010101810171000E0018016030
:104F00000180010000000184010C0134014401848E
:104F1000010C0000000000000000000001003EFC49
:104F2000400240020000000000000000FFFF0000FF
:104F3000000000000000400240023EFC01000000B2
:104F40000000000000006000800080004000400081
:104F50002000200000000000000000000000000011
:104F60000000000000000000000000000000000041
:104F70000000000000000000000000000000000031
:104F8000000000000000000F80380FFE380F80384E
:104F90000000000000000000000000000000000011
:104FA00000000100000600000C0000380000310085
:104FB000000600000C000038000030000000000077
:104FC0000000000061800067F807F9800061800040
:104FD00061800061800061800067F807F9800061EE
:104FE0008000000000000000000001C0E003E0F0CD
:104FF0000630080418081FFFFE040E080787F00398
:1050000081E000000000000001F000060C00040434
:1050100008060C7001F9C0000E00003BE000EC181F
:10502000070808040C180003E00000000001E0007D
:1050300007F003F818041C0804170807E1D003C0A0
:10504000E00023B0003C0800200800001000000031
:105050000000000100003100003200001C000000D0
:105060000000000000000000000000000000000040
:105070000000000000000000000000000000000030
:10508000000000007F0001FFC00780F00C00181036
:1050900000042000020000000000002000021000B8
:1050A000040C00180780F001FFC0007F0000000022
:1050B00000000000000000000000000000000000F0
:1050C0004200006600006600003C0000180003FF7C
:1050D000C0001800003C00006600006600004200AE
:1050E00000000000080000080000080000080000A0
:1050F000080001FFC00008000008000008000008C8
:105100000000080000000000000100003100003233
:1051100000001C0000000000000000000000000073
:10512000000000000000000000000000080000086F
:105130000000080000080000080000080000080047
:105140000008000008000008000000000000000047
:1051500000000000380000380000380000000000A7
:10516000000000000000000000000000000000003F
:1051700000000000000600001C000070000180001C
:105180000E0000380000C0000700001C00003000C6
:1051900000000000000000007F8001FFE00380703D
:1051A00006001804000804000806001803807001B7
:1051B000FFE0007F80000000000000000000010010
:1051C0000801000801000803FFF807FFF8000008C5
:1051D00000000800000800000000000000000001BE
:1051E000C03802C0580400980401180402180404CE
:1051F00018061C1803F81801E0F800000000000071
:1052000000000001C0E003C0F00400080408080426
:10521000080806180803F41801E7F00001E0000090
:1052200000000000000000000300000D000011005D
:1052300000610000810803010807FFF80FFFF80074
:1052400001080001080000000000000000E007FC69
:10525000D0060808061008061008061008061838B8
:10526000060FF00607C0000000000000000000006C
:105270003F8001FFE0038430020818041008041086
:1052800008041008071810030FF00007C000000002
:1052900000000000000003C0000700000600000638
:1052A00000F80607F806180006E0000700000600F0
:1052B0000000000000000001E1E003F7F0063410F8
:1052C000041808041808040C08040C08061618032F
:1052D000F3F001C1E000000000000000F80003FC52
:1052E000300306380402080402080402080404100B
:1052F0000308F001FFC0007F000000000000000074
:105300000000000000000000000000007038007085
:1053100038007038000000000000000000000000AD
:10532000000000000000000000000000000000007D
:10533000301A00301C0000000000000000000000D7
:105340000000000000000000000000080000140041
:105350000022000041000080800100400200200483
:1053600000100800080000000000000021000021DB
:105370000000210000210000210000210000210088
:1053800000210000210000210000000000000000BA
:105390000000080008040010020020010040008006
:1053A00080004100002200001400000800000000FE
:1053B00000000003C00004C000040000080038081A
:1053C0000F380808380810000C300007E00003C050
:1053D00000000000000000003F8000FFE00380703C
:1053E000020F1006708804C088048308047F8802B6
:1053F000C09003012000FE400000080000180001DA
:10540000F8003E0801C20007020007E20000FE00AB
:10541000001FC80001F80000380000080400080759
:10542000FFF807FFF804080804080804080804083F
:105430000806180803F41801E7F00001E000000076
:10544000000000003F8001FFE003807002001804AC
:10545000000804000804000804001006002007806B
:10546000C000000004000807FFF807FFF804000868
:1054700004000804000804001802001003807001F2
:10548000FFE0007F8000000004000807FFF807FF2E
:10549000F8040808040808040808040808043E087A
:1054A000040008060018010060000000040008075E
:1054B000FFF807FFF80408080408000408000408BF
:1054C00000043E000600000600000180000000000D
:1054D000000000003F8001FFE00380700600180418
:1054E00000080402080402080203F00783F0000227
:1054F0000000020004000807FFF807FFF80408088E
:105500000008000008000008000008000408080760
:10551000FFF807FFF8040008000000000000040086
:105520000804000804000807FFF807FFF804000853
:105530000400080400080000000000000000000053
:10554000000600000700000104000104000104003F
:105550000307FFFE07FFFC04000004000004000036
:1055600004000807FFF807FFF8040C080018000003
:105570003E0004C7800503C80600F8040038040094
:105580001800000804000807FFF807FFF8040008E7
:1055900000000800000800000800000800000800E3
:1055A000001800006000000004000807FFF80780F2
:1055B0000807FC00007FC00003F80007C000780067
:1055C00007800807FFF807FFF80400080400080731
:1055D000FFF807000803C00000E000003800001ECC
:1055E000000007000001C00400F007FFF8040000FD
:1055F000000000007F8001FFE003807006001804B7
:10560000000804000806001803003001FFE0007FD6
:105610008000000004000807FFF807FFF8040408F2
:10562000040400040400040400040400060C000345
:10563000F80001F000000000000000007F8001FF82
:10564000E00380700600880400880400C806003C5F
:1056500003003E01FFE6007F84000000040008070D
:10566000FFF807FFF8040808040800040C00040F02
:1056700000040BC00610F003F03801E00800000839
:1056800000000001E0F803F03006301004180804B0
:105690001808040C08040C080206180207F0078119
:1056A000E00000000180000600000400000400008B
:1056B00004000807FFF807FFF804000804000004CE
:1056C000000006000001800004000007FFE007FF63
:1056D000F00400180000080000080000080000089E
:1056E00000000804001007FFE004000004000006AA
:1056F000000007E00007FE00041FE00001F80000C2
:10570000380001E0043E0007C0000600000400006D
:1057100004000007E00007FFC0041FF80007C007EF
:10572000F80007FF80043FF80007C004F8000700F6
:105730000004000000000004000806001807C078FC
:1057400005F1C8003E00001F800463E80780F806EA
:105750000018040008000000040000060000078094
:105760000007E008047C08001FF80007F80018088C
:1057700004E008070000060000040000000000012B
:1057800000080600380400F80403E8040F08047C4D
:105790000805F00807C008070018040060000000B2
:1057A0000000000000000000000000000000003FBA
:1057B000FFFE200002200002200002200002200044
:1057C00002000000000000000000080000070000C8
:1057D00000C0000038000006000001C000003000DA
:1057E000000E00000100000000000000000020008A
:1057F000022000022000022000022000023FFFFEE3
:105800000000000000000000000000000000000098
:105810000000000000080000100000300000200020
:105820000030000010000008000000000000000030
:105830000000010000010000010000010000010063
:105840000001000001000001000001000001000053
:105850000100000100000000000000000020000026
:1058600020000010000010000000000000000000F8
:1058700000000000000000000000000000F000191F
:10588000F8001B1800220800260800240800241035
:10589000003FF8001FF80000080000180000000496
:1058A000000007FFF80FFFF0001818001008002094
:1058B00008002008003018001FF0000FC000000092
:1058C0000000000007C0001FF00018300020080092
:1058D0002008002008003C08001C100000600000A8
:1058E000000000000000000007C0001FF000381892
:1058F00000200800200800200804101007FFF80FFF
:10590000FFF0000010000000000000000000000791
:10591000C0001FF0001230002218002208002208E8
:10592000003208001E10000E2000000000000000E1
:10593000200000200800200801FFF803FFF80620DF
:1059400008042008042008072000030000000000CD
:1059500000000000000E000E6E001FF30031B100C9
:1059600020B10020B1003191001F13002E1E002035
:105970000E00300000000004000807FFF80FFFF8D9
:10598000001008002000002000002008003FF80060
:105990001FF80000080000000000000000000020C8
:1059A00008002008002008063FF8063FF80000081D
:1059B00000000800000800000000000000000000D7
:1059C000000000000300000300200100200100206F
:1059D00003063FFE063FFC00000000000000000040
:1059E00000000004000807FFF80FFFF8000188001E
:1059F0000300002FC00038F8002038002008000005
:105A00000800000000000000000004000804000876
:105A100004000807FFF80FFFF80000080000080066
:105A20000008000000000000002008003FF8003FD0
:105A3000F8001008002000003FF8003FF8001008B0
:105A4000002000003FF8003FF800000800000000C0
:105A50002008003FF8003FF8001008001000002068
:105A600000002008003FF8001FF8000008000000B8
:105A70000000000007C0000FF000183000300800E0
:105A80002008002008003008001830000FF0000740
:105A9000C0000000000000002001003FFF003FFFA9
:105AA00000101100200900200800200800303800F4
:105AB0001FF0000FC00000000000000007C0001F22
:105AC000F0003818002008002008002009001011FC
:105AD000001FFF003FFF0000010000000020080041
