:020000040800F2
:1000000038A40020A101000801110008F91000081F
:10001000FF1000082F0C0008391500080000000030
:100020000000000000000000000000006112000855
:10003000310C00080000000081110008391300088D
:100040003B150008BB010008BB010008BB0100080C
:10005000BB010008BB010008BB010008450D0008FA
:10006000BB010008BB010008470D0008BB010008E8
:10007000BB010008BB010008BB010008BB01000870
:10008000BB010008BB010008BB010008BB01000860
:10009000BB010008BB010008BB010008BB01000850
:1000A000BB010008BB010008BB010008BB01000840
:1000B000BB010008BB010008BB010008FD100008DF
:1000C000FB100008BB010008BB010008BB010008D1
:1000D000BB01000899130008BB010008BB01000820
:1000E000BB0100085D120008BB010008BB0100084D
:1000F000BB010008BB010008BB010008BB010008F0
:10010000BB0100085F120008BB010008BB0100082A
:10011000BB010008BB010008BB010008BB010008CF
:10012000BB010008BB010008BB010008BB010008BF
:10013000BB010008BB010008BB010008BB010008AF
:10014000BB010008BB010008BB010008BB0100089F
:10015000BB010008BB010008BB010008BB0100088F
:10016000BB010008BB010008BB010008BB0100087F
:10017000BB010008BB010008BB010008BB0100086F
:10018000BB010008BB010008DFF810D000F06AF8DE
:1001900000480047F9190008AFF3008038A4002098
:1001A0000648804706480047FEE7FEE7FEE7FEE711
:1001B000FEE7FEE7FEE7FEE7FEE7FEE73D13000889
:1001C0008901000840EA01039B0703D009E008C940
:1001D000121F08C0042AFAD203E011F8013B00F80C
:1001E000013B521EF9D2704730B504460020034649
:1001F00000E05B1C934203D2E05CCD5C401BF8D076
:1002000030BD2DE9F05F0546002092469B468846AA
:100210000646814640241BE0284641464746224682
:1002200000F041F853465A46C01A914110D3114686
:100230001846224600F028F82D1A67EB01084F46B1
:1002400022460120002100F01FF817EB00094E4163
:10025000201EA4F10104DFDC484631462A4643460D
:10026000BDE8F09F064C074D06E0E06840F0010352
:1002700094E8070098471034AC42F6D3FFF788FFA4
:10028000E01C0008001D0008202A04DB203A00FAC8
:1002900002F1002070479140C2F1200320FA03F3DD
:1002A000194390407047202A04DB203A21FA02F0DB
:1002B0000021704721FA02F3D040C2F120029140A0
:1002C000084319467047000010B500F037FE044A95
:1002D000024B11685854491C116010BD38000020B1
:1002E0001400002000B587B04FF4A06000F03EFF7E
:1002F000A82000F025FE00F01AFE03A800F05EFF23
:10030000DDE904120698CDE9001202901322034998
:100310000348039B01F012F907B000BD421A000820
:10032000501A000810B500F0E5FEBDE8104000F0DE
:10033000DFBE000010B514A001F000F91EA001F00E
:10034000FDF81EA001F0FAF828A001F0F7F833A09C
:1003500001F0F4F84FF4804251033CA001F0EEF8B4
:100360004FF400442246434943A001F0E7F82246F7
:100370004B494CA001F0E2F854A001F0DFF8BDE8D1
:1003800010400DA001F0DAB8426F6F742D2D2D2DA5
:100390002D2D2D2D2D2D20456E74657220426F6FF1
:1003A000744C6F61646572202D2D2D2D2D2D2D2DFA
:1003B0002D2D0D0A000000000D0A0000426F6F7421
:1003C0003D3D3D3D3D3D3D3D20666C617368207087
:1003D000726174696F6E207461626C65203D3D3D91
:1003E0003D3D3D3D3D3D0D0A00000000426F6F74F4
:1003F0007C206E616D6520202020207C206F666649
:1004000073657420202020207C2073697A65202069
:1004100020202020207C0D0A00000000426F6F7415
:100420002D2D2D2D2D2D2D2D2D2D2D2D2D2D2D2DFC
:100430002D2D2D2D2D2D2D2D2D2D2D2D2D2D2D2DEC
:100440002D2D2D2D2D2D0D0A00000000426F6F74F3
:100450007C20626F6F7420202020207C2030782543
:10046000303858207C20307825303858207C0D0AD0
:100470000000000000C00008426F6F747C206170B3
:10048000703020202020207C2030782530385820E3
:100490007C20307825303858207C0D0A0000000080
:1004A00000400108426F6F747C2061707031202021
:1004B0002020207C20307825303858207C2030784F
:1004C00025303858207C0D0A00000000426F6F7400
:1004D0003D3D3D3D3D3D3D3D3D3D3D3D3D3D3D3D4C
:1004E0003D3D3D3D3D3D3D3D3D3D3D3D3D3D3D3D3C
:1004F0003D3D3D3D3D3D0D0A0000000088B0FFF749
:1005000011FFFFF717FF01A800F026F801A800F07F
:100510007DF9044603A001F011F8204600F0E6FD45
:10052000FEE70000426F6F742041707020537461C9
:100530007274202E2E2E0D0A0D0A0000704710B581
:10054000034600220020491E03E09C5C2044C0B208
:10055000521C8A42F9D310BD70B58EB00446494E84
:10056000192207A9304600F033FD474D192269468C
:10057000284600F02DFD192107A8FFF7E0FF9DF8A0
:100580003410884231D141A000F0D8FF19216846CB
:10059000FFF7D5FF9DF81810884219D148A000F048
:1005A000CDFF1922694607A8FFF71EFE60B1524829
:1005B00000F0C4FF1C2207A96846FFF703FE694646
:1005C000284600F0E3F942E04C4800F0B7FF3EE077
:1005D0004B4800F0B3FF1C2207A96846FFF7F2FD65
:1005E0006946284600F0D2F931E046A000F0A6FFA7
:1005F00019216846FFF7A3FF9DF8181088420CD117
:100600004E4800F09BFF1C22694607A8FFF7DAFD61
:1006100007A9304600F0BAF919E0494800F08EFF0A
:1006200019214848FFF78BFF46490876192207A889
:10063000FFF7C8FD192243496846FFF7C3FD07A924
:10064000304600F0A3F96946284600F09FF91922C8
:1006500007A92046FFF7B6FD61683BA000F06EFFDA
:10066000A16842A000F06AFF21694AA000F066FF7D
:10067000E16852A000F062FF61695AA000F05EFFDD
:100680000EB070BD0040000800800008426F6F741B
:100690002053797374656D20706172616D65746546
:1006A00072206D61696E20736563746F722064617E
:1006B000746120636865636B6564204F4B0D0A00AD
:1006C000426F6F742053797374656D20706172612D
:1006D0006D65746572206261636B7570207365630C
:1006E000746F72206461746120636865636B656414
:1006F000204F4B0D0A000000D81B00083C1C0008CE
:10070000841B0008426F6F742053797374656D20E9
:10071000706172616D65746572206D61696E2073C0
:100720006563746F72206461746120636865636BD4
:100730006564204661696C0D0A000000341B0008E6
:10074000841C000818000020426F6F7420486172FA
:1007500064776172655F56657273696F6E203D20C4
:1007600030782530386C580D0A000000426F6F74E5
:10077000204170706C69636174696F6E305F56659B
:100780007273696F6E203D2030782530386C580DBB
:100790000A000000426F6F74204170706C696361E1
:1007A00074696F6E305F53746174757320203D20DF
:1007B00030782530386C580D0A000000426F6F7495
:1007C000204170706C69636174696F6E315F56654A
:1007D0007273696F6E203D2030782530386C580D6B
:1007E0000A000000426F6F74204170706C69636191
:1007F00074696F6E315F53746174757320203D208E
:1008000030782530386C580D0A0000002DE9F0478B
:1008100004460027A068E168234DDFF89090DFF8D8
:1008200090A0244E4FF0020888421ED3206938B1B0
:1008300001280AD020A000F081FE3046BDE8F087F4
:100840002AA000F07BFE2846F8E7344800F076FE48
:10085000A760C4F810802146484600F097F821466A
:10086000504600F093F82846E8E7606930B1012867
:1008700009D02BA000F062FE2846DFE736A000F08A
:100880005DFE3046DAE7404800F058FEE760C4F805
:1008900014802146484600F079F82146504600F081
:1008A00075F83046CAE7000000C0000800400008A4
:1008B0000080000800400108415050302041505055
:1008C0004C49434154494F4E5F4552524F522E209E
:1008D000466F726365642074686520415050312012
:1008E000746F2072756E2E0D0A000000426F6F74D7
:1008F0002041505030204150504C49434154494FC1
:100900004E5F4E4F524D414C2E2052756E207468F2
:100910006520415050302E0D0A000000941A000846
:10092000426F6F742041505031204150504C494328
:100930004154494F4E5F4552524F522E20466F72DE
:1009400063656420746865204150503020746F20C6
:1009500072756E2E0D0A0000426F6F742041505068
:1009600031204150504C49434154494F4E5F4E4F06
:10097000524D414C2E2052756E20746865204150B6
:1009800050312E0D0A000000E41A000870B504462C
:100990000D461921204600F0D5FA29462046BDE82B
:1009A0007040192200F05ABB0020421E810001F164
:1009B000E021C1F88021C1F88022401CC0B2082883
:1009C000F4D3704770B504460D4600F03DFA144864
:1009D00000F0BAF966191DE0204600F059F8054606
:1009E0000221284600F0B6F915F0070F12D1E810E1
:1009F0000C280FD2DFE800F00606060606090C0CEC
:100A00000C0C0C0C04F5804404E004F5803401E087
:100A100004F58034A642DFD8BDE8704000F0F0B99C
:100A2000F300010010B5002304E010F8014B01F8B9
:100A3000014B5B1C9342F8D310BD00002DE9F0413F
:100A400006460C4617464FF00008002500F0FCF95A
:100A50000E4800F079F90FE02178304600F0D8F91F
:100A6000092806D120783178884202D04FF0FF382B
:100A700004E06D1C641C761CBD42EDD300F0C0F98F
:100A8000BD4200D1B8464046BDE8F081F300010008
:100A9000A0F100614FF48042914201D200207047E2
:100AA00023490144914201D2082070472149014461
:100AB000914201D2102070471F490144914201D256
:100AC000182070471D490144B1F5803F01D2202014
:100AD00070471B494FF400320144914201D2282053
:100AE000704718490144914201D23020704716499D
:100AF0000144914201D23820704714490144914287
:100B000001D24020704712490144914201D248204D
:100B1000704710490144914201D2502070470E495C
:100B20000844904201D258207047002070470000CE
:100B300000C0FFF70080FFF70040FFF70000FFF75D
:100B40000000FEF70000FCF70000FAF70000F8F7DD
:100B50000000F6F70000F4F70000F2F710B50346C6
:100B600072B600F047F8FFF71FFF00F059F862B6C1
:100B70005868196881F30888002181F31488BDE85A
:100B8000104000471CB50121102000F0FBFA142092
:100B9000009000208DF8040001208DF8070002204D
:100BA0008DF805006946024800F071F91CBD00008F
:100BB000001002407CB50121202000F0E3FA4FF440
:100BC000C064009401208DF8040000228DF80620F6
:100BD0008DF8070003208DF80500054D694628466D
:100BE00000F055F92146284600F09FF97CBD000031
:100BF00000140240094A4FF0FF30106000211160DC
:100C0000121D10601160121D10601160034A103235
:100C100010601160121D10601160704710380240A2
:100C20004FF0E02000210161416181617047FEE7E2
:100C30007047000070B586B00121084600F0A2FAA6
:100C40000121102000F0ACFA214E07220A21304683
:100C500000F05BF907220921304600F056F9002424
:100C60008DF8164001208DF8170002258DF81450DC
:100C7000410204918DF8155004A9304600F007F99F
:100C80008DF814506802049004A9304600F0FFF873
:100C90004FF4E1300090ADF80440ADF80640ADF8F7
:100CA0000840ADF80C400C20ADF80A00094C69462C
:100CB000204600F0DBFB012240F22551204600F0E7
:100CC000BAFB0121204600F083FB06B070BD000096
:100CD000000002400010014008B525208DF80000FA
:100CE00001208DF8010002218DF802108DF803001B
:100CF000684600F007FA08BD10B5064C20212046D2
:100D000000F072FB0028F9D02046BDE8104000F04A
:100D10000BBC00000010014010B504466FF0040049
:100D200000F0FCFA0649E008087000EB4002C2EB54
:100D3000C0104FF6FF7202EAC000488010BD0000EC
:100D4000100000207047704701490860704700009C
:100D50000C3C024070B506460025002905D001294B
:100D600027D0022928D04FF4407500F07FF80928D9
:100D70001ED1134C206820F4407020602068284366
:100D80002060206820F0F8002060206846F0020112
:100D900008432060206840F48030206000F066F84E
:100DA000216821F002012160216821F0F801216011
:100DB00070BD4FF48075D8E74FF40075D5E700009B
:100DC000103C024009200D490A68D20301D50120D8
:100DD00070470A68D20601D5062070470A68D20516
:100DE00001D5022070470A6812F0E00F01D00720F9
:100DF000704709688907FBD5082070470C3C024002
:100E00000248016841F0004101607047103C024017
:100E100070B506460D4600F029F8092811D1094C95
:100E2000206820F44070206020682060206840F036
:100E300001002060357000F019F8216821F00101EF
:100E4000216070BD103C024005480068002805DAAA
:100E5000034804490C3801600349016070470000F1
:100E6000103C024023016745AB89EFCD08B509204E
:100E70000090FFF7A7FF009002E0FFF7A3FF0090AC
:100E80009DF800000128F8D09DF8000008BD2DE96C
:100E9000F041002201274FF0030C07FA02F50B681E
:100EA0002B40AB422CD1066853000CFA03F4A64346
:100EB00006600E79D0F800809E4046EA080606607B
:100EC0000E79012E01D0022E12D18668A6438660CB
:100ED0004E79D0F808809E4046EA0806866046684B
:100EE000AE43466045688E799640B6B2354345605C
:100EF000C568A543C560CC799C40C3681C43C460E9
:100F0000521C102AC9D3BDE8F08110B54B07DB0E87
:100F10009A40C90800EB8100016A0F249C40A1435C
:100F20000162016A1143016210BD0183704710B56F
:100F3000FFF780FEBDE81040FFF7CEBEFFF7DCBE36
:100F4000FFF7EABE70B505460C46002C0ED00B4AE2
:100F50002919914204D9342209490AA000F0EEFA75
:100F600021462846FFF72EFD002070BD2F220449A0
:100F70000EA000F0E3FA4FF0FF3070BD000004084F
:100F80002D1A0008496E666F3A203C25732C2025E7
:100F9000643E3A2073697A6520697320746F206C0F
:100FA00061726765202E2E2E200D0A00496E666F35
:100FB0003A203C25732C2025643E3A20457272204D
:100FC00073697A65203C2031202E2E2E200D0A00D8
:100FD00010B5002A0BD00C4C8318A3420FD90C2259
:100FE0000A490BA000F0AAFA6FF0010010BD072219
:100FF000064911A000F0A2FA4FF0FF3010BDFFF734
:1010000011FD002010BD000000000408061A0008B1
:10101000496E666F3A203C25732C2025643E3A20A9
:1010200073697A6520697320746F206C61726765DB
:10103000202E2E2E200D0A00496E666F3A203C2588
:10104000732C2025643E3A204572722073697A65BC
:10105000203C2031202E2E2E200D0A0070B5054692
:101060000E461446002C0FD00B4B2A199A4204D975
:101070001F220A490AA000F061FA2246314628469A
:10108000BDE87040FFF7DABC1A2204490EA000F058
:1010900055FA4FF0FF3070BD00000408191A00081F
:1010A000496E666F3A203C25732C2025643E3A2019
:1010B00073697A6520697320746F206C617267654B
:1010C000202E2E2E200D0A00496E666F3A203C25F8
:1010D000732C2025643E3A204572722073697A652C
:1010E000203C2031202E2E2E200D0A00FFF736BD89
:1010F000FFF748BDFFF75EBDFEE770477047FEE7AC
:101100007047000030B50F23C27801250178002A0E
:101110001FD0154A126802F4E062C2F5E062C2F321
:101120000722C2F10404D3404278A24084781C40D4
:101130001443220101F1E02181F80024007800F03D
:101140001F018D404009800000F1E020C0F80051EF
:1011500030BD01F01F0085404809800000F1E0200B
:10116000C0F8805130BD00000CED00E0024908439A
:1011700002490860704700000000FA050CED00E02D
:1011800070470000054A002903D01168014311602F
:101190007047116881431160704700003038024089
:1011A000054A002903D01168014311607047116896
:1011B00081431160704700004438024070B5244BF1
:1011C000196801F00C01234C00291ED06610042977
:1011D0001DD008291DD00460196801F0F00109092B
:1011E0001D4A545C0168E14041601C6804F4E0540D
:1011F000A40A145D21FA04F484601B6803F46043BC
:101200005B0BD25CD140C16070BD0460E4E7066056
:10121000E2E70F4A121F1168C1F38055116801F00F
:101220003F0135B1B6FBF1F11468C4F38814614392
:1012300005E0B4FBF1F11468C4F38814614312684B
:10124000C2F30142521C5200B1FBF2F10160C3E74C
:10125000083802400024F400000000207047704766
:10126000704700000CB500220192009227490868DF
:1012700040F4803008604FF4A043086800F4003068
:1012800000900198401C0190009810B90198984274
:10129000F3D10868800302D50120009000E000929D
:1012A0000098012831D119484030026842F080523C
:1012B00002601748026842F4404202601348083056
:1012C00002680260026842F400420260026842F46E
:1012D000A0520260021F0F4B13600A6842F0807236
:1012E0000A600A689201FCD50B4A40F20571116050
:1012F000016821F003010160016841F00201016011
:101300000168C1F381010229FAD10CBD0038024005
:101310000070004008544007003C02404FF0E021BC
:10132000042804D0086920F00400086170470869A7
:1013300040F00400086170477047000010B5124883
:10134000016841F4700101601048016841F0010139
:1013500001600E4A00210832116002680C4B1A40ED
:101360000260031D0B4A1A60026822F480220260A8
:1013700006480C300160FFF775FF03494FF000602D
:101380008039086010BD000088ED00E000380240A0
:10139000FFFFF6FE1030002470B5084D40F22554D2
:1013A0002146284600F027F808B1FEF78DFF2146B8
:1013B0002846BDE8704000F003B80000001001406E
:1013C00040F66A120A0A01219140C9430180704720
:1013D000002904D0818941F40051818170478189BD
:1013E00021F40051818170470246002012880A4290
:1013F00000D00120704770B5002440F66A12C1F396
:10140000421301F01F05012606FA05F2012B0CD04C
:10141000022B0DD0838A1340090A8E400088304089
:101420000BB100B10124204670BD83891340F3E75E
:10143000038A1340F0E710B540F66A13C1F3421374
:1014400001F01F040121A140012B07D0022B07D07E
:1014500014303AB102680A43026010BD0C30F8E75C
:101460001030F6E702688A43026010BD7FB504467B
:101470000D46208A20F44051E88808432082A08944
:1014800041F20C618843A9882A8911436A89024381
:101490001143A181A08A20F44071A8890843A08249
:1014A0006846FFF78BFE1E48844202D01D488442E6
:1014B00001D1039800E00298A189090408D500EB46
:1014C000C00101EB001029684900B0FBF1F007E012
:1014D00000EBC00101EB001029688900B0FBF1F0BE
:1014E0006422B0FBF2F109010B096FF018056B43A0
:1014F00000EB8300A3891D044FF0320307D503EBF3
:10150000C000B0FBF2F000F00700084306E003EB78
:101510000010B0FBF2F000F00F00084320817FBD07
:1015200000100140001401408088C0F3080070479B
:10153000C1F3080181807047FEE770470FB4054B87
:1015400010B503A9044A029800F018F810BC5DF821
:1015500014FB0000D51900083400002002E008C880
:10156000121F08C1002AFAD170477047002001E01D
:1015700001C1121F002AFBD1704700002DE9FF4F67
:101580008DB00F460546002606E025280BD0DDE984
:101590000F1290476D1C761C28780028F5D111B0E9
:1015A0003046BDE8F08F0024A246A1460122E94959
:1015B00000E0044315F8013F203B02FA03F0084223
:1015C000F7D128782A2810D06FF02F022878A0F1C0
:1015D0003001092914D80AEB8A0102EB410144F0D9
:1015E000020400EB010A6D1CF0E701CF5FEA000A7C
:1015F00003D544F40054CAF1000A44F002046D1CFF
:1016000028782E2817D115F8010F44F004042A2851
:101610000ED06FF02F022878A0F1300109290AD8E6
:1016200009EB890102EB410100EB01096D1CF2E7B6
:1016300057F8049B6D1C28786C280FD006DC4C28CA
:1016400017D068280DD06A2814D104E0742810D06F
:101650007A280FD10DE044F400140AE044F4801419
:1016600001E044F440146978814202D104F5801409
:101670006D1C6D1C28786E281ED00CDC632830D0C1
:1016800004DC00288BD0582811D19FE0642867D053
:1016900069280CD164E073282DD004DC6F2872D047
:1016A000702804D194E075286ED078286DD0DDE9DB
:1016B0000F129047761C4BE1C4F30250022806D06B
:1016C000032809D0042801CF09D0066040E101CFEA
:1016D000F117C0E900613BE101CF068038E10670F7
:1016E00036E117F8040B8DF8000000208DF801009A
:1016F000EB46012003E057F804BB4FF0FF306107D1
:101700004FF0000102D40DE008F10101884649457F
:101710000FDA8045F8DB1BF808100029F4D108E047
:1017200008F1010188468142FADB1BF80810002904
:10173000F6D1DDE90F23AAEB08008146214600F02F
:1017400031F9304400EB080604E0DDE90F121BF824
:10175000010B9047B8F10108F7D221464846F2E064
:101760000A21C4F302524FF0000B0891022A04D060
:1017700001CFC117032A09D00AE0FF1D27F0070790
:10178000F7E8020108E02CE01EE01FE000B2C117FC
:10179000042A01D140B2C117021E71F1000206DA1B
:1017A0000023D0EB030063EB01012D2202E02205B0
:1017B00004D52B228DF82420012203E0E20701D07A
:1017C0002022F7E7904653E00A210BE0102109E0C0
:1017D00010214FF0000B44F004044FF00809089169
:1017E00003E008214FF0000B0891C4F30252022AD3
:1017F00004D001CF0021032A06D006E0FF1D27F008
:101800000707F7E8020103E080B2042A00D1C0B262
:101810004FF0000822072BD52A78702A07D0DDF870
:1018200020C08CF0100C5CEA0B0C05D00EE04022BE
:101830008DF82420012208E050EA010306D030236D
:101840008DF824308DF8252002229046089B83F0E5
:10185000080353EA0B030BD150EA010201D16207DE
:1018600006D530228DF824204FF00108A9F1010996
:101870002A78582A04D038A20B9208AA0A920BE0C0
:101880003AA2F9E75B46089AFEF7BBFC0B9B9B5C10
:101890000A9A521E0A92137050EA0102F2D10A9873
:1018A000ADEB000000F1200B600702D524F480347A
:1018B00001E04FF00109D94502DDA9EB0B0000E082
:1018C000002000EB0B0141440890AAEB010AE00361
:1018D00006D4DDE90F232146504600F063F80644A4
:1018E0004FF0000908E009A911F80900DDE90F121D
:1018F000904709F10109761CC145F4DBE0030CD5E2
:10190000DDE90F232146504600F04CF8064404E080
:10191000DDE90F1230209047761C0899481E089088
:101920000029F5DC08E00A980A990078491C0A9118
:10193000DDE90F129047761CBBF10001ABF1010B02
:10194000F1DC21465046DDE90F2300F019F806448A
:101950006D1C21E609280100303132333435363729
:1019600038396162636465660000000030313233EB
:10197000343536373839414243444546000000008B
:101980002DE9F041044600251E461746880404D47C
:1019900005E039462020B0476D1C641EF9D5284665
:1019A000BDE8F0812DE9F041044600251E46904631
:1019B000C80301D5302700E02027880404D505E0BE
:1019C00041463846B0476D1C641EF9D52846BDE82F
:1019D000F081000070B50446064DE1B22846FFF7DD
:1019E000A7FD80212846FFF7FFFC0028F9D02046FC
:1019F00070BD000000100140FEF774FCFEF79EFD74
:101A0000FEF77CFDFEE748616C5F466C6173685FC2
:101A1000526561645F4C656E0048616C5F466C6145
:101A200073685F57726974655F4C656E0048616CDE
:101A30005F45617273655F466C6173685F53697A75
:101A400065004170705F48575F496E69740000001F
:101A500044656275673A203C25732C2025643E3A24
:101A600020737973636C6B203A2025642C206863A3
:101A70006C6B203A2025642C2070636C6B31203A0B
:101A80002025642C2070636C6B32203A2025642062
:101A90000D0A0000426F6F742041505030204150B9
:101AA000504C49434154494F4E5F55504441544571
:101AB000442E20436C656172204150503020737970
:101AC0007374656D20706172616D65746572732CDD
:101AD0002052756E2074686520415050302E0D0ADA
:101AE00000000000426F6F7420415050312041507F
:101AF000504C49434154494F4E5F55504441544521
:101B0000442E20436C65617220415050312073791E
:101B10007374656D20706172616D65746572732C8C
:101B20002052756E2074686520415050312E0D0A88
:101B300000000000426F6F742053797374656D204C
:101B4000706172616D65746572206261636B75703E
:101B500020736563746F72206461746120636865CB
:101B6000636B6564204F4B2C207570646174652035
:101B70006D61696E20736563746F72206461746156
:101B80000D0A0000426F6F742053797374656D20E5
:101B9000706172616D65746572206261636B7570EE
:101BA00020736563746F722064617461206368657B
:101BB000636B6564204661696C2C20757064617488
:101BC00065206261636B757020736563746F72204A
:101BD000646174610D0A0000426F6F742053797361
:101BE00074656D20706172616D65746572206D61E0
:101BF000696E20736563746F7220616E6420626128
:101C0000636B757020736563746F722064617461B7
:101C10002061726520646966666572656E742C2049
:101C2000757064617465206261636B7570207365A3
:101C300063746F7220646174610D0A00426F6F7487
:101C40002053797374656D20706172616D65746580
:101C500072206D61696E20736563746F7220616EAE
:101C600064206261636B757020736563746F7220AA
:101C70006461746120617265207468652073616DB0
:101C8000650D0A00426F6F742053797374656D207F
:101C9000706172616D65746572206D61696E20732B
:101CA0006563746F7220616E64206261636B75702E
:101CB00020736563746F722064617461206368656A
:101CC000636B6564204661696C2C20526573746F88
:101CD00072652064656661756C74730D0A0000009E
:101CE000001D000800000020380000005C150008FE
:101CF000381D00083800002000A400006C15000802
:101D000000000000010203040102030406070809A1
:101D100000000000000000000100000001000000C1
:101D200001000000000000000000000002000000B0
:081D30000000000000000000AB
:040000050800018965
:00000001FF
