:020000040800F2
:10000000181A002069020008ED0E0008A50E00086D
:10001000E90E0008B50300086B310008000000007D
:10002000000000000000000000000000F9100008BF
:10003000FD0C0008000000008D0F000811120008E0
:10004000830200088302000883020008830200087C
:10005000830200088302000883020008830200086C
:10006000830200088302000883020008830200085C
:10007000830200088302000883020008830200084C
:10008000830200088302000883020008830200083C
:10009000830200088302000883020008830200082C
:1000A000830200088302000883020008830200081C
:1000B000830200088302000883020008830200080C
:1000C00083020008830200088302000883020008FC
:1000D000830200087D12000883020008051300084F
:1000E00083020008830200088302000883020008DC
:1000F00083020008830200088302000883020008CC
:1001000083020008830200088302000883020008BB
:1001100083020008830200088302000883020008AB
:10012000830200088302000883020008830200089B
:10013000830200088302000883020008830200088B
:100140008302000883020008830200087D0F000874
:10015000830200088302000883020008830200086B
:10016000830200088302000883020008830200085B
:10017000830200088302000883020008830200084B
:10018000830200088302000800F002F800F05CF827
:100190000AA090E8000C82448344AAF10107DA45E2
:1001A00001D100F051F8AFF2090EBAE80F0013F0D8
:1001B000010F18BFFB1A43F001031847D4350000A4
:1001C000F43500000A444FF0000C10F8013B13F026
:1001D000070408BF10F8014B1D1108BF10F8015BA0
:1001E000641E05D010F8016B641E01F8016BF9D193
:1001F00013F0080F1EBF10F8014BAD1C0C1B09D1EA
:100200006D1E58BF01F801CBFAD505E014F8016B5B
:1002100001F8016B6D1EF9D59142D6D370470000ED
:100220000023002400250026103A28BF78C1FBD8FF
:10023000520728BF30C148BF0B6070471FB503F09D
:10024000A1FA1FBD10B510BD00F06EF81146FFF702
:10025000F5FF03F0C5F800F0A0F803B4FFF7F2FFD4
:1002600003BC03F025F8000009488047094800470F
:10027000FEE7FEE7FEE7FEE7FEE7FEE7FEE7FEE756
:10028000FEE7FEE704480549054A064B70470000B3
:10029000151200088901000818120020181A002001
:1002A0001816002018160020704700000FB40449EB
:1002B00010B503AA029800F009F810BC5DF814FB11
:1002C000040000207047704770477047074B70B5B7
:1002D0000D467B4400F011F80446284600F020F853
:1002E00010B14FF0FF3070BD204670BDEF30000000
:1002F00001694A1C02610878704700B58FB0CDE9EA
:1003000001310021059105497944CDE903101146D9
:10031000684600F02EF80FB000BD0000E5FFFFFFBB
:10032000007B00F080007047754600F03FF8AE4655
:1003300005006946534620F00700854618B020B5F1
:10034000FFF7A0FFBDE820404FF000064FF0000788
:100350004FF000084FF0000B21F00701AC46ACE86D
:10036000C009ACE8C009ACE8C009ACE8C0098D46DA
:1003700070472DE9F04106460024D6E90170F56882
:100380008046304603E04146B847641C3046A847E3
:100390000028F8D12046BDE8F08110B50446AFF33F
:1003A00000802046BDE81040FFF757BF0048704767
:1003B000B411002000BFFEE770B506460C4604F0FD
:1003C0008000802808D104F07F0000EB800106F552
:1003D0008E7000EBC10507E004F07F0000EB8001A8
:1003E00006F55D7000EBC10504F07F00287004F095
:1003F0008000C00968702946304602F075FB002075
:1004000070BD70B506460C4604F08000802808D107
:1004100004F07F0000EB800106F58E7000EBC10553
:1004200005E004EB840106F55D7000EBC1050020DA
:10043000A87004F07F002870C4F3C01068702946CB
:10044000304602F029FB002070BD2DE9F041064640
:100450000D4690461F4605F08000802808D105F023
:100460007F0000EB800106F58E7000EBC10407E011
:1004700005F07F0000EB800106F55D7000EBC10424
:1004800005F07F00207005F08000C0096070C4F89E
:100490000880E770607808B12078E080022F01D1F1
:1004A000002020712146304602F0AAFA0020BDE863
:1004B000F0812DE9F04105460E461746984606F0B4
:1004C0007F0000EB800105F55D7000EBC104E76083
:1004D000C4F814800020A061607006F07F002070D6
:1004E000E878012800D12761207820B921462846E4
:1004F00002F0AAF903E02146284602F056FB00204C
:10050000BDE8F08108B500220092009A61F30A125A
:10051000009202691268009B1A4303691A6008BDC1
:1005200070B506460C4604F08000802808D104F01F
:100530007F0000EB800106F58E7000EBC10505E041
:1005400004EB840106F55D7000EBC1050120A87085
:1005500004F07F002870C4F3C0106870294630464C
:1005600002F0F1FA002070BD2DE9F04107460D467A
:100570001646984605F07F0000EB800107F58E7067
:1005800000EBC1040120607005F07F002070E66080
:1005900026610020A061C4F81480207820B921468B
:1005A000384602F051F903E02146384602F0FDFAE0
:1005B0000020BDE8F0811CB50446204602F00FF98A
:1005C000E068C0680090204602F0B2FC03280BD11E
:1005D0000020A0704FF40070A080009820F47050AC
:1005E00000F51050009009E00120A0704020A0808C
:1005F000009820F4705000F5A05000900098E16839
:10060000C86000200190019820F4005000F50050CF
:1006100001900198E168486101201CBDF8B50546CC
:10062000002400200090284602F0C1FC064690E01D
:1006300006F0010000287DD0E1B2284600F002FB60
:100640000090009800F0010030B3012000FA04F798
:100650002869406BB84329694863002000900098DE
:1006600020F00100401C009005F1180050F8240013
:1006700000998160E1B23948006842682846904795
:10068000E878012808D13CB940F21110405D0428F7
:1006900002D1284602F083F90098C0F3C00060B18F
:1006A00000200090009820F008000830009005F12C
:1006B000180050F82400009981600098C0F30010E1
:1006C00060B100200090009820F0100010300090E1
:1006D00005F1180050F82400009981600098C0F3DB
:1006E000801060B100200090009820F04000403061
:1006F000009005F1180050F82400009981600098DE
:10070000C0F3400060B100200090009820F002008B
:10071000801C009005F1180050F8240000998160B9
:100720000098C0F3C01028B12146284600F09EFA78
:10073000002000E00BE00090009820F08000803066
:10074000009005F1180050F8240000998160641CA5
:100750007608002E7FF46CAF0120F8BD4C0000201D
:100760007CB50446002500200190204602F027FCBD
:1007700006466FE006F00100002869D0E9B2204685
:1007800002F025FC0190019800F00100C8B30020A0
:100790000190019820F00100401C019004F15400E8
:1007A00050F8250001998160E078012817D104F103
:1007B000540050F825000069009005EB850104F510
:1007C0005D7000EBC10080680099C1F31201411A0D
:1007D00005EB850204F55D7000EBC2008161E9B2B2
:1007E0001E480068026820469047E078012808D13A
:1007F0003DB940F21110005D052802D1204602F0FB
:10080000CEF80198C0F3400060B10020019001983B
:1008100020F00200801C019004F1540050F82500E3
:10082000019981600198C0F3C00088B10B4800684D
:1008300081682046884700200190019820F0080038
:100840000830019004F1540050F8250001998160AE
:100850006D1C7608002E8DD101207CBD4C0000203F
:100860003EB50446A07A70B1D4F80C01009000980F
:1008700020F002000090009820F001000090009904
:10088000D4F80C01016000200190019820F00100D3
:10089000401C0190206940680199884321694860A3
:1008A0000848006881692046884700200290029825
:1008B00020F0004000F1004002900298E168486199
:1008C00001203EBD4C0000207CB504460020019074
:1008D000019820F0100010300190E06880690199C3
:1008E0008843E1688861E068006A0090009800F041
:1008F0000F0000EB800104F55D7000EBC10500986E
:10090000C0F3434007282DD2DFE800F02C04051D7A
:100910001E2C1F0027E00098C0F30A1090B1009829
:10092000C0F30A122046E96802F05BFBE868009910
:10093000C1F30A110844E860A8690099C1F30A11DB
:100940000844A8610FE00EE00DE0082204F2CC514B
:10095000204602F046FBA8690099C1F30A11084439
:10096000A86100E000BF00BFE0688069019908430A
:10097000E168886101207CBD38B5044608480068FC
:10098000C1682046884700200090009820F00800A9
:10099000083000900098E1684861012038BD0000EF
:1009A0004C0000201FB50446002000904FF48970D1
:1009B000005D00902348006841692046884720690F
:1009C0008068019000200390039820F4006000F5F7
:1009D000006003900398E1684861A07A70B30198C1
:1009E00000F0010050B340F21510005D012825D140
:1009F0009DF80000032821D100200290029820F0E9
:100A00000100401C0290D4F80C01006802990843D0
:100A1000D4F80C110860029820F00200801C0290AB
:100A2000D4F80C01006802990843D4F80C1108604E
:100A30000548006840F0060003490860012004B042
:100A400010BD00004C00002010ED00E030B587B074
:100A500004460020029006900590049003900190B7
:100A6000029820F00100401C029020694068029921
:100A70008843216948600021204602F02FFA0025B2
:100A80000BE0FF2104F1180050F82500816004F10B
:100A9000540050F8250081606D1C6078A842F0D8A1
:100AA0004FF0FF312069816106986FF30F00401C01
:100AB0000690069880B200F580300690069920696D
:100AC000C161059820F0080008300590059820F0D5
:100AD0000100401C0590059820F00200801C059044
:100AE000059920694161049820F00100401C0490A0
:100AF000049820F0080008300490049820F00200C8
:100B0000801C0490049920690161206900680390A9
:100B1000039820F4FE600390039920690160204649
:100B200001F03DFF00200190019820F4805000F575
:100B3000805001900198E1684861044800680169AB
:100B400020468847012007B030BD00004C0000203F
:100B50002DE9F04106460F463946304602F056FA76
:100B600001214FF4897081550021801C8155002599
:100B700011E005EB850106F58E7000EBC104012044
:100B800060702570E5800020E0704020A0600020AB
:100B9000E06060616D1C7078A842EAD8002510E022
:100BA00005EB850106F55D7000EBC1040020607067
:100BB0002570E580E0704020A0600020E06060616A
:100BC0006D1C7078A842EBD8304601F0F7FD304636
:100BD00001F024FC0021304602F080FA304601F09A
:100BE000B0FC304602F043F9BDE8F08138B5044668
:100BF0000020009007480068C16920468847009897
:100C000020F4801000F5801000900098E1684861A1
:100C1000012038BD4C00002038B50446002000906B
:100C200007480068016A20468847009820F40010B1
:100C300000F5001000900098E1684861012038BD7F
:100C40004C00002030B5024615692B6915696C6BA4
:100C500024FA01F505F0010543EAC51302F1180570
:100C600055F82150AD6805EA030030BD2DE9F84381
:100C700007460E4600250020009006EB860107F58A
:100C80008E7000EBC104D4E90501451AA068A842A2
:100C900000D2A568E81C4FEA900807F1180050F848
:100CA0002600806900901BE0D4E90501451AA06880
:100CB000A84200D2A568E81C4FEA9008ABB2F2B295
:100CC0003846E16802F031FAE0682844E060A06943
:100CD0002844A06107F1180050F8260080690090B0
:100CE000009880B2404506D9D4E90510884202D266
:100CF00060690028D8D10120BDE8F8837047F0B5BD
:100D00000A4600210023002400BF3DE0012505FA2A
:100D100001F3156805EA03049C4234D105684F00CD
:100D20000326BE40B543056015794E00B540066800
:100D3000354305601579012D02D01579022D16D1A4
:100D400085684F000326BE40B543856055794E0047
:100D5000B540866835438560456801268E40B543B9
:100D60004560456896798E40B6B235434560C568A2
:100D70004F000326BE40B543C560D5794E00B5404F
:100D8000C6683543C560491C1029BFD3F0BDF0B516
:100D9000002300244D07ED0E02FA05F3CE1000F1FA
:100DA000200555F826504E07F70E0F26BE40B543D6
:100DB000CF1000F1200646F82750CE1000F1200594
:100DC00055F8265045EA0304CE1000F1200545F8F9
:100DD0002640F0BD0183704770B506462C48007868
:100DE000012852D02B480068B0F5006F02D10020D6
:100DF000284908602748006827490968884203D1C4
:100E000000202349087070BD224800682249096803
:100E1000884206D91F480068C0F500601F49086075
:100E200006E01D4800681B490968401A1B49086014
:100E30001A48006840280ED91648008884B2402518
:100E4000144800684030134908601448006840386E
:100E5000124908600FE00F48008884B20F480088EC
:100E600085B20C4800680D490968084409490860C2
:100E700000200A4908600120054908700848021945
:100E80002B4681213046FFF76FFB00BFBBE7000018
:100E900078000020700000206C000020740000200A
:100EA000A209002000BFFEE71CB50121202000F0B0
:100EB0006FF84FF4C060009001208DF8040000200E
:100EC0008DF8060003208DF8050001208DF807003D
:100ED00069460448FFF713FF4FF4C0610148FFF76C
:100EE00079FF1CBD0014024000BFFEE77047000000
:100EF00070B5002100230F22C4781CB3174C24685E
:100F000004F4E064C4F5E064C4F30721C1F104040F
:100F1000E3B20A4144789C40E1B284781440214312
:100F20000C07210E0E4C05786155047804F01F055E
:100F30000124AC4005786D11AD0005F1E025C5F840
:100F4000004109E0047804F01F050124AC40054D80
:100F50000678761145F8264070BD00000CED00E0E3
:100F600000E400E080E100E002490143024A116030
:100F7000704700000000FA050CED00E010B50248D3
:100F800000F05CFD10BD000064010020704700000F
:100F900029B1064A12680243044B1A6004E0034A6E
:100FA00012688243014B1A607047000030380240DB
:100FB00029B1064A12680243044B1A6004E0034A4E
:100FC00012688243014B1A607047000034380240B7
:100FD00029B1064A12680243044B1A6004E0034A2E
:100FE00012688243014B1A6070470000403802408B
:100FF00029B1064A12680243044B1A6004E0034A0E
:1010000012688243014B1A60704700004438024066
:10101000F0B5002100220024022500260223324FD1
:101020003F6807F00C0121B1042905D0082937D108
:1010300005E02E4F076036E02D4F076033E02A4F62
:101040003F1F3F68C7F38056274F3F1F3F6807F099
:101050003F036EB1264FB7FBF3F7DFF88CC0ACF15E
:10106000040CDCF800C0CCF3881C07FB0CF40CE08B
:101070001E4FB7FBF3F7DFF870C0ACF1040CDCF8DF
:1010800000C0CCF3881C07FB0CF4174F3F1F3F68D0
:10109000C7F301477F1C7D00B4FBF5F7076002E052
:1010A000124F076000BF00BF0F4F3F6807F0F0010D
:1010B0000909104F7A5C0768D74047600A4F3F68BC
:1010C00007F4E051890A0B4F7A5C4768D740876084
:1010D000054F3F6807F46041490B064F7A5C47684B
:1010E000D740C760F0BD0000083802400024F4007B
:1010F00000127A000A000020704700000CB50020A2
:10110000019000903448006840F480303249086013
:1011100000BF3148006800F4003000900198401C86
:101120000190009818B90198B0F5A04FF1D12A4864
:10113000006800F4003010B10120009001E00020B0
:1011400000900098012846D123484030006840F0C4
:1011500080502149403108602048006840F44040F8
:101160001E4908601C48083000681B4908310860A7
:101170000846006840F4004008600846006840F4F3
:10118000A05008601648091F0860081F006840F05A
:101190008070091F086000BF0F48006800F00070F1
:1011A0000028F9D040F205700E4908600A4808305E
:1011B000006820F00300084908310860084600680C
:1011C00040F00200086000BF03480830006800F0EB
:1011D0000C000828F8D10CBD003802400070004017
:1011E00008544007003C0240042808D14FF0E02199
:1011F000096941F004014FF0E022116107E04FF06E
:10120000E021096921F004014FF0E02211617047EB
:101210007047000010B51548006840F4700013498D
:1012200008601348006840F0010011490860002080
:101230000F49083108600E4800680E4908400C4903
:1012400008600D48091D0860081F006820F4802010
:10125000091F0860002006490C310860FFF74EFFA7
:101260004FF0006001498039086010BD88ED00E052
:1012700000380240FFFFF6FE1030002410B540F2A7
:1012800025511D4800F06DF810B31B4800F022F9FD
:10129000C4B21A48008800F40040C8B91748008852
:1012A00000F4804060B10A2C03D00020134908806C
:1012B00020E01248008840F400401049088019E0FE
:1012C0000D2C06D10D48008840F480400B49088061
:1012D00010E00A480088C0F30D0009490C54074883
:1012E0000088401C0549088008460088C72801DDA1
:1012F0000020088010BD0000001001400800002000
:101300005807002010B540F22551084800F029F890
:1013100018B10021084601F055FF0821034800F0EC
:1013200013F810B1014800F0D5F810BD0048004096
:1013300021B1828942F40052828104E082894DF613
:10134000FF731A408281704702460020B1F5007F8A
:1013500000D100BF13880B400BB1012000E000203A
:10136000704770B50246002400230025002040F697
:101370006A16B14200D100BFC1F3421501F01F034C
:10138000012606FA03F3012D02D19689334006E0C7
:10139000022D02D1168A334001E0968A33400C12A6
:1013A000012606FA04F41688344013B10CB101206A
:1013B00000E0002070BDF0B50346002400260025A3
:1013C000002040F66A17B94200D100BF1846C1F3A9
:1013D000421401F01F06012707FA06F5012C01D17E
:1013E0000C3004E0022C01D1103000E014301AB1AE
:1013F00007682F43076002E00768AF430760F0BD4E
:101400002DE9FF4705460E460024A14600BFA04631
:10141000B08900B100BF2C8A24F44054F088044302
:101420002C82AC8941F20C608443B0883189084336
:10143000718908430443AC81AC8A24F44074B089B8
:101440000443AC826846FFF7E3FD2048854202D0A2
:101450001F48854202D1DDF80C9001E0DDF80890CC
:10146000A88900F4004040B109EBC90000EB091065
:1014700031684900B0FBF1F707E009EBC90000EB68
:10148000091031688900B0FBF1F76420B7FBF0F078
:1014900004012009642101FB1078A88900F40040B0
:1014A00040B1322000EBC800B0FBF1F000F00700C3
:1014B000044308E0322000EB08106421B0FBF1F097
:1014C00000F00F0004432C81BDE8FF8700100140AD
:1014D0000014014001468888C0F30800704770B5C9
:1014E00004460D46D4F8E405294642682046904754
:1014F000002070BD70B504460D464FF48970005D44
:10150000022802D0032812D100E000BF6888012819
:101510000CD100214FF48C700151D4F8E405294618
:10152000826820469047204600F075F804E029467E
:10153000204600F021F800BF00BF70BD2DE9F0414A
:1015400006460C46154600272B462246002130460B
:10155000FEF7AFFF3846BDE8F0812DE9F0410646C1
:101560000C46154600272B46224600213046FEF742
:10157000FBFF3846BDE8F08170B504460D4680217A
:101580002046FEF7CDFF00212046FEF7C9FF20468A
:1015900001F005FA70BD2DE9F04104460E461546EE
:1015A0000027C4F89453C4F89053032140F211105B
:1015B00001552B46324600212046FEF77AFF384679
:1015C000BDE8F08170B504460025052140F21110F8
:1015D000015500231A4619462046FEF76AFF2046A9
:1015E00001F0DDF9284670BD2DE9F04104460E46B4
:1015F00015460027C4F83C51C4F83851022140F286
:10160000111001552B46324600212046FEF7ACFF53
:101610003846BDE8F08170B504460025042140F24B
:101620001110015500231A4619462046FEF79CFF6B
:10163000204601F0B4F9284670BD70B505460E4647
:10164000002E51D105F58E7440F21110405D022834
:101650003DD1A168E069884211D9A168E069401ACA
:10166000E061E878012803D1D4E902100844E06081
:10167000A08B82B22846E168FFF76FFF27E0A168E0
:10168000206AB0FBF1F201FB120078B9A168206A70
:1016900088420BD3D4E90801884207D200221146C0
:1016A0002846FFF75AFF0020606210E0D5F8E405F5
:1016B000C06848B14FF48970405D032804D1D5F863
:1016C000E405C168284688472846FFF77BFF4FF4AA
:1016D0008B70405D012816D1284600F06BFA00217E
:1016E0004FF48B7041550EE0D5F8E405406950B1D8
:1016F0004FF48970405D032805D1D5F8E4053146E3
:10170000426928469047002070BD70B505460E46D8
:10171000A6BB05F55D7440F21110405D03283DD174
:10172000A168E069884217D9A168E069401AE061C0
:10173000E878012803D1D4E902100844E060A368E6
:10174000E069984201D2E06900E0A06882B22846D0
:10175000E168FFF7F3FE21E0D5F8E405006948B140
:101760004FF48970405D032804D1D5F8E405016980
:10177000284688472846FFF74EFF0FE0FFE7D5F8D9
:10178000E405806950B14FF48970405D032805D1AC
:10179000D5F8E4053146826928469047002070BD9F
:1017A000014600207047000070B504460D46E888E9
:1017B000012804D029462046FFF7DEFE1AE04FF448
:1017C0008970005D022802D003280DD105E00122B6
:1017D00009492046FFF708FF0BE0012204F5887154
:1017E0002046FFF701FF04E029462046FFF7C4FE2C
:1017F00000BF00BF70BD000054000020F8B50446D3
:101800000E467088001208286CD2DFE800F06B04E6
:1018100016226B6B6166A078D4F8EC150A686946ED
:1018200090470546F088402804D04FF48970005D49
:10183000012801D10820009059E0A078D4F8E415DF
:101840008A6A69469047054602216970C4F8F055D6
:101850004DE0B078062834D2DFE800F0030B131B0C
:10186000232BA078D4F8EC154A68694690470546C2
:101870002CE0A078D4F8EC158A68694690470546B4
:1018800024E0A078D4F8EC15CA686946904705466C
:101890001CE0A078D4F8EC150A6969469047054623
:1018A00014E0A078D4F8EC154A69694690470546DB
:1018B0000CE0A078D4F8EC158A6969469047054693
:1018C00004E031462046FFF757FEF8BD00BF0EE0AA
:1018D00031462046FFF750FEF7E731462046FFF736
:1018E0004BFEF2E731462046FFF746FEEDE700BF2C
:1018F000BDF8000088B1F08878B1F088BDF800101C
:10190000884202DDBDF8000000E0F0880090BDF8DC
:10191000002029462046FFF767FE00BFD5E70146B5
:10192000002002E0421CD0B2491C0A78002AF9D1FA
:101930007047000070B504460D464FF48970005D95
:10194000022802D0032813D100E000BF01200C4977
:1019500008604FF48C70005920B10846006840F0D0
:1019600002000860022206492046FFF73DFE04E01F
:1019700029462046FFF700FE00BF00BF70BD0000F3
:10198000580000202DE9F04104460D461746002678
:10199000FCB12046FFF7C3FF022101EB4000388075
:1019A0003A783046711CCEB22A5403223046711C5C
:1019B000CEB22A540AE014F8012B3046711CCEB284
:1019C0002A5400223046711CCEB22A5420780028B6
:1019D000F1D1BDE8F0812DE9F04104460F461546EE
:1019E0001E46DDF81880204600F0D0FC2046FFF7A8
:1019F000D7FEC4F8E465C4F8E885C4F8EC55394668
:101A00002046FFF7A5F8D4F8E81508688047204677
:101A100000F0AAFCBDE8F08110B50446D4F8E40556
:101A2000016A20468847002010BD10B50446D4F84E
:101A3000E405416A20468847002010BD7CB5054674
:101A40000024284601F0A0FA002865D0284601F0BD
:101A5000A6FA0190019808B900207CBD0198C0F356
:101A6000C04018B12846FEF77BFE04430198C0F33E
:101A7000804018B12846FEF7D1FD04430198C0F319
:101A8000400050B100200090009820F00200801C1F
:101A900000900098E968486100BF0198C00F18B134
:101AA0002846FEF7DDFE04430198C0F3C02018B1BC
:101AB0002846FEF777FF04430198C0F3C00018B131
:101AC0002846FEF759FF04430198C0F3001018B1EF
:101AD0002846FEF7F9FE04430198C0F3003018B120
:101AE0002846FEF7B3FF04430198C0F3403018B115
:101AF0002846FEF760FD04430198C0F3005018B17A
:101B00002846FFF773F804430198C0F3405018B11A
:101B10002846FFF781F8044320469EE790F8CC253D
:101B20000A7090F8CD254A7090F8CE3590F8CF2500
:101B300003EB02224A8090F8D03590F8D12503EBD0
:101B400002228A8090F8D23590F8D32503EB022246
:101B5000CA80CB884FF4A0721350012340F21112B7
:101B60001354704710B504460023402219462046FE
:101B7000FEF76BFC0023402280212046FEF765FC27
:101B800001214FF489700155A078D4F8E8255168F7
:101B90008847002010BD10B50446D4F8E815086940
:101BA000804740F21310015D401E0155032101558D
:101BB000002010BD01460348026808694260002009
:101BC000704700001C00002010B50446D4F8E4055E
:101BD000C06920B1D4F8E405C169204688470020D7
:101BE00010BD70B504460D46A88818BBE88808BB30
:101BF000A87800F07F064FF48970005D032804D1B7
:101C000029462046FFF7B8FC18E04FF48A700655C5
:101C100031462046FEF776FC2046FFF7FCFC26B155
:101C200002214FF48970015508E001214FF48970B9
:101C3000015503E029462046FFF79EFC70BD70B5B4
:101C400004460D46D4F8E40529460268204690472C
:101C5000D4F8E81588688047002070BD70B5044648
:101C60000D46A8783049087008460078012804DD40
:101C700029462046FFF780FC55E04FF48970005D4F
:101C8000022802D0032848D117E02748007880B105
:101C90002548007884F8100103214FF4897001551C
:101CA000214801782046FFF7CAFF2046FFF7B3FC22
:101CB00002E02046FFF7AFFC34E01B48007880B913
:101CC00002214FF4897001551748007884F81001FB
:101CD000154801782046FFF702FC2046FFF79BFCE1
:101CE0001AE094F8100110490978884211D094F84C
:101CF00010112046FFF7F3FB0B48007884F8100121
:101D0000094801782046FFF79AFF2046FFF783FC39
:101D100002E02046FFF77FFC04E029462046FFF75B
:101D20002BFC00BF00BF70BD5C000020F8B504466E
:101D30000D460026688801280DD101214FF48C70D2
:101D40000151D4F8E4052946826820469047204690
:101D5000FFF761FC39E06888022836D12879A0BBFA
:101D6000206940680090A8880612062E22D2DFE87B
:101D700006F02103090F151B009820F070001030A9
:101D8000009017E0009820F070002030009011E0E3
:101D9000009820F07000303000900BE0009820F0A8
:101DA00070004030009005E0009820F07000503046
:101DB000009000BF00BF05480099016001214FF469
:101DC0008B7001552046FFF726FCF8BD1C00002053
:101DD0001CB5044669462046FFF7A0FE9DF80000AA
:101DE00000F01F0020B1012807D002280FD109E020
:101DF0006946204600F016F811E06946204600F0DA
:101E0000F9F80CE06946204600F046F807E09DF836
:101E1000000000F080012046FEF782FB00BF00BFFB
:101E200000201CBD70B505460C46002660780A28C7
:101E300029D2DFE800F01923281E280A0528140FEC
:101E400021462846FFF7DAFC22E021462846FFF724
:101E5000C8FE1DE021462846FFF700FF18E0214696
:101E60002846FFF7A1FC13E021462846FFF762FD54
:101E70000EE021462846FFF759FF09E02146284693
:101E8000FFF738FB04E021462846FFF775FB00BF4B
:101E900000BF304670BD00002DE9F04105460E46FA
:101EA000002734797078002857D001282BD00328D8
:101EB00075D14FF48970405D022802D003281BD1F0
:101EC00007E02CB1802C03D021462846FEF728FBE2
:101ED00017E0708830B92CB1802C03D021462846F9
:101EE000FEF71EFBD5F8E405314682682846904788
:101EF0002846FFF790FB04E031462846FFF73CFBFD
:101F000000BF00BF70E04FF48970405D022802D02E
:101F100003281BD107E02CB1802C03D02146284692
:101F2000FEF7FEFA17E0708878B95CB1802C09D012
:101F300021462846FEF765FAD5F8E4053146826861
:101F4000284690472846FFF766FB04E031462846BE
:101F5000FFF712FB00BF00BF46E04FF48970405D01
:101F6000022802D0032837D107E02CB1802C03D0FF
:101F700021462846FEF7D4FA33E004F0800080289A
:101F800012D104F07F0000EB800105F58E7000EBAC
:101F9000C100807820B101201549086016E022E0D8
:101FA00000201349086011E004F0800070B904EBD0
:101FB000840105F55D7000EBC100807818B1012047
:101FC0000B49086002E00020094908600222084924
:101FD0002846FFF709FB04E031462846FFF7CCFA14
:101FE00000BF00BF00E000BF00BF3846BDE8F08181
:101FF0005000002070B504460D4600264FF489704D
:10200000005D032814D1287901280CDCD4F8E405FC
:102010002946826820469047E88840B93EB9204664
:10202000FFF7F9FA03E029462046FFF7A5FA04E096
:1020300029462046FFF7A0FA00BF00BF304670BD1A
:1020400010B504464FF48970015D401C0155042110
:10205000401E0155D4F8E815C8688047002010BD1F
:1020600070B505460C462DB92246064906A0FFF775
:1020700089FC04E02246034903A0FFF783FC0148E2
:1020800070BD00002008002056435020436F6E664C
:102090006967000010B502A0FEF708F910BD000046
:1020A0003E2056435020496E746572666163652018
:1020B000636F6E666967757265642E0A00000000C2
:1020C00010B502A0FEF7F2F810BD00003E205553F7
:1020D000422044657669636520436F6E6E65637464
:1020E00065642E0A000000000246122008800148A4
:1020F000704700003001002010B502A0FEF7D6F8AE
:1021000010BD00003E20555342204465766963654A
:1021100020446973636F6E6E65637465642E0A0094
:1021200010B5044614B1012C08D103E006A0FEF757
:10213000BDF807E00DA0FEF7B9F803E014A0FEF724
:10214000B5F800BF00BF10BD2009555342204465BB
:1021500076696365204C6962726172792076312EEE
:10216000312E30205B48535D000000000920202004
:1021700055534220446576696365204C69627261FB
:1021800072792076312E312E30205B46535D00006F
:102190002020202020555342204465766963652025
:1021A0004C6962726172792076312E312E30205B5B
:1021B0003F3F5D0010B502A0FEF778F810BD0000AB
:1021C0003E205553422044657669636520696E2040
:1021D00049646C65204D6F64652E0A0010B502A03D
:1021E000FEF764F810BD00003E20555342204465C0
:1021F0007669636520696E2053757370656E64201F
:102200004D6F64652E0A000010B502A0FEF74EF86F
:1022100010BD000020555342204F54472046532004
:1022200056435020446576696365000070B50546E5
:102230000C462DB92246064906A0FFF7A3FB04E091
:102240002246034903A0FFF79DFB014870BD000033
:102250002008002056435020496E74657266616301
:102260006500000002460420088001487047000015
:102270004C01002070B505460C462246024903A0D9
:10228000FFF780FB004870BD2008002053544D69C3
:1022900063726F656C656374726F6E69637300005F
:1022A00070B505460C462DB92246064906A0FFF733
:1022B00069FB04E0224603490CA0FFF763FB0148D9
:1022C00070BD00002008002053544D333220566961
:1022D000727475616C20436F6D506F727420696EFB
:1022E000204853206D6F64650000000053544D3347
:1022F00032205669727475616C20436F6D506F7235
:102300007420696E204653204D6F64650000000004
:1023100070B505460C462DB92246064906A0FFF7C2
:1023200031FB04E02246034907A0FFF72BFB0148DD
:1023300070BD0000200800203030303030303030A8
:102340003035304200000000303030303030303036
:102350003035304300000000024643200880014829
:1023600070470000B000002038B5044643208DF8C7
:10237000000000208DF8010003208DF802000120EC
:102380008DF803006846FEF7B3FD38BD1CB5044662
:1023900001210846FEF7FCFD01218020FEF708FE22
:1023A0004FF4C050009002208DF8040000208DF8FA
:1023B000060003208DF8050000208DF8070069460F
:1023C0000E48FEF79CFC4FF40040009001208DF871
:1023D000040000208DF8070069460848FEF78FFCCE
:1023E0000120074908600A220B210448FEF7CFFCB0
:1023F0000A220C210148FEF7CAFC1CBD0000024065
:10240000BC02404210B50446A0B200F073FF10BDFC
:1024100010B50446204600F089FF10BD3EB50446C5
:1024200000250020029001900090207A01283DD1E3
:10243000E068806B0190019820F480300190607A10
:1024400028B1019820F4801000F5801001900198C7
:10245000E168886300200290E068C06802900298FA
:1024600020F040000290029820F480000290029830
:1024700020F400300290029820F40020029002988C
:10248000E168C860204600F061F9E078012843D196
:10249000009820F01E000A300090009820F02000E4
:1024A000203000900098E168886035E0E068C068FE
:1024B0000290029820F04000403002900298E168BB
:1024C000C860204600F042F900200190019820F4F5
:1024D000803000F580300190019820F4802000F5D4
:1024E00080200190019820F4002000F50020019048
:1024F000019820F4001000F500100190607A28B1D6
:10250000019820F4801000F5801001900198E16896
:1025100088631420FFF776FFE07801280FD1E06888
:1025200080680090009820F01E000A30009000980B
:1025300020F02000203000900098E1688860284654
:102540003EBD70B588B00446002600200790069076
:102550000590049003900021D4F80C0101602069DB
:1025600000680690069820F4C050069006992069ED
:102570000160E07A01283DD10321204600F0F8FCFB
:102580008020E1684862059880B200F580000590DF
:1025900005986FF30F00803005900598E168886218
:1025A000059800EB1041049861F30F000490049823
:1025B00080B200F5000004900498E168C1F80401BD
:1025C000049800EB104161F30F000490049880B26E
:1025D00004900499E068C0F80811049800EB1041D9
:1025E00061F30F000490049880B204900499E068AD
:1025F000C0F80C111021204600F070FC204600F0BD
:1026000047FC00212069016120694161491E206960
:10261000816100212069C16100252CE004F11800CE
:1026200050F82500006807900798C00F70B100208F
:102630000790079820F0804000F1804007900798AD
:1026400020F0006000F10060079001E0002007909A
:1026500004F1180050F8250007990160002104F1E9
:10266000180050F825000161FF2104F1180050F80E
:10267000250081606D1C6078A842CFD800252CE031
:1026800004F1540050F82500006801900198C00F33
:1026900070B100200190019820F0804000F180404E
:1026A0000190019820F0006000F10060019001E0CD
:1026B0000020019004F1540050F8250001990160B8
:1026C000002104F1540050F825000161FF2104F1BC
:1026D000540050F8250081606D1C6078A842CFD866
:1026E00000200390039820F4807000F58070039020
:1026F0002069006903998843084321690861E078EB
:1027000001281DD100200290029820F00100401CF9
:102710000290029820F00200801C02904021029852
:1027200061F38A000290029820F4803000F5803036
:102730000290029861F35940029002992069016366
:10274000204600F047FB304608B070BDF8B504469F
:10275000002600250020009000BF0320FFF758FE50
:10276000E06800690090681C05461349884201D959
:102770000020F8BD0098C00F0028EED0002500987A
:1027800020F00100401C00900098E168086100BF43
:10279000E06800690090681C05460749884200D936
:1027A00004E0009800F001000028F1D100BF0320F0
:1027B000FFF72EFE3046DCE7400D030008B501466A
:1027C000002000220092009A22F00102521C009286
:1027D000CA689268009B9A43CB689A6008BD0EB5A0
:1027E00001460020002200920A69926802928A69DA
:1027F00012680192029AC2F3410232B1012A05D055
:10280000022A09D0032A0DD101E000BF00BF019ABE
:102810006FF30A02019205E0019A6FF30A02D21CDB
:10282000019200BF00BF019B8A691360009A22F4E5
:10283000807202F5807200920A695268009B9A4386
:102840001A430B695A600EBDFEB5024600200024F3
:102850000025029500954D78012D52D193691D6890
:1028600002951D6900954D6955B9009D25F07F05BC
:102870000095009D25F4C01505F50025009516E08E
:102880008E684D69B54207D98D684D610E7A009DFD
:1028900066F30605009504E00E7D009D66F30605CF
:1028A0000095009D25F4C01505F500250095009DB7
:1028B0001D61D578012D06D10F7802F1180555F864
:1028C00027500E696E61029D25F0806505F18065D7
:1028D0000295029D25F0004505F100450295029DF7
:1028E0001D60D578002D59D14D69002D56D00E7838
:1028F0000125B5402C4315696D6B25431669756339
:102900004CE00E7802F1540555F826502D680295DA
:102910000E7802F1540555F826502D6900954D6941
:102920005DB90E7A009D66F306050095009D25F4BD
:10293000C01505F5002500950CE08D684D610E7AF7
:10294000009D66F306050095009D25F4C01505F56C
:10295000002500950F7802F1540555F82750009E88
:102960002E61D578012D06D10F7802F1540555F866
:1029700027500E696E61029D25F0806505F1806526
:102980000295029D25F0004505F1004502950F785E
:1029900002F1540555F82750029E2E60FEBD0EB57B
:1029A00000210191019921F04041A1F18041019163
:1029B000019921F4C01101F500210191019921F043
:1029C0007F0118310191019A416D0A61C178012995
:1029D00015D10021009100F2CC51426D5161416D41
:1029E00009680091009921F0004101F10041009136
:1029F0004FF080210091009A416D0A6000BF0EBD2A
:102A00003CB5024600200024019400944C78012C2F
:102A10000CD10D7802F1180454F825300D780124FA
:102A2000AC40009D64F30F0500950BE00D7802F1BA
:102A3000540454F825300D780124AC40009D64F313
:102A40001F4500951C680194019CC4F3C034E4B98F
:102A50000D89019C65F30A040194CD78019C65F30E
:102A6000934401948D79019C65F399540194019CE0
:102A700024F0805404F180540194019C24F4004417
:102A800004F500440194019C1C601469E469009DF4
:102A90002C431569EC613CBD38B503460020002489
:102AA00000944C78012C05D10D7803F1180454F8EA
:102AB000252004E00D7803F1540454F8252014680F
:102AC0000094009C24F400140094CC78032C02D0D1
:102AD000CC78022C05D1009C24F0805404F1805461
:102AE0000094009C146038BD3CB5024600200024D0
:102AF000019400944C78012C0CD10D7802F118044B
:102B000054F825300D780124AC40009D64F30F0586
:102B100000950BE00D7802F1540454F825300D783F
:102B20000124AC40009D64F31F450095019C24F4F2
:102B300000440194019C1C601469E469009DAC434D
:102B40001569EC613CBD38B503460A4600200024F7
:102B500000945478012C18D1157803F1180454F816
:102B600025100C680094009CE40F2CB1009C24F00C
:102B7000804404F180440094009C24F4001404F583
:102B800000140094009C0C600EE0157803F15404CE
:102B900054F825100C680094009C24F4001404F5EB
:102BA00000140094009C0C6038BDFEB505460C4630
:102BB00000260027002002900190607801287ED135
:102BC000217805F1180050F8210000680290217862
:102BD00005F1180050F8210000690190606948B9BA
:102BE00001986FF3120001900121019861F3DC401C
:102BF000019017E06169019861F31200019060692A
:102C0000401EA1680844B0FBF1F1019861F3DC407B
:102C10000190E078012805D1019820F0C04000F132
:102C200000500190227805F1180050F82200019917
:102C30000161E878012807D1227805F1180050F8E1
:102C40002200216941610DE0E07801280AD0606925
:102C500040B12178012000FA01F72869406B384320
:102C600029694863E078012813D1286980680090B9
:102C70000098C0F3002030B9029820F0005000F115
:102C80000050029005E0029820F0805000F1805042
:102C90000290029820F0806000F18060029002981B
:102CA00020F0004000F100400290227805F1180069
:102CB00050F8220002990160E078012800E008E065
:102CC0006CD1A08A83B222782846E16800F02DFA00
:102CD00064E0217805F1540050F82100006802906A
:102CE000217805F1540050F82100006901906069D5
:102CF00050B9A168019861F3120001900121019877
:102D000061F3DC40019013E0A068401E6169084453
:102D1000A168B0FBF1F1019861F3DC4001900198EA
:102D2000C0F3C940A1684843019960F312010191C1
:102D3000227805F1540050F8220001990161E878E9
:102D4000012806D1227805F1540050F822002169AB
:102D50004161E07801280ED1607930B1029820F00D
:102D6000005000F10050029005E0029820F08050E1
:102D700000F180500290029820F0806000F18060A5
:102D80000290029820F0004000F10040029022786A
:102D900005F1540050F82200029901603046FEBD52
:102DA00008B500210091491EC26851606FF0804152
:102DB000C2685161009921F0004101F10041009188
:102DC000009921F4006101F5006100910099C26849
:102DD000916108BD38B50446002500200090E168E7
:102DE00088616FF08040E16848612046FFF7D8FFB6
:102DF000E07820B9009820F0100010300090009882
:102E000020F4006000F500600090009820F48050ED
:102E100000F580500090009820F4005000F500501C
:102E20000090009820F4802000F580200090009809
:102E300020F4002000F500200090009820F0080009
:102E400008300090009820F4801000F58010009069
:102E5000009820F4001000F500100090E0688069F0
:102E6000009988430843E1688861284638BD08B561
:102E70000146002000220092009A22F00102521C1A
:102E80000092CA689268009B1A43CB689A6008BD9A
:102E9000F8B504460025002600200090009820F098
:102EA0001000103000900098E168086100BFE068F1
:102EB00000690090701C06460749884200D904E06A
:102EC0000098C0F300100028F1D100BF0320FFF7E5
:102ED0009FFA2846F8BD0000400D0300F8B50446EF
:102EE0000D460026002700200090009820F02000CA
:102EF00020300090009865F38A1000900098E168F7
:102F0000086100BFE06800690090781C0746074927
:102F1000884200D904E00098C0F340100028F1D1A5
:102F200000BF0320FFF774FA3046F8BD400D0300E0
:102F300008B5014600200A6992680092009AC2F31F
:102F4000410232B1012A06D0022A07D0032A07D152
:102F500002E0032004E000BF022001E0012000BFE6
:102F600000BF08BD0146C868406900F00100704715
:102F700008B5026912680092009A61F3010200929A
:102F8000009B0269136008BD00B502461046FFF7BA
:102F9000E9FF012801D0012000BD0020FCE7014627
:102FA0000020CA685069CA6892691040704701469B
:102FB000086982690869C069024090B27047014699
:102FC000086982690869C0690240100C70470246AE
:102FD00002F1540353F82130986813695B69184073
:102FE0007047F0B503460024D01CC71700EB977755
:102FF000BD10D3F8D06000BF03E030680860641CE7
:10300000091DAC42F9D30846F0BD000070B5024678
:103010000C46002300200025D57001259570402521
:103020009580012C0CD14FF0A0430125D5720825C5
:103030001570042555709D15D580022515720AE07E
:103040004CB9254B0025D5720C25157006255570F9
:103050004FF4A065D580D36003F5006515610021AC
:1030600010E003F5106505EB411602F1180545F86F
:10307000216003F5306505EB411602F1540545F872
:103080002160491C55788D42EBD803F58065556168
:103090004035C2F8CC50002108E003F5A06505EBEF
:1030A000411602F1900545F82160491C15788D42C2
:1030B000F3D8002108E003F5805505EB013602F155
:1030C000D00545F82160491C15788D42F3D803F5E9
:1030D0006065C2F80C5170BD00000440F8B50446AC
:1030E0000D460026E068C0680090009820F000506F
:1030F0000090009820F080400090012D06D10098AB
:1031000020F0005000F10050009006E02DB900982A
:1031100020F0804000F1804000900098E168C86095
:103120003220FFF76FF93046F8BD2DE9F041044633
:103130000026E078B0B900270020DD1C4FEAE578D2
:1031400005EB98784FEAA80704F1D00555F822C09E
:1031500000BF04E00D68CCF80050401C091DB842C7
:10316000F8D300BF3046BDE8F08100BFFEE703465C
:10317000042B15D007DC7BB1012B0ED0022B0DD018
:10318000032B12D10BE0202B0BD0212B0AD0222BAA
:1031900009D0232B09D107E008E007E006E005E0AD
:1031A00004E003E002E001E000E000BF00BF002017
:1031B000704770B504460D462946204600F002F8D7
:1031C000002070BD30B502460B46002100BF11E063
:1031D000505C0A4C0A4D2D68605509480068401C37
:1031E000074C206020460068B0F5006F01D1002038
:1031F0002060491C9942EBD3002030BDA209002079
:103200006C000020002070470EB501210220FDF760
:10321000BFFE01218804FDF7DBFE07220A212148B9
:10322000FDF7B5FD07220B211E48FDF7B0FD4FF459
:103230004060019002208DF808008DF80900002000
:103240008DF80A0001208DF80B0001A91548FDF743
:1032500056FD4FF4E1301449086000208880C88092
:10326000088188810C2048811048FEF7C9F80121A7
:103270000E48FEF75DF8012240F225510B48FEF79B
:103280009AF827208DF8000000208DF801008DF8B5
:10329000020001208DF803006846FDF729FE00209A
:1032A0000EBD000000040240A411002000480040B0
:1032B000014600BF7047000010B504466FF00400DF
:1032C000FDF792FFE11704EB5171C1F3C701074A03
:1032D00011701046007800EB4001C1EBC0104FF6B2
:1032E000FF7101EAC0000249088010BD0000002003
:1032F0000200002070B504464FF4077094FBF0F014
:10330000C6B24FF4077094FBF0F100FB114085B298
:1033100005E04FF4077000F02FF8701EC6B2002EC3
:10332000F7D115B1284600F027F870BD0146114AC3
:1033300012784A434FF0E0235A6100229A611A46FC
:10334000126942F001021A6100BF4FF0E0221069D9
:1033500000F001021AB100F48032002AF5D04FF0DB
:10336000E022126922F001024FF0E0231A610022EC
:103370009A617047000000200146114A12884A43B2
:103380004FF0E0235A6100229A611A46126942F016
:1033900001021A6100BF4FF0E022106900F0010243
:1033A0001AB100F48032002AF5D04FF0E022126901
:1033B00022F001024FF0E0231A6100229A61704767
:1033C0000200002000BF054A128802F04002002AD5
:1033D000F9D0C2B2014B9A80704700000010014042
:1033E00008B500BF4FF4A060FDF7BEFDA820FFF7B1
:1033F00063FF4FF4E13000F023F8FDF755FD0B4873
:103400000B4B0C4A012100900B48FEF7E4FA0BE04D
:103410000A48006808B9012000E000200749086058
:103420004FF47A70FFF766FFF2E70000F800002023
:10343000840000201401002064010020A482424284
:1034400010B588B0044601210846FDF7A1FD012111
:103450001020FDF7CDFD072209212248FDF797FC3A
:1034600007220A211F48FDF792FC4FF4C060069026
:1034700002208DF81C008DF81D0000208DF81E0024
:1034800001208DF81F0006A91648FDF738FC0294AC
:103490000020ADF80C00ADF80E00ADF81000ADF84E
:1034A00014000C20ADF8120002A90F48FDF7A8FF88
:1034B00001210D48FDF73CFF012240F225510A4849
:1034C000FDF779FF25208DF8040003208DF8050015
:1034D0008DF8060001208DF8070001A8FDF708FD12
:1034E00008B010BD00000240001001402DE9F0417D
:1034F00006460F461B480078012830D11A4800685C
:1035000018B900201749087029E0174800684028BA
:103510000ED91648008884B240251448006840300F
:10352000124908601048006840380F4908600FE0F1
:103530000E48008884B20C48008885B20B480068A9
:1035400009490968084409490860002006490860DB
:10355000074802192B4681213046FDF705F8002067
:10356000BDE8F08178000020740000207000002089
:10357000A209002070B504460D4605EB850104F54F
:103580005D7000EBC100008B86B2064831460269CF
:10359000054890474023044A01212046FCF789FF53
:1035A000002070BD500100206209002070B5044663
:1035B0000D4681212046FCF7FFFE01212046FCF745
:1035C000FBFE82212046FCF7F7FE0249486880474F
:1035D000002070BD5001002010B504460848006866
:1035E000FF280AD00748836807480849026804484A
:1035F00000689847FF2002490860002010BD0000C5
:103600007C00002050010020800000206400002089
:1036100070B505460E460223402281212846FCF75C
:1036200014FF0223402201212846FCF70EFF03234A
:10363000082282212846FCF708FF084C022020714E
:10364000002060710649086880474023054A01212F
:103650002846FCF72EFF002070BD0000300100203E
:10366000500100206209002010B504460748016897
:103670000068401C054A1060052905D1002011464C
:1036800008602046FDF7A8FB002010BDF4000020D4
:103690002DE9F04105460C463A26344F207800F0DB
:1036A000600070B3202826D1E088D8B1207800F0DF
:1036B000800058B1E28860782D498B682D49984781
:1036C000E2882C492846FDF78FFF11E060782A49EF
:1036D0000860E08829490860E28826492846FDF705
:1036E0005AFF05E06078224900228B68114698470E
:1036F0000020BDE8F08121462846FDF73DFF02206D
:10370000F7E7FFE76078062804D00A2816D00B28D0
:1037100026D119E060882121B1EB202F08D1134F69
:103720000937E0883A2801DD3A2000E0E0880646C3
:10373000324639462846FDF757FF11E0012210496D
:103740002846FDF751FF0BE0A078012803DAA078A6
:103750000B49086003E021462846FDF70DFF00BF36
:1037600000BF00BF00BF0020C3E70000B900002079
:1037700050010020640000207C0000208000002018
:10378000600000204FF04070E1EE100A704700002A
:10379000B03700080000002064010000C4010008E8
:1037A0009438000864010020B418000020020008CA
:1037B000E12D01020304046506070809130B171421
:1037C000083B161408D11D1408C91B1B08650413F7
:1037D00041201B08970813191A1B082B04813A2053
:1037E00003012A72FF1311361408AD351B08910826
:1037F000411AD90C13ED341B0875085A691441138A
:10380000592315080902431302012DC0320904AFE0
:10381000190B1305241610010524011009010424B5
:1038200002020524061701070582030815FF090493
:103830000133020A2E0705010240072A81075113AE
:103840000922140821211B0895CC1ADD081AB50499
:103850001AC10C1AF9041AE9041A65201A75041A17
:10386000A1041A11781A61141A2D0C1A1253311E60
:103870004083044057894E0203010A0612120117C1
:103880000403090409321B080504136F311B08C522
:04389000041AB3045F
:040000050800018965
:00000001FF
