:020000040800F2
:10C0000050270020A1C100081DCC000815CC000855
:10C010001BCC000851C70008A5D200080000000092
:10C020000000000000000000000000007DCD0008BE
:10C0300053C70008000000009DCC000855CE000842
:10C04000A7D20008BBC10008BBC10008BBC10008E3
:10C05000BBC10008BBC10008BBC1000865C800081F
:10C06000BBC10008BBC1000867C80008BBC100080D
:10C07000BBC10008BBC10008BBC10008BBC10008B0
:10C08000BBC10008BBC10008BBC10008BBC10008A0
:10C09000BBC10008BBC10008BBC10008BBC1000890
:10C0A000BBC10008BBC10008BBC10008BBC1000880
:10C0B000BBC10008BBC10008BBC1000819CC000807
:10C0C00017CC0008BBC10008BBC10008BBC10008F9
:10C0D000BBC1000805D10008BBC10008BBC10008F6
:10C0E000BBC1000879CD0008BBC10008BBC1000876
:10C0F000BBC10008BBC10008BBC10008BBC1000830
:10C10000BBC100087BCD0008BBC10008BBC1000853
:10C11000BBC10008BBC10008BBC10008BBC100080F
:10C12000BBC10008BBC10008BBC10008BBC10008FF
:10C13000BBC10008BBC10008BBC10008BBC10008EF
:10C14000BBC10008BBC10008BBC10008BBC10008DF
:10C15000BBC10008BBC10008BBC10008BBC10008CF
:10C16000BBC10008BBC10008BBC10008BBC10008BF
:10C17000BBC10008BBC10008BBC10008BBC10008AF
:10C18000BBC10008BBC10008DFF810D000F070F898
:10C1900000480047D9D70008AFF30080502700209F
:10C1A0000648804706480047FEE7FEE7FEE7FEE751
:10C1B000FEE7FEE7FEE7FEE7FEE7FEE759CE0008F2
:10C1C00089C1000840EA01039B0703D009E008C9C0
:10C1D000121F08C0042AFAD203E011F8013B00F84C
:10C1E000013B521EF9D27047D2B201E000F8012B98
:10C1F000491EFBD270470022F6E710B513460A46E7
:10C2000004461946FFF7F0FF204610BD2DE9F05F08
:10C210000546002092469B468846064681464024B5
:10C220001BE0284641464746224600F042F8534666
:10C230005A46C01A914110D311461846224600F0C2
:10C2400029F82D1A67EB01084F46224601200021EC
:10C2500000F020F817EB00094E41201EA4F1010464
:10C26000DFDC484631462A464346BDE8F09F0000E1
:10C27000064C074D06E0E06840F0010394E8070033
:10C2800098471034AC42F6D3FFF782FF6CDB00080E
:10C290008CDB0008202A04DB203A00FA02F100209F
:10C2A00070479140C2F1200320FA03F319439040F4
:10C2B0007047202A04DB203A21FA02F0002170475F
:10C2C00021FA02F3D040C2F12002914008431946FE
:10C2D0007047000008B50020009000F0BFFB009000
:10C2E000054801F060FB002804DD01226946024890
:10C2F00001F0AFFB08BD00004002002000B587B090
:10C300000F490E4808604FF4A06000F0BDFCA82063
:10C3100000F0A6FB00F09BFB03A800F0DDFCDDE9CC
:10C3200004120698CDE9001202902322054906481E
:10C33000039B00F0B9FF07B000BD000000C000087B
:10C3400008ED00E01ADB000828DB0008407900F067
:10C350007DB8000070B501460879CA7840EA022528
:10C3600000F04CF8054C491D226810442A46FFF79E
:10C3700029FF20682844206070BD000018000020BC
:10C3800010B5034600220020491E03E09C5C2044B7
:10C39000C0B2521C8A42F9D310BD0178EF2914D1E2
:10C3A0004178AA2911D1817806290ED2DFE801F05F
:10C3B0000D030507090B00F067B800F068B800F03E
:10C3C0002DB8FFF7C3BFFFF7C5BF7047014880799D
:10C3D00070470000300000200148D0F8020070478C
:10C3E0003000002001480078704700003000002035
:10C3F0000148407870470000300000200148D0F824
:10C4000007007047300000200348002101604160B0
:10C4100001818172704700003000002010B5017A60
:10C42000427941EA02648179C079090441EA002035
:10C430000443204601F0D8F90246204600F00CF8EB
:10C44000BDE81040104600F019B80000014988719D
:10C4500070470000300000200149C1F80200704719
:10C4600030000020014908707047000030000020B3
:10C470000149487070470000300000200149C1F8B0
:10C4800007007047300000200120FFF7EBBF0120BC
:10C49000FFF7EEBF88B00FA000F006FF00F0B6FB7C
:10C4A00001A800F0B7FD4FF4C0260025114C01F0A3
:10C4B000D1F901A800F0FEFCFFF794FF0028F6D1A7
:10C4C0002068401C2060B042F1D30BA000F0ECFECD
:10C4D0002560ECE7546869732069732041707030FF
:10C4E000204C4544205461736B202E2E2E200D0AC3
:10C4F0000000000014000020546869732069732054
:10C5000041707030203232202E2E2E200D0A000075
:10C5100010B501F021FABDE81040FFF775BF10B566
:10C52000034600220020491E03E09C5C2044C0B268
:10C53000521C8A42F9D310BD70B504460D4619212C
:10C54000204600F08FFA29462046BDE870401922A7
:10C5500000F014BB70B504460D4600F005FA14480F
:10C5600000F082F966191DE0204600F059F80546F2
:10C570000221284600F07EF915F0070F12D1E810CD
:10C580000C280FD2DFE800F00606060606090C0CA0
:10C590000C0C0C0C04F5804404E004F5803401E03C
:10C5A00004F58034A642DFD8BDE8704000F0B8B989
:10C5B000F300010010B5002304E010F8014B01F86E
:10C5C000014B5B1C9342F8D310BD00002DE9F041F4
:10C5D00006460C4617464FF00008002500F0C4F947
:10C5E0000E4800F041F90FE02178304600F0A0F944
:10C5F000092806D120783178884202D04FF0FF38E0
:10C6000004E06D1C641C761CBD42EDD300F088F97B
:10C61000BD4200D1B8464046BDE8F081F3000100BC
:10C62000A0F100614FF48042914201D20020704796
:10C6300023490144914201D2082070472149014415
:10C64000914201D2102070471F490144914201D20A
:10C65000182070471D490144B1F5803F01D22020C8
:10C6600070471B494FF400320144914201D2282007
:10C67000704718490144914201D230207047164951
:10C680000144914201D2382070471449014491423B
:10C6900001D24020704712490144914201D2482002
:10C6A000704710490144914201D2502070470E4911
:10C6B0000844904201D25820704700207047000083
:10C6C00000C0FFF70080FFF70040FFF70000FFF712
:10C6D0000000FEF70000FCF70000FAF70000F8F792
:10C6E0000000F6F70000F4F70000F2F77CB5012136
:10C6F000202000F0D5FA4FF4C064009401208DF89A
:10C70000040000228DF806208DF8070003208DF824
:10C710000500054D6946284600F049F9214628469E
:10C7200000F093F97CBD000000140240BFF34F8F6E
:10C7300005480168054A01F4E06111430160BFF357
:10C740004F8F00BFFDE700000CED00E00400FA058C
:10C75000FEE7704770B586B00121084600F0A0FAE8
:10C760000121102000F0AAFA214E07220A213046AA
:10C7700000F05BF907220921304600F056F9002449
:10C780008DF8164001208DF8170002258DF8145001
:10C79000410204918DF8155004A9304600F007F9C4
:10C7A0008DF814506802049004A9304600F0FFF898
:10C7B0004FF4E1300090ADF80440ADF80640ADF81C
:10C7C0000840ADF80C400C20ADF80A00094C694651
:10C7D000204600F001FD012240F22551204600F0E4
:10C7E000E0FC0121204600F0A9FC06B070BD00006D
:10C7F000000002400010014008B525208DF800001F
:10C8000001208DF8010002218DF802108DF803003F
:10C81000684600F005FA08BD10B5064C20212046F8
:10C8200000F098FC0028F9D02046BDE8104000F048
:10C8300031BD00000010014010B504466FF0040047
:10C8400000F0FAFA0649E008087000EB4002C2EB7B
:10C85000C0104FF6FF7202EAC000488010BD000011
:10C8600010000020704770470149086070470000C1
:10C870000C3C024070B506460025002905D0012970
:10C8800027D0022928D04FF4407500F07FF80928FE
:10C890001ED1134C206820F440702060206828438B
:10C8A0002060206820F0F8002060206846F0020137
:10C8B00008432060206840F48030206000F066F873
:10C8C000216821F002012160216821F0F801216036
:10C8D00070BD4FF48075D8E74FF40075D5E70000C0
:10C8E000103C024009200D490A68D20301D50120FD
:10C8F00070470A68D20601D5062070470A68D2053B
:10C9000001D5022070470A6812F0E00F01D007201D
:10C91000704709688907FBD5082070470C3C024026
:10C920000248016841F0004101607047103C02403C
:10C9300070B506460D4600F029F8092811D1094CBA
:10C94000206820F44070206020682060206840F05B
:10C9500001002060357000F019F8216821F0010114
:10C96000216070BD103C024005480068002805DACF
:10C97000034804490C380160034901607047000016
:10C98000103C024023016745AB89EFCD08B5092073
:10C990000090FFF7A7FF009002E0FFF7A3FF0090D1
:10C9A0009DF800000128F8D09DF8000008BD2DE991
:10C9B000F041002201274FF0030C07FA02F50B6843
:10C9C0002B40AB422CD1066853000CFA03F4A6436B
:10C9D00006600E79D0F800809E4046EA08060660A0
:10C9E0000E79012E01D0022E12D18668A6438660F0
:10C9F0004E79D0F808809E4046EA08068660466870
:10CA0000AE43466045688E799640B6B23543456080
:10CA1000C568A543C560CC799C40C3681C43C4600D
:10CA2000521C102AC9D3BDE8F08110B54B07DB0EAC
:10CA30009A40C90800EB8100016A0F249C40A14381
:10CA40000162016A1143016210BD0183704710B594
:10CA5000FFF780FEBDE81040FFF7CEBEFFF7DCBE5B
:10CA6000FFF7EABE70B505460C46002C0ED00B4A07
:10CA70002919914204D9342209490AA000F014FC72
:10CA800021462846FFF766FD002070BD2F2204498D
:10CA90000EA000F009FC4FF0FF3070BD000004084C
:10CAA00005DB0008496E666F3A203C25732C202573
:10CAB000643E3A2073697A6520697320746F206C34
:10CAC00061726765202E2E2E200D0A00496E666F5A
:10CAD0003A203C25732C2025643E3A204572722072
:10CAE00073697A65203C2031202E2E2E200D0A00FD
:10CAF00010B5002A0BD00C4C8318A3420FD90C227E
:10CB00000A490BA000F0D0FB6FF0010010BD072216
:10CB1000064911A000F0C8FB4FF0FF3010BDFFF731
:10CB200049FD002010BD000000000408DEDA000806
:10CB3000496E666F3A203C25732C2025643E3A20CE
:10CB400073697A6520697320746F206C6172676500
:10CB5000202E2E2E200D0A00496E666F3A203C25AD
:10CB6000732C2025643E3A204572722073697A65E1
:10CB7000203C2031202E2E2E200D0A0070B50546B7
:10CB80000E461446002C0FD00B4B2A199A4204D99A
:10CB90001F220A490AA000F087FB22463146284698
:10CBA000BDE87040FFF712BD1A2204490EA000F044
:10CBB0007BFB4FF0FF3070BD00000408F1DA000885
:10CBC000496E666F3A203C25732C2025643E3A203E
:10CBD00073697A6520697320746F206C6172676570
:10CBE000202E2E2E200D0A00496E666F3A203C251D
:10CBF000732C2025643E3A204572722073697A6551
:10CC0000203C2031202E2E2E200D0A00FFF76EBD75
:10CC1000FFF78CBDFEE770477047FEE770470000E6
:10CC200030B50F23C27801250178002A1FD0154A9C
:10CC3000126802F4E062C2F5E062C2F30722C2F1B8
:10CC40000404D3404278A24084781C40144322015B
:10CC500001F1E02181F80024007800F01F018D40EF
:10CC60004009800000F1E020C0F8005130BD01F023
:10CC70001F0085404809800000F1E020C0F8805185
:10CC800030BD00000CED00E0024908430249086095
:10CC9000704700000000FA050CED00E0704700004E
:10CCA000054A002903D011680143116070471168DB
:10CCB000814311607047000030380240054A002966
:10CCC00003D01168014311607047116881431160FE
:10CCD000704700004438024070B5244B196801F0D9
:10CCE0000C01234C00291ED0661004291DD00829F0
:10CCF0001DD00460196801F0F00109091D4A545C57
:10CD00000168E14041601C6804F4E054A40A145D29
:10CD100021FA04F484601B6803F460435B0BD25C6B
:10CD2000D140C16070BD0460E4E70660E2E70F4AED
:10CD3000121F1168C1F38055116801F03F0135B130
:10CD4000B6FBF1F11468C4F38814614305E0B4FB49
:10CD5000F1F11468C4F3881461431268C2F301420C
:10CD6000521C5200B1FBF2F10160C3E708380240E7
:10CD70000024F40000000020704770477047000056
:10CD80000CB50022019200922749086840F48030D7
:10CD900008604FF4A043086800F400300090019848
:10CDA000401C0190009810B901989842F3D108688E
:10CDB000800302D50120009000E000920098012835
:10CDC00031D119484030026842F080520260174861
:10CDD000026842F440420260134808300268026070
:10CDE000026842F400420260026842F4A05202600B
:10CDF000021F0F4B13600A6842F080720A600A68D3
:10CE00009201FCD50B4A40F205711160016821F0D6
:10CE100003010160016841F0020101600168C1F392
:10CE200081010229FAD10CBD003802400070004097
:10CE300008544007003C02404FF0E021042804D091
:10CE4000086920F0040008617047086940F0040098
:10CE5000086170477047000010B51248016841F43E
:10CE6000700101601048016841F0010101600E4A43
:10CE700000210832116002680C4B1A400260031D49
:10CE80000B4A1A60026822F48022026006480C30C5
:10CE90000160FFF775FF03494FF0006080390860BB
:10CEA00010BD000088ED00E000380240FFFFF6FEF4
:10CEB000103000242DE9F0410446FFF799FA0128CB
:10CEC00058D1FFF79BFA0546FFF786FA0646FFF7AB
:10CED0007DFA074631462846FFF752FA874241D18C
:10CEE000254F696837EA01000DD024A000F0DCF975
:10CEF000284600F049FC0020FFF7C0FA28A000F007
:10CF0000D3F9FFF785FE31463846FFF7ABFD3246D1
:10CF100029463846FFF732FE314627A000F0C4F913
:10CF200032A000F0C1F94FF0FF30E06001206061F5
:10CF300019212046FFF7F3FA207621463348FFF700
:10CF4000FBFA21463248FFF7F7FA284600F01CFCAE
:10CF50000020FFF793FA12A000F0A6F9BDE8F04117
:10CF6000FFF756BE284600F00FFCBDE8F041002058
:10CF7000FFF784BABDE8F0810040010841707030CD
:10CF800020436865636B20417070204164647220A7
:10CF90006572726F72202E2E2E200D0A0000000086
:10CFA00041707020646576696365206961702072E4
:10CFB00065626F6F740D0A00417070302050726F9F
:10CFC0006772616D6D696E6720436F6D706C65741B
:10CFD0006564205375636365737366756C6C792142
:10CFE00020256464427479650D0A00004170703038
:10CFF000205570646174652073797374656D207059
:10D000006172616D65746572730D0A0000400008FD
:10D010000080000870B504460025184E19222146EC
:10D020003046FFF765FDA068102806D001251021C5
:10D0300013A000F039F91020A060206938B1012553
:10D040001AA000F031F9002020610F20E060012DCE
:10D0500013D119212046FFF762FA20762146304687
:10D06000FFF76AFA21461D48FFF766FA1CA000F098
:10D070001BF9BDE87040FFF7CBBD70BD0040000854
:10D0800041707020557064617465204150503020AB
:10D09000536F6674776172652056657273696F6E3F
:10D0A000203A203078253038580D0A004170702021
:10D0B0005570646174652041505030205374617420
:10D0C00075732C204150504C49434154494F4E5F99
:10D0D0004E4F524D414C0D0A0000000000800008E8
:10D0E0004170702064657669636520506172616D7E
:10D0F00052656164436865636B207265626F6F742B
:10D100000D0A000070B5084D40F22554214628460E
:10D1100000F027F808B1FFF7DDF821462846BDE802
:10D12000704000F003B800000010014040F66A12A1
:10D130000A0A01219140C94301807047002904D0A7
:10D14000818941F4005181817047818921F4005126
:10D15000818170470246002012880A4200D00120D7
:10D16000704770B5002440F66A12C1F3421301F013
:10D170001F05012606FA05F2012B0CD0022B0DD05B
:10D18000838A1340090A8E40008830400BB100B1F9
:10D190000124204670BD83891340F3E7038A1340BE
:10D1A000F0E710B540F66A13C1F3421301F01F0413
:10D1B0000121A140012B07D0022B07D014303AB136
:10D1C00002680A43026010BD0C30F8E71030F6E741
:10D1D00002688A43026010BD7FB504460D46208A6E
:10D1E00020F44051E88808432082A08941F20C6174
:10D1F0008843A9882A8911436A8902431143A1817E
:10D20000A08A20F44071A8890843A0826846FFF7ED
:10D2100063FD1E48844202D01D48844201D1039818
:10D2200000E00298A189090408D500EBC00101EBD8
:10D23000001029684900B0FBF1F007E000EBC001E5
:10D2400001EB001029688900B0FBF1F06422B0FB0B
:10D25000F2F109010B096FF018056B4300EB830035
:10D26000A3891D044FF0320307D503EBC000B0FBC8
:10D27000F2F000F00700084306E003EB0010B0FBFB
:10D28000F2F000F00F00084320817FBD0010014044
:10D29000001401408088C0F308007047C1F3080102
:10D2A00081807047FEE770470FB4054B10B503A9A6
:10D2B000044A029800F018F810BC5DF814FB000056
:10D2C00065D700082400002002E008C8121F08C12A
:10D2D000002AFAD170477047002001E001C1121FF7
:10D2E000002AFBD1704700002DE9FF4F8DB00F469B
:10D2F0000546002606E025280BD0DDE90F129047F1
:10D300006D1C761C28780028F5D111B03046BDE898
:10D31000F08F0024A246A1460122E94900E004431F
:10D3200015F8013F203B02FA03F00842F7D12878B4
:10D330002A2810D06FF02F022878A0F13001092997
:10D3400014D80AEB8A0102EB410144F0020400EB1D
:10D35000010A6D1CF0E701CF5FEA000A03D544F42F
:10D360000054CAF1000A44F002046D1C28782E28EB
:10D3700017D115F8010F44F004042A280ED06FF0DD
:10D380002F022878A0F1300109290AD809EB890178
:10D3900002EB410100EB01096D1CF2E757F8049B19
:10D3A0006D1C28786C280FD006DC4C2817D0682814
:10D3B0000DD06A2814D104E0742810D07A280FD137
:10D3C0000DE044F400140AE044F4801401E044F455
:10D3D00040146978814202D104F580146D1C6D1CE3
:10D3E00028786E281ED00CDC632830D004DC00289E
:10D3F0008BD0582811D19FE0642867D069280CD1C0
:10D4000064E073282DD004DC6F2872D0702804D11A
:10D4100094E075286ED078286DD0DDE90F12904722
:10D42000761C4BE1C4F30250022806D0032809D031
:10D43000042801CF09D0066040E101CFF117C0E90F
:10D4400000613BE101CF068038E1067036E117F854
:10D45000040B8DF8000000208DF80100EB46012040
:10D4600003E057F804BB4FF0FF3061074FF00001B5
:10D4700002D40DE008F10101884649450FDA8045E4
:10D48000F8DB1BF808100029F4D108E008F10101CD
:10D4900088468142FADB1BF808100029F6D1DDE945
:10D4A0000F23AAEB08008146214600F031F93044F1
:10D4B00000EB080604E0DDE90F121BF8010B9047B2
:10D4C000B8F10108F7D221464846F2E00A21C4F338
:10D4D00002524FF0000B0891022A04D001CFC1176D
:10D4E000032A09D00AE0FF1D27F00707F7E8020129
:10D4F00008E02CE01EE01FE000B2C117042A01D1B1
:10D5000040B2C117021E71F1000206DA0023D0EB0F
:10D51000030063EB01012D2202E0220504D52B223A
:10D520008DF82420012203E0E20701D02022F7E752
:10D53000904653E00A210BE0102109E010214FF042
:10D54000000B44F004044FF00809089103E008219F
:10D550004FF0000B0891C4F30252022A04D001CF0D
:10D560000021032A06D006E0FF1D27F00707F7E891
:10D57000020103E080B2042A00D1C0B24FF00008DB
:10D5800022072BD52A78702A07D0DDF820C08CF02E
:10D59000100C5CEA0B0C05D00EE040228DF8242024
:10D5A000012208E050EA010306D030238DF8243030
:10D5B0008DF8252002229046089B83F0080353EA49
:10D5C0000B030BD150EA010201D1620706D53022CC
:10D5D0008DF824204FF00108A9F101092A78582A72
:10D5E00004D038A20B9208AA0A920BE03AA2F9E7FB
:10D5F0005B46089AFEF70AFE0B9B9B5C0A9A521E3A
:10D600000A92137050EA0102F2D10A98ADEB0000C1
:10D6100000F1200B600702D524F4803401E04FF0C4
:10D620000109D94502DDA9EB0B0000E0002000EB69
:10D630000B0141440890AAEB010AE00306D4DDE99E
:10D640000F232146504600F063F806444FF00009CE
:10D6500008E009A911F80900DDE90F12904709F166
:10D660000109761CC145F4DBE0030CD5DDE90F238D
:10D670002146504600F04CF8064404E0DDE90F1264
:10D6800030209047761C0899481E08900029F5DC48
:10D6900008E00A980A990078491C0A91DDE90F12FE
:10D6A0009047761CBBF10001ABF1010BF1DC214688
:10D6B0005046DDE90F2300F019F806446D1C21E601
:10D6C0000928010030313233343536373839616258
:10D6D000636465660000000030313233343536371C
:10D6E0003839414243444546000000002DE9F041ED
:10D6F000044600251E461746880404D405E0394632
:10D700002020B0476D1C641EF9D52846BDE8F08185
:10D710002DE9F041044600251E469046C80301D578
:10D72000302700E02027880404D505E0414638462C
:10D73000B0476D1C641EF9D52846BDE8F08110B5D0
:10D7400003460020002B01D0002901DC002010BD81
:10D750000222491E03E09C5C2044C0B2521C8A4253
:10D76000F9DB10BD70B50446064DE1B22846FFF75F
:10D7700095FD80212846FFF7EDFC0028F9D02046D2
:10D7800070BD00000010014010B5002821D0114BE1
:10D790000022001F196803E0814203D80A46496845
:10D7A0000029F9D152B11368841A9C4204D100684F
:10D7B00018441060104602E0506000E0186039B173
:10D7C00002680B1A934203D10B681A44026049683D
:10D7D000416010BD28000020FEF790FDFEF798FE86
:10D7E000FEF758FEFEE70000F0B50B30154D20F0B7
:10D7F00007010024144A0FE003688B420BD38B42CD
:10D8000005D95E1A43184768C3E9006700E043681A
:10D81000136002C004E0021D10680028ECD120460D
:10D82000002802D1286808B10020F0BD064A074848
:10D830001060074A121A22F00702C0E900240120F2
:10D840002860D7E72C000020280000205403002087
:10D850005023002010B500F027F8124C94F8020174
:10D86000E8B194F80101012819D194F8001120467B
:10D87000FFF765FF94F80011621E40F203148A5C02
:10D88000824205D021460748FEF7B5FC012010BDB5
:10D890000448FEF782FD21460248FEF7ACFC00205A
:10D8A00010BD00003C01002070B5284D95F8020124
:10D8B000002848D105F5827000F060F8002842DDAC
:10D8C0000122234905F5827000F082F8204C0126E0
:10D8D000A5F580716078EF2802D12078AA2809D0B8
:10D8E000626820788854521C626095F80131012BDF
:10D8F0000AD027E0EF200870AA204870022060605C
:10D9000085F80161012070BD052A04D10B79C97821
:10D9100043EA012161806188891D914212D10D493C
:10D920000A48FEF74FFC4FF480710A48FEF763FC8B
:10D93000207985F8000185F8026100202070607070
:10D94000606070BD6070002070BD00003C01002070
:10D950001C0000203C00002010B540F203110548D7
:10D96000FEF749FCBDE810404FF48071024800F01A
:10D9700027B800003C0100204002002000B501460D
:10D98000D1E90120824202D14FF0000000BD02D255
:10D99000A0EB020000BD084600F010F8D1E901211B
:10D9A000511A401A00BD00B50146084600F006F8BD
:10D9B00003460846FFF7E2FF181A00BD00687047EB
:10D9C000002804D0016000F10C01416081607047C3
:10D9D0002DE9F04104460F461546D4E9010188427D
:10D9E00010D22046FFF7CAFF854200DB05462A46D3
:10D9F00038466168FEF7E6FB6068284460602846A8
:10DA0000BDE8F0812046FFF7D9FF61680A1B801A44
:10DA10000C30A84208DD2A463846FEF7D3FB606882
:10DA2000284460602846EBE72046FFF7C7FF61689F
:10DA30000A1B861A0C3632463846FEF7C3FB04F141
:10DA40000C006060AA1BB9192046FFF7C1FF3044E3
:10DA5000D6E72DE9F0410446884615462046FFF7F3
:10DA6000A2FFA84203DC4FF0FF30BDE8F081D4E90B
:10DA7000011081422AD82046FFF7A0FF0146A06886
:10DA8000021B8E1A0C3604F10C07B54211DC2A4633
:10DA90004146FEF797FBA0682844A0602046FFF7A8
:10DAA0008DFF2044A1680C30884200D1A760284631
:10DAB000DBE732464146FEF785FBA760AA1B08EB71
:10DAC00006012046FFF7C5FF3044CEE72A4641460F
:10DAD000FEF778FBA0682844A0602846C5E74861A7
:10DAE0006C5F466C6173685F526561645F4C656E24
:10DAF0000048616C5F466C6173685F57726974655A
:10DB00005F4C656E0048616C5F45617273655F468E
:10DB10006C6173685F53697A65004170705F485744
:10DB20005F496E697400000044656275673A203C85
:10DB300025732C2025643E3A20737973636C6B2027
:10DB40003A2025642C2068636C6B203A2025642CD5
:10DB50002070636C6B31203A2025642C2070636C3C
:10DB60006B32203A202564200D0A00008CDB00086F
:10DB70000000002030000000C8D20008BCDB000814
:10DB80003000002020270000D8D20008000000004C
:10DB90000102030401020304060708090000000053
:10DBA0000000000000000000000000000000000075
:0CDBB00000000000000000000000000069
:040000050800C189A5
:00000001FF
