:020000040800F2
:10C00000A89A002059C200082BCE0008D5CD000800
:10C0100029CE000831C80008F1D300080000000054
:10C02000000000000000000000000000A1C10008A6
:10C0300033C8000800000000F5C1000839D000082E
:10C0400073C2000873C2000873C2000873C20008FC
:10C0500073C2000873C2000873C2000873C20008EC
:10C0600073C2000873C2000873C2000873C20008DC
:10C0700073C2000873C2000873C2000873C20008CC
:10C0800073C2000873C2000873C2000873C20008BC
:10C0900073C2000873C2000873C2000873C20008AC
:10C0A00073C2000873C2000873C2000873C200089C
:10C0B00073C2000873C2000873C2000873C200088C
:10C0C00073C2000873C2000873C2000873C200087C
:10C0D00073C2000851D2000873C2000873C200087E
:10C0E00073C2000873C2000873C2000873C200085C
:10C0F00073C2000873C2000873C2000873C200084C
:10C1000073C2000873C2000873C2000873C200083B
:10C1100073C2000873C2000873C2000873C200082B
:10C1200073C2000873C2000873C2000873C200081B
:10C1300073C2000873C2000873C2000873C200080B
:10C1400073C2000873C2000873C2000873C20008FB
:10C1500073C2000873C2000873C2000873C20008EB
:10C1600073C2000873C2000873C2000873C20008DB
:10C1700073C2000873C2000873C2000873C20008CB
:10C1800073C2000873C20008DFF810D000F0CCF8CA
:10C1900000480047D5D80008AFF30080A89A0020D7
:10C1A0002A4B19680868B0E8F04F80F30988BFF39C
:10C1B0006F8F4FF0000080F311887047000000007F
:10C1C00006480068006880F3088862B661B6BFF36D
:10C1D0004F8FBFF36F8F00DF00BF00BF08ED00E09F
:10C1E000DFF80C00016841F470010160704700BF86
:10C1F00088ED00E0EFF30980BFF36F8F134B1A68EF
:10C200001EF0100F08BF20ED108A20E9F04F1060DB
:10C2100008B44FF0500080F31188BFF34F8FBFF385
:10C220006F8F02F02FF94FF0000080F3118808BCE7
:10C2300019680868B0E8F04F1EF0100F08BFB0ECA6
:10C24000108A80F30988BFF36F8F704724000020A5
:10C25000EFF3058070470000064880470648004716
:10C26000FEE7FEE7FEE7FEE7FEE7FEE7FEE7FEE7A6
:10C27000FEE7FEE73DD0000889C1000840EA01035F
:10C280009B0703D009E008C9121F08C0042AFAD28C
:10C2900003E011F8013B00F8013B521EF9D2704750
:10C2A000D2B201E000F8012B491EFBD270470022F8
:10C2B000F6E710B513460A4604461946FFF7F0FFA5
:10C2C000204610BD2DE9F05F0546002092469B46B2
:10C2D00088460646814640241BE02846414647469C
:10C2E000224600F042F853465A46C01A914110D3F4
:10C2F00011461846224600F029F82D1A67EB01086E
:10C300004F4622460120002100F020F817EB0009DB
:10C310004E41201EA4F10104DFDC484631462A4686
:10C320004346BDE8F09F0000064C074D06E0E0687C
:10C3300040F0010394E8070098471034AC42F6D36C
:10C34000FFF726FF58E9000878E90008202A04DBF7
:10C35000203A00FA02F1002070479140C2F1200318
:10C3600020FA03F3194390407047202A04DB203A57
:10C3700021FA02F00021704721FA02F3D040C2F105
:10C3800020029140084319467047000010B501F0A3
:10C39000B3FE00F0A1FB00F063FB0448006801F06D
:10C3A000B5FFBDE8104001F0E3BE000084000020AE
:10C3B00008B50020009000F022FC0090054801F034
:10C3C000BAFD002804DD01226946024801F009FE99
:10C3D00008BD00009895002000B587B00E490D48B3
:10C3E00008604FF4407000F055FD00F001FC03A818
:10C3F00000F076FDDDE904120698CDE90012029006
:10C40000492206490648039B00F0F4FF00F062FB56
:10C4100007B000BD00C0000808ED00E0D8E8000843
:10C4200014E9000810B501F0DFFABDE8104000F093
:10C43000A3B800001CB508480121CDE900104A024C
:10C44000002306A1094802F0FFF8012803D1BDE846
:10C450001C4001F0C5BF1CBD840000204170705419
:10C4600061736B4372656174650000008DC30008E1
:10C47000407900F09FB800002DE9F0410446207992
:10C48000E17840EA0126154D2878002818D1D4F823
:10C490000900134F37EA000107D012A000F0AAFFED
:10C4A00019A000F0A7FF00F093FC00F053F801463C
:10C4B000384600F0A7FB384600F094F801202870B9
:10C4C00000F054F8A96832460844611D00F026FCCB
:10C4D000A8683044A860BDE8F08100008C0000200E
:10C4E000004001084170703020436865636B204153
:10C4F00070702041646472206572726F72202E2EFB
:10C500002E200D0A000000004170702064657669DD
:10C51000636520696170207265626F6F740D0A0037
:10C520000178EF2914D14178AA2911D181780629FF
:10C530000ED2DFE801F00D030507090B00F058B833
:10C5400000F059B800F022B8FFF792BFFFF794BF90
:10C55000704700000148D0F802007047889300201F
:10C560000148407870470000889300200148D0F8C7
:10C570000700704788930020034800210160416054
:10C5800001818172704700008893002000B500226D
:10C59000017A437941EA03618379C0791B0443EA54
:10C5A00000200143084600F00BF810465DF804EB4C
:10C5B00000F018B801498871704700008893002086
:10C5C0000149C1F8020070478893002001490870B2
:10C5D00070470000889300200149487070470000B0
:10C5E000889300200149C1F8070070478893002014
:10C5F0000120FFF7EBBF0120FFF7EEBF10B50346A8
:10C6000000220020491E03E09C5C2044C0B2521C62
:10C610008A42F9D310BD70B504460D461921204653
:10C6200000F0F0FA29462046BDE87040192200F0DB
:10C6300075BB000070B504460D4600F0EDF91448D6
:10C6400000F06AF966191DE0204600F059F8054629
:10C650000221284600F066F915F0070F12D1E81004
:10C660000C280FD2DFE800F00606060606090C0CBF
:10C670000C0C0C0C04F5804404E004F5803401E05B
:10C6800004F58034A642DFD8BDE8704000F0A0B9C0
:10C69000F300010010B5002304E010F8014B01F88D
:10C6A000014B5B1C9342F8D310BD00002DE9F04113
:10C6B00006460C4617464FF00008002500F0ACF97E
:10C6C0000E4800F029F90FE02178304600F088F993
:10C6D000092806D120783178884202D04FF0FF38FF
:10C6E00004E06D1C641C761CBD42EDD300F070F9B3
:10C6F000BD4200D1B8464046BDE8F081F3000100DC
:10C70000A0F100614FF48042914201D200207047B5
:10C7100023490144914201D2082070472149014434
:10C72000914201D2102070471F490144914201D229
:10C73000182070471D490144B1F5803F01D22020E7
:10C7400070471B494FF400320144914201D2282026
:10C75000704718490144914201D230207047164970
:10C760000144914201D2382070471449014491425A
:10C7700001D24020704712490144914201D2482021
:10C78000704710490144914201D2502070470E4930
:10C790000844904201D258207047002070470000A2
:10C7A00000C0FFF70080FFF70040FFF70000FFF731
:10C7B0000000FEF70000FCF70000FAF70000F8F7B1
:10C7C0000000F6F70000F4F70000F2F77CB5012155
:10C7D000202000F069FB4FF4C064009401208DF824
:10C7E000040000228DF806208DF8070003208DF844
:10C7F0000500054D6946284600F0A8F9214628465F
:10C8000000F0F4F97CBD000000140240BFF34F8F2C
:10C8100005480168054A01F4E06111430160BFF376
:10C820004F8F00BFFDE700000CED00E00400FA05AB
:10C83000FEE7704770B586B00121084600F034FB72
:10C840000121102000F03EFB214E07220A21304634
:10C8500000F0BAF907220921304600F0B5F90024AA
:10C860008DF8164001208DF8170002258DF8145020
:10C87000410204918DF8155004A9304600F066F984
:10C880008DF814506802049004A9304600F05EF957
:10C890004FF4E1300090ADF80440ADF80640ADF83B
:10C8A0000840ADF80C400C20ADF80A00094C694670
:10C8B000204600F037FD012240F22551204600F0CD
:10C8C00016FD0121204600F0DFFC06B070BD00001F
:10C8D000000002400010014008B525208DF800003E
:10C8E00001208DF8010002218DF802108DF803005F
:10C8F000684600F09BFA08BD10B5064C2021204682
:10C9000000F0CEFC0028F9D02046BDE8104000F031
:10C9100067BD000000100140014908607047000039
:10C920000C3C024070B506460025002905D00129BF
:10C9300027D0022928D04FF4407500F07FF809284D
:10C940001ED1134C206820F44070206020682843DA
:10C950002060206820F0F8002060206846F0020186
:10C9600008432060206840F48030206000F066F8C2
:10C97000216821F002012160216821F0F801216085
:10C9800070BD4FF48075D8E74FF40075D5E700000F
:10C99000103C024009200D490A68D20301D501204C
:10C9A00070470A68D20601D5062070470A68D2058A
:10C9B00001D5022070470A6812F0E00F01D007206D
:10C9C000704709688907FBD5082070470C3C024076
:10C9D0000248016841F0004101607047103C02408C
:10C9E00070B506460D4600F029F8092811D1094C0A
:10C9F000206820F44070206020682060206840F0AB
:10CA000001002060357000F019F8216821F0010163
:10CA1000216070BD103C024005480068002805DA1E
:10CA2000034804490C380160034901607047000065
:10CA3000103C024023016745AB89EFCD08B50920C2
:10CA40000090FFF7A7FF009002E0FFF7A3FF009020
:10CA50009DF800000128F8D09DF8000008BD0000F6
:10CA60001CB50B480321CDE900100023802209A149
:10CA70000B4801F0E9FD012808D102B040F25B1239
:10CA8000BDE81040074908A000F0B4BC1CBD000080
:10CA9000900000204941505F5461736B000000001A
:10CAA000D7CD000800E90008496E666F3A203C25A2
:10CAB000732C2025643E3A204941505F5461736BCA
:10CAC00020437265617420737563636573732021FD
:10CAD000200D0A0000F07AB91CB50A490220CDE900
:10CAE00000010023802208A10A4801F0ADFD0128C1
:10CAF00007D102B02622BDE81040074907A000F088
:10CB000079BC1CBD880000204C4544315F546173E2
:10CB10006B000000F1CD0008EEE80008496E666F7A
:10CB20003A203C25732C2025643E3A204C45443164
:10CB30005F5461736B204372656174207375636326
:10CB40006573732021200D0A000000002DE9F041DB
:10CB5000002201274FF0030C07FA02F50B682B4067
:10CB6000AB422CD1066853000CFA03F4A6430660CE
:10CB70000E79D0F800809E4046EA080606600E79DD
:10CB8000012E01D0022E12D18668A64386604E790E
:10CB9000D0F808809E4046EA080686604668AE43A4
:10CBA000466045688E799640B6B235434560C568A3
:10CBB000A543C560CC799C40C3681C43C460521C2B
:10CBC000102AC9D3BDE8F08110B54B07DB0E9A409F
:10CBD000C90800EB8100016A0F249C40A143016257
:10CBE000016A1143016210BD4183704701837047A0
:10CBF00010B5FFF71FFEBDE81040FFF76DBEFFF751
:10CC00007BBE000070B505460C46002C0ED00B4ACA
:10CC10002919914204D9342209490AA000F0EAFBFB
:10CC200021462846FFF706FD002070BD2F2204494B
:10CC30000EA000F0DFFB4FF0FF3070BD00000408D5
:10CC4000B7E80008496E666F3A203C25732C202512
:10CC5000643E3A2073697A6520697320746F206C92
:10CC600061726765202E2E2E200D0A00496E666FB8
:10CC70003A203C25732C2025643E3A2045727220D0
:10CC800073697A65203C2031202E2E2E200D0A005B
:10CC900010B5002A0BD00C4C8318A3420FD90C22DC
:10CCA0000A490BA000F0A6FB6FF0010010BD07229F
:10CCB000064911A000F09EFB4FF0FF3010BDFFF7BA
:10CCC000E9FC002010BD00000000040890E8000806
:10CCD000496E666F3A203C25732C2025643E3A202D
:10CCE00073697A6520697320746F206C617267655F
:10CCF000202E2E2E200D0A00496E666F3A203C250C
:10CD0000732C2025643E3A204572722073697A653F
:10CD1000203C2031202E2E2E200D0A0070B5054615
:10CD20000E461446002C0FD00B4B2A199A4204D9F8
:10CD30001F220A490AA000F05DFB22463146284620
:10CD4000BDE87040FFF7B2BC1A2204490EA000F003
:10CD500051FB4FF0FF3070BD00000408A3E800084D
:10CD6000496E666F3A203C25732C2025643E3A209C
:10CD700073697A6520697320746F206C61726765CE
:10CD8000202E2E2E200D0A00496E666F3A203C257B
:10CD9000732C2025643E3A204572722073697A65AF
:10CDA000203C2031202E2E2E200D0A004FF4007141
:10CDB0000148FFF71BBF0000001402404FF4007150
:10CDC0000148FFF711BF000000140240FFF7FEBC4E
:10CDD000FFF71CBDFEE788B001A800F0C1F900F024
:10CDE00081FD01A800F058F9012001F053FAF6E79F
:10CDF0004FF47A7406A000F0FDFAFFF7DFFF20463B
:10CE000001F048FAFFF7D2FF204601F043FAF1E7BC
:10CE10004672656552544F53204170703020323253
:10CE2000202E2E2E200D0A00FEE7704730B50F236E
:10CE3000C27801250178002A1FD0154A126802F431
:10CE4000E062C2F5E062C2F30722C2F10404D340FB
:10CE50004278A24084781C401443220101F1E02171
:10CE600081F80024007800F01F018D404009800007
:10CE700000F1E020C0F8005130BD01F01F008540F6
:10CE80004809800000F1E020C0F8805130BD00006A
:10CE90000CED00E0024908430249086070470000B9
:10CEA0000000FA050CED00E0054A002903D01168E6
:10CEB00001431160704711688143116070470000A1
:10CEC00030380240054A002903D01168014311603F
:10CED0007047116881431160704700004438024078
:10CEE00070B5244B196801F00C01234C00291ED0A9
:10CEF000661004291DD008291DD00460196801F0AE
:10CF0000F00109091D4A545C0168E14041601C6858
:10CF100004F4E054A40A145D21FA04F484601B684C
:10CF200003F460435B0BD25CD140C16070BD046010
:10CF3000E4E70660E2E70F4A121F1168C1F380556B
:10CF4000116801F03F0135B1B6FBF1F11468C4F38B
:10CF50008814614305E0B4FBF1F11468C4F388144C
:10CF600061431268C2F30142521C5200B1FBF2F15C
:10CF70000160C3E7083802400024F40014000020D8
:10CF80000CB50022019200922749086840F48030D5
:10CF900008604FF4A043086800F400300090019846
:10CFA000401C0190009810B901989842F3D108688C
:10CFB000800302D50120009000E000920098012833
:10CFC00031D119484030026842F08052026017485F
:10CFD000026842F44042026013480830026802606E
:10CFE000026842F400420260026842F4A052026009
:10CFF000021F0F4B13600A6842F080720A600A68D1
:10D000009201FCD50B4A40F205711160016821F0D4
:10D0100003010160016841F0020101600168C1F390
:10D0200081010229FAD10CBD003802400070004095
:10D0300008544007003C024001F0F0BA10B5124815
:10D04000016841F4700101601048016841F001017C
:10D0500001600E4A00210832116002680C4B1A4030
:10D060000260031D0B4A1A60026822F480220260EB
:10D0700006480C300160FFF783FF03494FF0006062
:10D080008039086010BD000088ED00E000380240E3
:10D09000FFFFF6FE1030002410B50446FFF760FADB
:10D0A000012821D1FFF756FA014610A000F0A2F99D
:10D0B0001BA000F09FF94FF0FF30E060012060619D
:10D0C00019212046FFF79AFA207621461C48FFF7DF
:10D0D000A2FA21461B48FFF79EFA1BA000F08AF92E
:10D0E000BDE81040FFF774BE10BD00004170703005
:10D0F0002050726F6772616D6D696E6720436F6D4E
:10D10000706C6574656420537563636573736675CD
:10D110006C6C792120256464427479650D0A0000E5
:10D120004170703020557064617465207379737438
:10D13000656D20706172616D65746572730D0A00B2
:10D140000040000800800008417070206465766926
:10D15000636520696170207265626F6F740D0A00EB
:10D1600070B504460025184E192221463046FFF7B7
:10D170008FFDA068102806D00125102113A000F013
:10D1800039F91020A060206938B101251AA000F0FB
:10D1900031F9002020610F20E060012D13D1192109
:10D1A0002046FFF72BFA207621463046FFF733FA68
:10D1B00021461D48FFF72FFA1CA000F01BF9BDE81F
:10D1C0007040FFF705BE70BD004000084170702040
:10D1D000557064617465204150503020536F6674FF
:10D1E000776172652056657273696F6E203A2030E0
:10D1F00078253038580D0A004170702055706461F0
:10D2000074652041505030205374617475732C2024
:10D210004150504C49434154494F4E5F4E4F524D3F
:10D22000414C0D0A00000000008000084170702091
:10D2300064657669636520506172616D52656164F1
:10D24000436865636B207265626F6F740D0A00003E
:10D2500070B5084D40F225542146284600F027F8C5
:10D2600008B1FFF7A5F821462846BDE8704000F058
:10D2700003B800000010014040F66A120A0A0121BA
:10D280009140C94301807047002904D0818941F44D
:10D29000005181817047818921F40051818170475B
:10D2A0000246002012880A4200D00120704770B563
:10D2B000002440F66A12C1F3421301F01F05012653
:10D2C00006FA05F2012B0CD0022B0DD0838A1340F5
:10D2D000090A8E40008830400BB100B1012420467D
:10D2E00070BD83891340F3E7038A1340F0E710B55C
:10D2F00040F66A13C1F3421301F01F040121A1405B
:10D30000012B07D0022B07D014303AB102680A4330
:10D31000026010BD0C30F8E71030F6E702688A436F
:10D32000026010BD7FB504460D46208A20F44051AE
:10D33000E88808432082A08941F20C618843A988CB
:10D340002A8911436A8902431143A181A08A20F4EA
:10D350004071A8890843A0826846FFF7C1FD1E48B6
:10D36000844202D01D48844201D1039800E0029813
:10D37000A189090408D500EBC00101EB0010296860
:10D380004900B0FBF1F007E000EBC00101EB001039
:10D3900029688900B0FBF1F06422B0FBF2F10901C9
:10D3A0000B096FF018056B4300EB8300A3891D0484
:10D3B0004FF0320307D503EBC000B0FBF2F000F0F2
:10D3C0000700084306E003EB0010B0FBF2F000F0AA
:10D3D0000F00084320817FBD001001400014014070
:10D3E0008088C0F308007047C1F30801818070474E
:10D3F000FEE700000FB4054B10B503A9044A0298DC
:10D4000000F018F810BC5DF814FB0000B1D800085B
:10D41000A000002002E008C8121F08C1002AFAD1AB
:10D4200070477047002001E001C1121F002AFBD1A4
:10D43000704700002DE9FF4F8DB00F4605460026CE
:10D4400006E025280BD0DDE90F1290476D1C761CF5
:10D4500028780028F5D111B03046BDE8F08F0024BF
:10D46000A246A1460122E94900E0044315F8013F24
:10D47000203B02FA03F00842F7D128782A2810D07E
:10D480006FF02F022878A0F13001092914D80AEB97
:10D490008A0102EB410144F0020400EB010A6D1C19
:10D4A000F0E701CF5FEA000A03D544F40054CAF163
:10D4B000000A44F002046D1C28782E2817D115F8B4
:10D4C000010F44F004042A280ED06FF02F022878B0
:10D4D000A0F1300109290AD809EB890102EB4101C9
:10D4E00000EB01096D1CF2E757F8049B6D1C2878CE
:10D4F0006C280FD006DC4C2817D068280DD06A287D
:10D5000014D104E0742810D07A280FD10DE044F42F
:10D5100000140AE044F4801401E044F440146978F3
:10D52000814202D104F580146D1C6D1C28786E2890
:10D530001ED00CDC632830D004DC00288BD05828A7
:10D5400011D19FE0642867D069280CD164E073286A
:10D550002DD004DC6F2872D0702804D194E0752897
:10D560006ED078286DD0DDE90F129047761C4BE124
:10D57000C4F30250022806D0032809D0042801CFA2
:10D5800009D0066040E101CFF117C0E900613BE13D
:10D5900001CF068038E1067036E117F8040B8DF8EC
:10D5A000000000208DF80100EB46012003E057F851
:10D5B00004BB4FF0FF3061074FF0000102D40DE0D3
:10D5C00008F10101884649450FDA8045F8DB1BF870
:10D5D00008100029F4D108E008F1010188468142D1
:10D5E000FADB1BF808100029F6D1DDE90F23AAEBBE
:10D5F00008008146214600F031F9304400EB08066E
:10D6000004E0DDE90F121BF8010B9047B8F10108A7
:10D61000F7D221464846F2E00A21C4F302524FF005
:10D62000000B0891022A04D001CFC117032A09D0A8
:10D630000AE0FF1D27F00707F7E8020108E02CE0E9
:10D640001EE01FE000B2C117042A01D140B2C11789
:10D65000021E71F1000206DA0023D0EB030063EB37
:10D6600001012D2202E0220504D52B228DF8242071
:10D67000012203E0E20701D02022F7E7904653E0C1
:10D680000A210BE0102109E010214FF0000B44F0BB
:10D6900004044FF00809089103E008214FF0000B43
:10D6A0000891C4F30252022A04D001CF0021032AB8
:10D6B00006D006E0FF1D27F00707F7E8020103E0A8
:10D6C00080B2042A00D1C0B24FF0000822072BD547
:10D6D0002A78702A07D0DDF820C08CF0100C5CEAA4
:10D6E0000B0C05D00EE040228DF82420012208E02A
:10D6F00050EA010306D030238DF824308DF8252020
:10D7000002229046089B83F0080353EA0B030BD1D7
:10D7100050EA010201D1620706D530228DF824209B
:10D720004FF00108A9F101092A78582A04D038A23B
:10D730000B9208AA0A920BE03AA2F9E75B46089A14
:10D74000FEF7C0FD0B9B9B5C0A9A521E0A92137057
:10D7500050EA0102F2D10A98ADEB000000F1200B73
:10D76000600702D524F4803401E04FF00109D94567
:10D7700002DDA9EB0B0000E0002000EB0B014144AF
:10D780000890AAEB010AE00306D4DDE90F23214645
:10D79000504600F063F806444FF0000908E009A97C
:10D7A00011F80900DDE90F12904709F10109761C13
:10D7B000C145F4DBE0030CD5DDE90F2321465046DB
:10D7C00000F04CF8064404E0DDE90F1230209047E9
:10D7D000761C0899481E08900029F5DC08E00A9894
:10D7E0000A990078491C0A91DDE90F129047761CCE
:10D7F000BBF10001ABF1010BF1DC21465046DDE944
:10D800000F2300F019F806446D1C21E609280100D9
:10D8100030313233343536373839616263646566A6
:10D820000000000030313233343536373839414268
:10D8300043444546000000002DE9F0410446002520
:10D840001E461746880404D405E039462020B04718
:10D850006D1C641EF9D52846BDE8F0812DE9F04124
:10D86000044600251E469046C80301D5302700E037
:10D870002027880404D505E041463846B0476D1C92
:10D88000641EF9D52846BDE8F08110B50346002096
:10D89000002B01D0002901DC002010BD0222491E0E
:10D8A00003E09C5C2044C0B2521C8A42F9DB10BDEC
:10D8B00070B50446064DE1B22846FFF795FD80217C
:10D8C0002846FFF7EDFC0028F9D0204670BD000087
:10D8D00000100140FEF780FDFEF7A4FDFEF7AAFD53
:10D8E000FEE7000010B500F027F8124C94F8020192
:10D8F000E8B194F80101012819D194F800112046EB
:10D90000FFF7C3FF94F80011621E40F203148A5C13
:10D91000824205D021460748FEF7C9FC012010BD10
:10D920000448FEF7FDFD21460248FEF7C0FC00203A
:10D9300010BD00009494002070B5284D95F80201A8
:10D94000002848D105F5827000F0E0FA002842DD99
:10D950000122234905F5827000F002FB204C0126CC
:10D96000A5F580716078EF2802D12078AA2809D027
:10D97000626820788854521C626095F80131012B4E
:10D980000AD027E0EF200870AA20487002206060CB
:10D9900085F80161012070BD052A04D10B79C97891
:10D9A00043EA012161806188891D914212D10D49AC
:10D9B0000A48FEF763FC4FF480710A48FEF777FCD3
:10D9C000207985F8000185F80261002020706070E0
:10D9D000606070BD6070002070BD000094940020F5
:10D9E000980000209493002010B540F203110548E0
:10D9F000FEF75DFCBDE810404FF48071024800F076
:10DA0000A7BA000094940020989500202DE9F041D9
:10DA100004460F46174EF5683068001D00F027FBDE
:10DA200038B9306890F82C10012088403169814362
:10DA30003161601C07D137B13168BDE8F041091D83
:10DA40000D4800F04CBB2C4430684460AC4206D218
:10DA50003168B06B091DBDE8F04100F028BB3168AA
:10DA6000706B091D00F023FBB06A844200D2B462DF
:10DA7000BDE8F081240000207403002070B5044646
:10DA800000F03AFB1D4DA868401CA860286810B142
:10DA9000686938B10CE02C60A868012808D100F052
:10DAA00003F905E02868E16AC06A884200D82C6062
:10DAB000686A401C68626064E06A01212A698140EA
:10DAC000114329610E4900EB800001EB8000211D0C
:10DAD00000F005FB00F04CFB686900280CD02868BA
:10DAE000E16AC06A884207D206494FF08050086058
:10DAF000BFF34F8FBFF36F8F70BD00002400002075
:10DB0000A400002004ED00E070B5124E124D1CE0A0
:10DB100000F0B0FC306820B1002400F03FFEA4B952
:10DB200001E00124F9E700F0E7FAF068C468201D7D
:10DB300000F09DFAA868401EA8606868401E6860F2
:10DB400000F016FB204600F009F868680028DFD1D5
:10DB500070BD0000600300202400002010B50446C2
:10DB6000206B00F039FB2046BDE8104000F034BBCC
:10DB70004FF410410F48420706D0C01D20F00700A7
:10DB80000C49411AC1F510410B4A10600023536043
:10DB90000144083921F00701103A11604B600B6015
:10DBA0000B1A436001604068906050604FF0004085
:10DBB000D06070478803002070000020074E4FF0AF
:10DBC0008054074DFFF7A0FF30680128FAD92C6078
:10DBD000BFF34F8FBFF36F8FF4E70000A400002066
:10DBE00004ED00E02DE9F047DDE908580A9C814684
:10DBF0000E4617469A46B900A522206BFEF750FB49
:10DC0000206B7F1E00EB870020F00707780705D008
:10DC100040F22B3219A120A0FFF7ECFB00202218C4
:10DC2000315C82F83410315C11B1401C1028F6D3FD
:10DC3000002684F84360202D00D31F25E562E564AB
:10DC40002665201D00F030FA04F1180000F02CFACF
:10DC50002461C5F12000A0616462666584F85860A3
:10DC600052464946384600F03FF92060B8F1000FAF
:10DC700001D0C8F80040BDE8F08700002E2E5C2ED1
:10DC80002E5C4672656552544F535C7372635C74CC
:10DC900061736B732E6300004572726F723A257365
:10DCA0002C25640D0A00000070B50024114D04EB12
:10DCB000840005EB800000F0ECF9641C202CF6D306
:10DCC0000D4800F0E6F90C48143000F0E2F90A487B
:10DCD000283000F0DEF908483C3000F0DAF9064858
:10DCE000503000F0D6F9054803494163143181638F
:10DCF00070BD0000A40000202403002024000020A8
:10DD000030B5134900E011460A688242FBD34B68E4
:10DD10005C18844203D140681844486008460D6886
:10DD200044682318AB420DD1094B103B1B689A4243
:10DD300006D05268224442600A681268026002E01B
:10DD4000036000E00260814200D0086030BD000046
:10DD5000700000200748416B0968002905D0416B1D
:10DD6000C968C9684968816270474FF0FF318162B4
:10DD7000704700002400002008484068401C05D07F
:10DD800040F20F1206A111A0FFF734FB502080F3E0
:10DD90001188BFF34F8FBFF36F8FFEE7780000202D
:10DDA0002E2E5C2E2E5C4672656552544F535C706D
:10DDB0006F72745C525644535C41524D5F434D3414
:10DDC000465C706F72742E63000000004572726FC3
:10DDD000723A25732C25640D0A0000002DE9F041EC
:10DDE0000546002600F046FB304F386808B9FFF7BB
:10DDF000BFFEF86805424BD175B1083568070BD0F6
:10DE000005F00700C0F108000544680704D0BF22F0
:10DE100027A131A0FFF7EEFA002D39D078688542AE
:10DE200036D8224910310846046801E021460446EC
:10DE30006068A84202D220680028F7D1386884427E
:10DE400026D00E680836206808606068401B1028DD
:10DE500011D904EB05085FEA487004D0EC2214A144
:10DE60001DA0FFF7C7FA6068401BC8F80400656092
:10DE70004046FFF745FF61687868401A7860BA68E5
:10DE8000904200D2B860F8680143616000202060D1
:10DE900000F084FC700705D04FF4967204A10EA028
:10DEA000FFF7A8FA3046BDE8F081000060000020CE
:10DEB0002E2E5C2E2E5C4672656552544F535C705C
:10DEC0006F72745C4D656D4D616E675C6865617005
:10DED0005F342E63000000004572726F723A257342
:10DEE0002C25640D0A00000024384FF08073036273
:10DEF00021F00101C1610449816142606FF00201BA
:10DF000040F820197047000079DD000800B501468F
:10DF1000D1E90120824202D14FF0000000BD02D2BF
:10DF2000A0EB020000BD084600F010F8D1E9012185
:10DF3000511A401A00BD00B50146084600F006F827
:10DF400003460846FFF7E2FF181A00BD0068704755
:10DF5000002804D0016000F10C014160816070472D
:10DF60002DE9F04104460F461546D4E901018842E7
:10DF700010D22046FFF7CAFF854200DB05462A463D
:10DF800038466168FEF77AF9606828446060284680
:10DF9000BDE8F0812046FFF7D9FF61680A1B801AAF
:10DFA0000C30A84208DD2A463846FEF767F960685B
:10DFB000284460602846EBE72046FFF7C7FF61680A
:10DFC0000A1B861A0C3632463846FEF757F904F11A
:10DFD0000C006060AA1BB9192046FFF7C1FF30444E
:10DFE000D6E72DE9F0410446884615462046FFF75E
:10DFF000A2FFA84203DC4FF0FF30BDE8F081D4E976
:10E00000011081422AD82046FFF7A0FF0146A068F0
:10E01000021B8E1A0C3604F10C07B54211DC2A469D
:10E020004146FEF72BF9A0682844A0602046FFF780
:10E030008DFF2044A1680C30884200D1A76028469B
:10E04000DBE732464146FEF719F9A760AA1B08EB49
:10E0500006012046FFF7C5FF3044CEE72A46414679
:10E06000FEF70CF9A0682844A0602846C5E70169BE
:10E07000D0E901329A60D0E901235A604A688242AD
:10E0800001D182684A60002202610868401E08606F
:10E09000704700F1080141604FF0FF328260C160BB
:10E0A000016100210160704700210161704730B5B6
:10E0B0000C68621C02D000F1080202E0026904E070
:10E0C0001A4653681D68A542FAD953684B60996097
:10E0D0008A60516008610168491C016030BD426876
:10E0E0004A6093688B609368596091600861016829
:10E0F000491C016070470000502080F31188BFF375
:10E100004F8FBFF36F8F09494868401C4860012852
:10E110000AD10748006810F0FF0F05D040F2B9128D
:10E1200004A10FA0FFF766B9704700007800002037
:10E1300004ED00E02E2E5C2E2E5C46726565525476
:10E140004F535C706F72745C525644535C41524D35
:10E150005F434D34465C706F72742E6300000000A4
:10E160004572726F723A25732C25640D0A00000007
:10E1700010B5094C6068002805D14FF4E07207A182
:10E1800011A0FFF737F96068401E6060002801D1D8
:10E1900080F3118810BD0000780000202E2E5C2E28
:10E1A0002E5C4672656552544F535C706F72745C9E
:10E1B000525644535C41524D5F434D34465C706F40
:10E1C00072742E63000000004572726F723A2573FC
:10E1D0002C25640D0A00000070B500282AD00838EC
:10E1E0000446154D6068E968084205D14FF4A072F5
:10E1F00012A11CA0FFF7FEF8206828B140F24112DE
:10E200000EA118A0FFF7F6F86068E968084211D07F
:10E210002268002A0ED18843606000F02BF9606804
:10E220006968084468602046FFF76AFDBDE87040F1
:10E2300000F0B4BA70BD0000600000202E2E5C2EED
:10E240002E5C4672656552544F535C706F72745CFD
:10E250004D656D4D616E675C686561705F342E63FE
:10E26000000000004572726F723A25732C25640D10
:10E270000A00000006484FF47A710068B0FBF1F123
:10E280004FF0E020491E4161072101617047000005
:10E290000000002010B504460020002C10D00E48CD
:10E2A000006B28B140F2CF420CA113A0FFF7A2F8F7
:10E2B00000F0E0F800212046FFF7A8FB00F06EFA1E
:10E2C000002807D110494FF080500860BFF34F8FEE
:10E2D000BFF36F8F10BD0000240000202E2E5C2E97
:10E2E0002E5C4672656552544F535C7372635C7466
:10E2F00061736B732E6300004572726F723A2573FF
:10E300002C25640D0A00000004ED00E070B5044601
:10E31000FFF7F2FE234D04B92C68201DFFF7A7FE7E
:10E3200058B9E06A204A00EB800152F8211021B967
:10E3300001218140286988432861A06A18B104F14D
:10E340001800FFF794FE686A401C686228688442DF
:10E3500007D1211D1548FFF7C2FE6868401C6860A0
:10E3600007E0A868401EA8602046FFF7F7FBFFF70C
:10E37000F1FCFFF7FDFE6869002812D0286884428E
:10E380000FD1286B28B140F2654209A10FA0FFF719
:10E3900031F812494FF080500860BFF34F8FBFF340
:10E3A0006F8F70BD24000020A400002060030020B7
:10E3B0002E2E5C2E2E5C4672656552544F535C7354
:10E3C00072635C7461736B732E6300004572726FCD
:10E3D000723A25732C25640D0A00000004ED00E05C
:10E3E0001CB515480024CDE900402346802213A126
:10E3F000144800F029F901280AD0401C1BD102B0B2
:10E4000040F28472BDE810400FA116A0FEF7F2BFE3
:10E41000502080F31188BFF34F8FBFF36F8F0648F2
:10E420004FF0FF312C38816201214161C460BDE8A9
:10E430001C4000F06BB81CBD5000002049444C4506
:10E4400000000000BDDB00082E2E5C2E2E5C467204
:10E45000656552544F535C7372635C7461736B7384
:10E460002E6300004572726F723A25732C25640D7D
:10E470000A0000000248016B491C0163704700005C
:10E480002400002070B5144D286B002802D0012014
:10E49000E86170BD0020E8612869B0FA80F0C0F141
:10E4A0001F000E4E00EB800456F8240028B940F6F9
:10E4B000F6220BA111A0FEF79DFF06EB8400416838
:10E4C0004968416000F10802914201D14968416008
:10E4D0004068C068286070BD24000020A4000020AF
:10E4E0002E2E5C2E2E5C4672656552544F535C7323
:10E4F00072635C7461736B732E6300004572726F9C
:10E50000723A25732C25640D0A0000001CB52F4CAF
:10E5100020682F49884205D140F259122DA138A018
:10E52000FEF768FF20682A49491E884205D14FF44A
:10E53000AD7228A132A0FEF75DFF354C2078019026
:10E54000FF202070207800909DF800009DF80010BA
:10E5500000F0F000884205D040F273121DA128A0FF
:10E56000FEF748FF9DF800002A4A00F050001070A6
:10E570000720906006E09068401E90609DF80000C3
:10E58000400000909DF800000006F4D4107A0002CC
:10E5900000F4E0609060019820700C482030016821
:10E5A00041F470010160016841F070410160FFF7C2
:10E5B00061FE00205060FDF713FE1748016841F02E
:10E5C00040410160FDF7FCFD00201CBD00ED00E0B6
:10E5D00071C20F412E2E5C2E2E5C46726565525420
:10E5E0004F535C706F72745C525644535C41524D91
:10E5F0005F434D34465C706F72742E630000000000
:10E600004572726F723A25732C25640D0A00000062
:10E6100000E400E07800002034EF00E010B5502066
:10E6200080F31188BFF34F8FBFF36F8F00F03CF87A
:10E6300018B104494FF080500860002080F3118821
:10E6400010BD000004ED00E02DE9FF5F8146DDE92B
:10E650000E788A4616469B46B000FFF7BFFB05467C
:10E6600028000AD05C20FFF7B9FB04460CB12563F3
:10E6700004E02846FFF7B0FD00E000248CB1002044
:10E68000CDE90240CDE900785B4632465146484626
:10E69000FFF7A8FA2046FFF7F1F9012004B0BDE822
:10E6A000F09F4FF0FF30F9E72DE9F04100262E4FA3
:10E6B000386B002808D0B869401CB861F86900B10F
:10E6C00001263046BDE8F081FD686D1CFD608DB906
:10E6D000786B006828B140F6D91224A12AA0FEF771
:10E6E00089FE786BB96B7963B863386A401C38620D
:10E6F000FFF730FBB86ADFF8A08085420DD3786B56
:10E70000006838B1786BC068C468606885420ED212
:10E71000B86202E04FF0FF30B8623868C06A00EBC0
:10E72000800058F820000128C8D90126C6E7201D1E
:10E73000FFF79DFCA06A18B104F11800FFF797FCE1
:10E74000E06A01213A6981401143396100EB8000A0
:10E7500008EB8000211DFFF7C2FCE06A3968C96A36
:10E760008842CCD30126CAE7240000202E2E5C2E3E
:10E770002E5C4672656552544F535C7372635C74D1
:10E7800061736B732E6300004572726F723A25736A
:10E790002C25640D0A000000A40000202DE9F041A2
:10E7A000002400272B4D286B002805D14FF4FD6273
:10E7B00029A130A0FEF71EFEFFF79EFC286B401E2D
:10E7C0002863286BF0BBA868E0B3DFF8B8800126A7
:10E7D0001DE0D8F80C00C46804F11800FFF747FCEE
:10E7E000201DFFF744FCE06A2A6906FA00F1114394
:10E7F0002961254900EB800001EB8000211DFFF716
:10E800006EFCE06A2968C96A884200D3EE61D8F8D4
:10E8100000000028DDD10CB1FFF79CFAAC6944B1CF
:10E82000FFF742FF00B1EE61641E002CF8D100201A
:10E83000A861E86930B10127144938070860BFF3BF
:10E840004F8F00E001E0BFF36F8FFFF791FC384678
:10E85000BDE8F081240000202E2E5C2E2E5C467236
:10E86000656552544F535C7372635C7461736B7370
:10E870002E6300004572726F723A25732C25640D69
:10E880000A0000004C030020A400002004ED00E07A
:10E8900048616C5F466C6173685F526561645F4C90
:10E8A000656E0048616C5F466C6173685F577269A2
:10E8B00074655F4C656E0048616C5F45617273659D
:10E8C0005F466C6173685F53697A65004170705F81
:10E8D00048575F496E6974004170705F46726565A4
:10E8E00052544F535F4253505F496E6974004672F1
:10E8F000656552544F535F4C65645F5461736B00A0
:10E900004672656552544F535F4941505F5461737D
:10E910006B00000044656275673A203C25732C202B
:10E9200025643E3A20737973636C6B203A2025642A
:10E930002C2068636C6B203A2025642C2070636C5B
:10E940006B31203A2025642C2070636C6B32203AA6
:10E95000202564200D0A000078E90008000000204E
:10E96000A400000014D400081CEA0008A400002041
:10E97000049A000024D40008007A030A0000000072
:10E98000000000000102030406070809000000005F
:10E990000102030401020304060708090000000045
:10E9A0000000000000000000000000000000000067
:10E9B0000000000000000000000000000000000057
:10E9C0000000000000000000000000000000000047
:10E9D0000000000000000000000000000000000037
:10E9E0000000000000000000000000000000000027
:10E9F00000000000AAAAAAAA00000000000000006F
:10EA00000000000000000000000000000000000006
:0CEA1000000000000000000000000000FA
:040000050800C189A5
:00000001FF
