:020000040800F2
:1000000078970020590200086906000831060008A8
:1000100067060008CD0300085D0900080000000025
:10002000000000000000000000000000A101000826
:10003000CF03000800000000F501000811080008C7
:1000400073020008730200087302000873020008BC
:1000500073020008730200087302000873020008AC
:10006000730200087302000873020008730200089C
:10007000730200087302000873020008730200088C
:10008000730200087302000873020008730200087C
:10009000730200087302000873020008730200086C
:1000A000730200087302000873020008730200085C
:1000B000730200087302000873020008730200084C
:1000C000730200087302000873020008730200083C
:1000D000730200087302000873020008730200082C
:1000E000730200087302000873020008730200081C
:1000F000730200087302000873020008730200080C
:1001000073020008730200087302000873020008FB
:1001100073020008730200087302000873020008EB
:1001200073020008730200087302000873020008DB
:1001300073020008730200087302000873020008CB
:1001400073020008730200087302000873020008BB
:1001500073020008730200087302000873020008AB
:10016000730200087302000873020008730200089B
:10017000730200087302000873020008730200088B
:100180007302000873020008DFF810D000F09EF838
:10019000004800477D0B0008AFF3008078970020EF
:1001A0002A4B19680868B0E8F04F80F30988BFF35C
:1001B0006F8F4FF0000080F311887047000000003F
:1001C00006480068006880F3088862B661B6BFF32D
:1001D0004F8FBFF36F8F00DF00BF00BF08ED00E05F
:1001E000DFF80C00016841F470010160704700BF46
:1001F00088ED00E0EFF30980BFF36F8F134B1A68AF
:100200001EF0100F08BF20ED108A20E9F04F10609B
:1002100008B44FF0500080F31188BFF34F8FBFF345
:100220006F8F01F03BF94FF0000080F3118808BC9C
:1002300019680868B0E8F04F1EF0100F08BFB0EC66
:10024000108A80F30988BFF36F8F70472400002065
:10025000EFF30580704700000648804706480047D6
:10026000FEE7FEE7FEE7FEE7FEE7FEE7FEE7FEE766
:10027000FEE7FEE71508000889010008D2B201E098
:1002800000F8012B491EFBD270470022F6E710B59B
:1002900013460A4604461946FFF7F0FF204610BDF4
:1002A00030B50B46014600202022012409E021FA46
:1002B00002F59D4205D303FA02F5491B04FA02F543
:1002C0002844151EA2F10102F1DC30BD064C074D99
:1002D00006E0E06840F0010394E807009847103416
:1002E000AC42F6D3FFF754FF20190008401900086C
:1002F00010B500F00DFF00F0B9F80448006801F0F7
:1003000011F8BDE8104000F03FBF0000840000205D
:1003100000B587B04FF4407000F0A8F900F064F920
:1003200003A800F0C9F9DDE904120698CDE900122E
:100330000290332204490548039B00F011FB00F0B2
:1003400093F807B000BD0000B4180008DC180008DE
:100350001CB508480121CDE900104A02002306A17E
:10036000094801F07DF9012803D1BDE81C4001F0E6
:1003700043B81CBD840000204170705461736B430E
:100380007265617465000000F10200087CB501210E
:10039000202000F075F94FF4C064009401208DF81E
:1003A000040000228DF806208DF8070003208DF848
:1003B0000500054D6946284600F0C4F82146284648
:1003C00000F010F97CBD000000140240FEE7704709
:1003D00070B586B00121084600F052F901211020C5
:1003E00000F05CF91E4E07220A21304600F0E8F8C2
:1003F00007220921304600F0E3F800248DF816406A
:1004000001208DF8170002258DF814504102049147
:100410008DF8155004A9304600F094F88DF814506A
:100420006802049004A9304600F08CF84FF4E130E3
:100430000090ADF80440ADF80640ADF80840ADF8C6
:100440000C400C20ADF80A00064C6946204600F02E
:1004500023FA0121204600F00BFA06B070BD00001F
:10046000000002400010014000F0E0B81CB5134944
:100470000220CDE900010023802211A1134801F0E0
:10048000EFF8012804D12422114912A000F068FAE3
:100490000A480321001DCDE900100023802219A184
:1004A0001B4801F0DDF8012807D102B02E22BDE87B
:1004B0001040074917A000F053BA1CBD8800002067
:1004C0004C4544315F5461736B00000033060008F3
:1004D000CA180008496E666F3A203C25732C202507
:1004E000643E3A204C4544315F5461736B20437243
:1004F00065617420737563636573732021200D0A31
:10050000000000004C4544325F5461736B000000F2
:100510004D060008496E666F3A203C25732C202555
:10052000643E3A204C4544325F5461736B20437201
:1005300065617420737563636573732021200D0AF0
:10054000000000002DE9F041002201274FF0030CCC
:1005500007FA02F50B682B40AB422CD1066853001A
:100560000CFA03F4A64306600E79D0F800809E4092
:1005700046EA080606600E79012E01D0022E12D13D
:100580008668A64386604E79D0F808809E4046EA89
:10059000080686604668AE43466045688E79964098
:1005A000B6B235434560C568A543C560CC799C406B
:1005B000C3681C43C460521C102AC9D3BDE8F08133
:1005C00010B54B07DB0E9A40C90800EB8100016AA9
:1005D0000F249C40A1430162016A1143016210BDD6
:1005E0004183704701837047FFF7F2BE4FF40071FB
:1005F0000148FFF7F7BF0000001402404FF40071FC
:100600000148FFF7EDBF0000001402404FF4806185
:100610000148FFF7E7BF0000001402404FF480617B
:100620000148FFF7DDBF000000140240FFF7AEBE37
:10063000FEE74FF4FA74FFF7E1FF204600F036FEC4
:10064000FFF7D4FF204600F031FEF4E74FF4FA74D0
:10065000FFF7E4FF204600F029FEFFF7D7FF204612
:1006600000F024FEF4E7FEE770470000024908436B
:1006700002490860704700000000FA050CED00E038
:10068000054A002903D011680143116070471168C1
:10069000814311607047000030380240054A00294C
:1006A00003D01168014311607047116881431160E4
:1006B000704700004438024070B5244B196801F0BF
:1006C0000C01234C00291ED0661004291DD00829D6
:1006D0001DD00460196801F0F00109091D4A545C3D
:1006E0000168E14041601C6804F4E054A40A145D10
:1006F00021FA04F484601B6803F460435B0BD25C52
:10070000D140C16070BD0460E4E70660E2E70F4AD3
:10071000121F1168C1F38055116801F03F0135B116
:10072000B6FBF1F11468C4F38814614305E0B4FB2F
:10073000F1F11468C4F3881461431268C2F30142F2
:10074000521C5200B1FBF2F10160C3E708380240CD
:100750000024F400140000200CB500220192009245
:100760002749086840F4803008604FF4A0430868C7
:1007700000F4003000900198401C0190009810B9DE
:1007800001989842F3D10868800302D501200090B7
:1007900000E000920098012831D1194840300268E9
:1007A00042F0805202601748026842F44042026000
:1007B0001348083002680260026842F40042026096
:1007C000026842F4A0520260021F0F4B13600A68D5
:1007D00042F080720A600A689201FCD50B4A40F22E
:1007E00005711160016821F003010160016841F0A9
:1007F000020101600168C1F381010229FAD10CBD37
:10080000003802400070004008544007003C02409D
:1008100000F010BF10B51248016841F4700101608A
:100820001048016841F0010101600E4A00210832C0
:10083000116002680C4B1A400260031D0B4A1A60DB
:10084000026822F48022026006480C300160FFF743
:1008500083FF03494FF000608039086010BD00003D
:1008600088ED00E000380240FFFFF6FE1030002463
:10087000002904D0818941F4005181817047818928
:1008800021F40051818170470246002012880A42FB
:1008900000D00120704700007FB504460D46208A35
:1008A00020F44051E88808432082A08941F20C617D
:1008B0008843A9882A8911436A8902431143A18187
:1008C000A08A20F44071A8890843A0826846FFF7F7
:1008D000F3FE1E48844202D01D48844201D1039891
:1008E00000E00298A189090408D500EBC00101EBE2
:1008F000001029684900B0FBF1F007E000EBC001EF
:1009000001EB001029688900B0FBF1F06422B0FB14
:10091000F2F109010B096FF018056B4300EB83003E
:10092000A3891D044FF0320307D503EBC000B0FBD1
:10093000F2F000F00700084306E003EB0010B0FB04
:10094000F2F000F00F00084320817FBD001001404D
:1009500000140140C1F3080181807047FEE70000E8
:100960000FB4054B10B503A9044A029800F018F81B
:1009700010BC5DF814FB0000590B0008900000202B
:1009800002E008C8121F08C1002AFAD17047704758
:10099000002001E001C1121F002AFBD170470000B6
:1009A0002DE9FF4F8BB09A460F460546002606E01C
:1009B00025280BD052460D9990476D1C761C28783F
:1009C0000028F5D10FB03046BDE8F08F0024A046D6
:1009D0000122604900E0044315F8013F203B02FA80
:1009E00003F00842F7D128782E2817D115F8010F07
:1009F00044F004042A280ED06FF02F022878A0F1CA
:100A0000300109290AD808EB880102EB410100EB0B
:100A100001086D1CF2E757F8048B6D1C28786928D3
:100A20003ED006DC0028CDD063280BD0642804D14A
:100A300036E0732810D075284BD052460D99904758
:100A4000761C85E017F8040B8DF8000000208DF867
:100A50000100E946012003E057F8049B4FF0FF3006
:100A600061074FF0000401D40AE0641C44450DDA2C
:100A70008442FADB19F804100029F6D106E0641C60
:100A80008442FCDB19F804100029F8D1264404E064
:100A900019F8010B52460D999047641EF8D257E0A1
:100AA00001CF4FF00A0B002802DA40422D2102E06C
:100AB000210504D52B218DF82410012103E0E10745
:100AC00005D02021F7E70DF1200908910CE0002165
:100AD000F9E701CF4FF00A0BF9E75946FFF7E0FBC2
:100AE00001F1300209F8012D0028F6D1ADEB090023
:100AF00000F1200B600701D44FF00108D84502DD5A
:100B0000A8EB0B0000E000208046002406E009A8C6
:100B10005246005D0D999047641C761C08988442EB
:100B2000F5DB04E0302052460D999047761CB8F171
:100B30000001A8F10108F5DC05E019F8010B5246A7
:100B40000D999047761CBBF10001ABF1010BF4DC71
:100B50006D1C34E70928010070B50446064DE1B26A
:100B60002846FFF7F7FE80212846FFF78DFE002874
:100B7000F9D0204670BD000000100140FFF7C8FB0F
:100B8000FFF7E6FBFEE700002DE9F04104460F46C3
:100B9000174EF5683068001D00F076FA38B93068F5
:100BA00090F82C1001208840316981433161601C2C
:100BB00007D137B13168BDE8F041091D0D4800F09B
:100BC0009BBA2C4430684460AC4206D23168B06BAA
:100BD000091DBDE8F04100F077BA3168706B091D5E
:100BE00000F072FAB06A844200D2B462BDE8F081CB
:100BF000240000206403002070B5044600F088FA49
:100C00001D4DA868401CA860286810B1686938B1FB
:100C10000CE02C60A868012808D100F003F905E079
:100C20002868E16AC06A884200D82C60686A401C63
:100C300068626064E06A01212A6981401143296188
:100C40000E4900EB800001EB8000211D00F054FAFA
:100C500000F09AFA686900280CD02868E16AC06A36
:100C6000884207D206494FF080500860BFF34F8F8B
:100C7000BFF36F8F70BD000024000020940000209F
:100C800004ED00E070B5124E124D1CE000F0FEFBCA
:100C9000306820B1002400F08DFDA4B901E00124EA
:100CA000F9E700F035FAF068C468201D00F0ECF9AF
:100CB000A868401EA8606868401E686000F064FA7A
:100CC000204600F009F868680028DFD170BD0000F8
:100CD000500300202400002010B50446206B00F0D3
:100CE00087FA2046BDE8104000F082BA4FF4104168
:100CF0000F48420706D0C01D20F007000C49411ADA
:100D0000C1F510410B4A10600023536001440839BB
:100D100021F00701103A11604B600B600B1A436021
:100D200001604068906050604FF00040D0607047B4
:100D30007803002070000020074E4FF08054074DCC
:100D4000FFF7A0FF30680128FAD92C60BFF34F8F5E
:100D5000BFF36F8FF4E700009400002004ED00E083
:100D60002DE9F047DDE908580A9C81460E461746F2
:100D70009A46B900A522206BFFF780FA206B7F1EF0
:100D800000EB870020F00707780705D040F22B32F0
:100D900019A120A0FFF7E4FD00202218315C82F8A1
:100DA0003410315C11B1401C1028F6D3002684F8B1
:100DB0004360202D00D31F25E562E5642665201DD4
:100DC00000F07FF904F1180000F07BF92461C5F10F
:100DD0002000A0616462666584F858605246494606
:100DE000384600F03FF92060B8F1000F01D0C8F894
:100DF0000040BDE8F08700002E2E5C2E2E5C46726F
:100E0000656552544F535C7372635C7461736B73AA
:100E10002E6300004572726F723A25732C25640DA3
:100E20000A00000070B50024114D04EB840005EBAE
:100E3000800000F03BF9641C202CF6D30D4800F034
:100E400035F90C48143000F031F90A48283000F028
:100E50002DF908483C3000F029F90648503000F0E0
:100E600025F90548034941631431816370BD0000D1
:100E700094000020140300202400002030B5134902
:100E800000E011460A688242FBD34B685C1884423A
:100E900003D140681844486008460D684468231828
:100EA000AB420DD1094B103B1B689A4206D05268E9
:100EB000224442600A681268026002E0036000E0B7
:100EC0000260814200D0086030BD00007000002048
:100ED0000748416B0968002905D0416BC968C9689A
:100EE0004968816270474FF0FF31816270470000AE
:100EF0002400002008484068401C05D040F20F1232
:100F000006A111A0FFF72CFD502080F31188BFF33C
:100F10004F8FBFF36F8FFEE7780000202E2E5C2EE0
:100F20002E5C4672656552544F535C706F72745CF0
:100F3000525644535C41524D5F434D34465C706F92
:100F400072742E63000000004572726F723A25734E
:100F50002C25640D0A0000002DE9F041054600260D
:100F600000F094FA304F386808B9FFF7BFFEF86810
:100F700005424BD175B1083568070BD005F0070065
:100F8000C0F108000544680704D0BF2227A131A0A2
:100F9000FFF7E6FC002D39D07868854236D8224923
:100FA00010310846046801E0214604466068A84202
:100FB00002D220680028F7D13868844226D00E6813
:100FC0000836206808606068401B102811D904EBBF
:100FD00005085FEA487004D0EC2214A11DA0FFF7B9
:100FE000BFFC6068401BC8F8040065604046FFF71E
:100FF00045FF61687868401A7860BA68904200D20C
:10100000B860F868014361600020206000F0D2FB06
:10101000700705D04FF4967204A10EA0FFF7A0FC54
:101020003046BDE8F0810000600000202E2E5C2ECE
:101030002E5C4672656552544F535C706F72745CDF
:101040004D656D4D616E675C686561705F342E63E0
:10105000000000004572726F723A25732C25640DF2
:101060000A00000024384FF08073036221F0010170
:10107000C1610449816142606FF0020140F82019AA
:1010800070470000F50E00080169D0E901329A604E
:10109000D0E901235A604A68824201D182684A60DD
:1010A000002202610868401E0860704700F10801D4
:1010B00041604FF0FF328260C16001610021016038
:1010C000704700210161704730B50C68621C02D086
:1010D00000F1080202E0026904E01A4653681D6844
:1010E000A542FAD953684B6099608A6051600861E3
:1010F0000168491C016030BD42684A6093688B609A
:1011000093685960916008610168491C01607047EB
:10111000502080F31188BFF34F8FBFF36F8F0949C1
:101120004868401C486001280AD10748006810F050
:10113000FF0F05D040F2B91204A10FA0FFF710BCB9
:10114000704700007800002004ED00E02E2E5C2E99
:101150002E5C4672656552544F535C706F72745CBE
:10116000525644535C41524D5F434D34465C706F60
:1011700072742E63000000004572726F723A25731C
:101180002C25640D0A00000010B5094C6068002889
:1011900005D14FF4E07207A111A0FFF7E1FB6068F1
:1011A000401E6060002801D180F3118810BD00004E
:1011B000780000202E2E5C2E2E5C467265655254FF
:1011C0004F535C706F72745C525644535C41524D85
:1011D0005F434D34465C706F72742E6300000000F4
:1011E0004572726F723A25732C25640D0A00000057
:1011F00070B500282AD008380446154D6068E968A3
:10120000084205D14FF4A07212A11CA0FFF7A8FB61
:10121000206828B140F241120EA118A0FFF7A0FBF0
:101220006068E968084211D02268002A0ED188431C
:10123000606000F02BF960686968084468602046C7
:10124000FFF71CFEBDE8704000F0B4BA70BD0000AE
:10125000600000202E2E5C2E2E5C46726565525476
:101260004F535C706F72745C4D656D4D616E675C61
:10127000686561705F342E63000000004572726F14
:10128000723A25732C25640D0A00000006484FF4BD
:101290007A710068B0FBF1F14FF0E020491E416126
:1012A00007210161704700000000002010B50446CE
:1012B0000020002C10D00E48006B28B140F2CF4225
:1012C0000CA113A0FFF74CFB00F0E0F80021204632
:1012D000FFF75AFC00F06EFA002807D110494FF0D2
:1012E00080500860BFF34F8FBFF36F8F10BD0000B9
:1012F000240000202E2E5C2E2E5C46726565525412
:101300004F535C7372635C7461736B732E63000084
:101310004572726F723A25732C25640D0A00000025
:1013200004ED00E070B50446FFF7F2FE234D04B96A
:101330002C68201DFFF7A8FE58B9E06A204A00EB90
:10134000800152F8211021B9012181402869884388
:101350002861A06A18B104F11800FFF795FE686AC9
:10136000401C68622868844207D1211D1548FFF798
:10137000C3FE6868401C686007E0A868401EA8605B
:101380002046FFF7A9FCFFF7A3FDFFF7FDFE686904
:10139000002812D0286884420FD1286B28B140F26F
:1013A000654209A10FA0FFF7DBFA12494FF0805008
:1013B0000860BFF34F8FBFF36F8F70BD2400002014
:1013C00094000020500300202E2E5C2E2E5C4672CE
:1013D000656552544F535C7372635C7461736B73D5
:1013E0002E6300004572726F723A25732C25640DCE
:1013F0000A00000004ED00E01CB515480024CDE90A
:1014000000402346802213A1144800F029F9012846
:101410000AD0401C1BD102B040F28472BDE81040DB
:101420000FA116A0FFF79CBA502080F31188BFF3DC
:101430004F8FBFF36F8F06484FF0FF312C3881621A
:1014400001214161C460BDE81C4000F06BB81CBDC7
:101450005000002049444C4500000000390D0008B0
:101460002E2E5C2E2E5C4672656552544F535C7373
:1014700072635C7461736B732E6300004572726FEC
:10148000723A25732C25640D0A0000000248016B96
:10149000491C0163704700002400002070B5144D02
:1014A000286B002802D00120E86170BD0020E861AF
:1014B0002869B0FA80F0C0F11F000E4E00EB8004E6
:1014C00056F8240028B940F6F6220BA111A0FFF728
:1014D00047FA06EB840041684968416000F1080260
:1014E000914201D1496841604068C068286070BD80
:1014F00024000020940000202E2E5C2E2E5C4672CC
:10150000656552544F535C7372635C7461736B73A3
:101510002E6300004572726F723A25732C25640D9C
:101520000A0000001CB52F4C20682F49884205D1C5
:1015300040F259122DA138A0FFF712FA20682A496B
:10154000491E884205D14FF4AD7228A132A0FFF7A1
:1015500007FA354C20780190FF2020702078009009
:101560009DF800009DF8001000F0F000884205D0C2
:1015700040F273121DA128A0FFF7F2F99DF80000B8
:101580002A4A00F0500010700720906006E0906832
:10159000401E90609DF80000400000909DF8000003
:1015A0000006F4D4107A000200F4E0609060019824
:1015B00020700C482030016841F47001016001681E
:1015C00041F070410160FFF761FE00205060FEF7BE
:1015D00007FE1748016841F040410160FEF7F0FD49
:1015E00000201CBD00ED00E071C20F412E2E5C2ECC
:1015F0002E5C4672656552544F535C706F72745C1A
:10160000525644535C41524D5F434D34465C706FBB
:1016100072742E63000000004572726F723A257377
:101620002C25640D0A00000000E400E07800002092
:1016300034EF00E010B5502080F31188BFF34F8FD6
:10164000BFF36F8F00F03CF818B104494FF08050A1
:101650000860002080F3118810BD000004ED00E058
:101660002DE9FF5F8146DDE90E788A4616469B46E6
:10167000B000FFF771FC054628000AD05C20FFF798
:101680006BFC04460CB1256304E02846FFF7B0FD6F
:1016900000E000248CB10020CDE90240CDE90078C3
:1016A0005B46324651464846FFF75AFB2046FFF755
:1016B000A3FA012004B0BDE8F09F4FF0FF30F9E736
:1016C0002DE9F04100262E4F386B002808D0B8696C
:1016D000401CB861F86900B101263046BDE8F081D0
:1016E000FD686D1CFD608DB9786B006828B140F60F
:1016F000D91224A12AA0FFF733F9786BB96B79636B
:10170000B863386A401C3862FFF7E2FBB86ADFF85A
:10171000A08085420DD3786B006838B1786BC068C3
:10172000C468606885420ED2B86202E04FF0FF30B4
:10173000B8623868C06A00EB800058F820000128C1
:10174000C8D90126C6E7201DFFF79EFCA06A18B184
:1017500004F11800FFF798FCE06A01213A69814022
:101760001143396100EB800008EB8000211DFFF779
:10177000C3FCE06A3968C96A8842CCD30126CAE74B
:10178000240000202E2E5C2E2E5C4672656552547D
:101790004F535C7372635C7461736B732E630000F0
:1017A0004572726F723A25732C25640D0A00000091
:1017B000940000202DE9F041002400272B4D286BD8
:1017C000002805D14FF4FD6229A130A0FFF7C8F829
:1017D000FFF79EFC286B401E2863286BF0BBA868AF
:1017E000E0B3DFF8B88001261DE0D8F80C00C4682B
:1017F00004F11800FFF748FC201DFFF745FCE06AE4
:101800002A6906FA00F111432961254900EB80009D
:1018100001EB8000211DFFF76FFCE06A2968C96AAF
:10182000884200D3EE61D8F800000028DDD10CB169
:10183000FFF74EFBAC6944B1FFF742FF00B1EE6128
:10184000641E002CF8D10020A861E86930B101279E
:10185000144938070860BFF34F8F00E001E0BFF381
:101860006F8FFFF791FC3846BDE8F081240000201F
:101870002E2E5C2E2E5C4672656552544F535C735F
:1018800072635C7461736B732E6300004572726FD8
:10189000723A25732C25640D0A0000003C030020D9
:1018A0009400002004ED00E04170705F48575F49EC
:1018B0006E6974004170705F4672656552544F5393
:1018C0005F4253505F496E697400467265655254B9
:1018D0004F535F4C65645F5461736B004465627580
:1018E000673A203C25732C2025643E3A2073797397
:1018F000636C6B203A2025642C2068636C6B203A63
:101900002025642C2070636C6B31203A2025642CD8
:101910002070636C6B32203A202564200D0A000091
:101920004019000800000020940000008009000811
:10193000D419000894000020E496000090090008E3
:10194000007A030A00000000000000000102030406
:101950000607080900000000010203040102030455
:101960000607080900000000000000000000000059
:101970000000000000000000000000000000000067
:101980000000000000000000000000000000000057
:101990000000000000000000000000000000000047
:1019A0000000000000000000000000000000000037
:1019B000000000000000000000000000AAAAAAAA7F
:1019C0000000000000000000000000000000000017
:0419D0000000000013
:040000050800018965
:00000001FF
