:020000040800F2
:1000000000140020C5010008F5050020ED050020C2
:10001000F305002049020020490A002000000000EA
:100020000000000000000000000000005507002054
:100030004B02002000000000750600205908002037
:100040004B0A0020250200082502000825020008AE
:10005000250200082502000825020008B10300203F
:10006000B303002025020008CD030020250200086C
:1000700025020008250200082502000825020008C4
:1000800025020008250200082502000825020008B4
:1000900025020008250200082502000825020008A4
:1000A0002502000825020008250200082502000894
:1000B000250200082502000825020008F10500209D
:1000C000EF0500202502000825020008250200088F
:1000D00025020008B90800202502000825020008B2
:1000E000250200085107002025020008250200080B
:1000F0002502000825020008250200082502000844
:1001000025020008530700202502000825020008E8
:100110002502000825020008250200082502000823
:100120002502000825020008250200082502000813
:100130002502000825020008250200082502000803
:1001400025020008250200082502000825020008F3
:1001500025020008250200082502000825020008E3
:1001600025020008250200082502000825020008D3
:1001700025020008250200082502000825020008C3
:100180002502000825020008DFF810D000F008F86A
:1001900000480047490C0020AFF300800014002005
:1001A000064C074D06E0E06840F0010394E80700C4
:1001B00098471034AC42F6D3FFF7EAFF88020008F4
:1001C000B8020008DFF860D018481949194A00F051
:1001D00043F81948194900F037F819488047194879
:1001E000004712481249134A10F8013B01F8013B3D
:1001F000002AA2F10102F7D170470F484FF0000129
:100200000E4A00F8011B002AA2F10102F9D1704741
:100210000046FEE7FEE7FEE7FEE7FEE7FEE7FEE755
:10022000FEE7FEE7FEE7000000140020B802000829
:1002300000000020DC0C0000001000200004000082
:100240005D080020490C0020002201E000F8012B8D
:10025000491E4B1CFAD1704703E010F8013B01F82E
:10026000013B521E531CF8D1704702E008C8121F10
:1002700008C1002AFAD170477047002001E001C18F
:10028000121F002AFBD17047B802000800000020AE
:10029000BC0C00006A020008740F0008BC0C0020AF
:1002A000200000006A020008940F000800100020DF
:1002B000000400007A02000830B50B460146002019
:1002C0002022012409E021FA02F59D4205D303FA18
:1002D00002F5491B04FA02F52844151EA2F1010299
:1002E000F1DC30BD00B587B04FF4A06000F014FB26
:1002F000A82000F07FFA00F076FA03A800F034FBA3
:10030000DDE904120698CDE9001202901422034997
:100310000348039B00F0F6FC07B000BD6C0C002006
:10032000780C002010B500F069FA002804D1BDE86F
:10033000104002A000F0E6BC10BD000054686973D4
:10034000206973204B65792030202E2E2E200D0A37
:100350000000000010B500F053FA002804D1BDE8F9
:10036000104002A000F0CEBC10BD000054686973BC
:10037000206973204B65792032202E2E2E200D0A05
:100380000000000016A000F0BDFC00F05DFA00F0D7
:1003900039FA4FF47A74002000F06EFA204600F02B
:1003A0002BFA002000F052FA204600F025FA012036
:1003B00000F062FA204600F01FFA012000F046FA31
:1003C000204600F019FA022000F056FA204600F00C
:1003D00013FA022000F03AFA204600F00DFADAE7AC
:1003E00054686973206973204C4544205461736BD1
:1003F000202E2E2E200D0A007047000010210148EB
:1004000000F0E6B9001002400421014800F0E0B914
:100410000010024070B586B00121102000F088FA6B
:100420000121880300F092FA1420049000248DF832
:10043000144001258DF8175002208DF8150004A9ED
:100440001E4800F077F90221042000F0E1FA0421AF
:10045000084600F0DDFA102002908DF80C400C20C8
:100460008DF80D008DF80E5002A800F029F9042037
:10047000029002A800F024F90A208DF80400062654
:100480008DF805608DF806408DF8075001A800F042
:100490000FFA08208DF804008DF805608DF80640ED
:1004A0008DF8075001A800F003FA102000F0F8F8CA
:1004B000042000F0F5F806B070BD00000010024006
:1004C0007CB50121202000F033FA4FF4C064009481
:1004D00001208DF8040000228DF806208DF8070019
:1004E00003208DF80500054D6946284600F022F9E5
:1004F0002146284600F075F97CBD0000001402403A
:10050000FEE7704770B586B00121084600F010FA8A
:100510000121102000F01AFA214E07220A2130464C
:1005200000F046F907220921304600F041F9002485
:100530008DF8164001208DF8170002258DF8145013
:10054000410204918DF8155004A9304600F0F2F8EC
:100550008DF814506802049004A9304600F0EAF8BF
:100560004FF4E1300090ADF80440ADF80640ADF82E
:100570000840ADF80C400C20ADF80A00094C694663
:10058000204600F05BFB012240F22551204600F09E
:100590003AFB0121204600F003FB06B070BD0000CD
:1005A000000002400010014008B525208DF8000031
:1005B00001208DF8010002218DF802108DF8030052
:1005C000684600F075F908BD10B504466FF00400E8
:1005D00000F090FA0649E008087000EB4002C2EB18
:1005E000C0104FF6FF7202EAC000488010BD000044
:1005F000D40C002070B504464FF47A7502E028460A
:1006000000F004F8641E601CF9D170BD10B50446FA
:100610000D48844202D90DA000F074FB11484FF040
:10062000E021007844434C61086940F00100086112
:100630000869C20701D0C003FAD5086920F001009B
:1006400008610020486110BDC2300C006E75732037
:10065000697320746F6F206C61726765202E2E2E77
:10066000200D0A00D40C0020704710B5042000F0C3
:100670001DF8012801D1FFF76DFEBDE810400420F0
:1006800000F00EB810B5102000F010F8012801D1CC
:10069000FFF748FEBDE81040102000F001B8000050
:1006A0000149086070470000143C014001460020E9
:1006B000024A12680A4200D001207047143C0140EF
:1006C00030B51B4A83790168002B2AD013688B430D
:1006D0001360111D0B680468A3430B60017911447A
:1006E0000B68046823430B60114C083421680368CD
:1006F00099432160231D19680568A9431960417950
:10070000102905D011440A68006802430A6030BD10
:10071000216802681143216019680068014319606B
:1007200030BD0079104402688A43026030BD000089
:10073000003C01402DE9F041002201274FF0030C5D
:1007400007FA02F50B682B40AB422CD10668530028
:100750000CFA03F4A64306600E79D0F800809E40A0
:1007600046EA080606600E79012E01D0022E12D14B
:100770008668A64386604E79D0F808809E4046EA97
:10078000080686604668AE43466045688E799640A6
:10079000B6B235434560C568A543C560CC799C4079
:1007A000C3681C43C460521C102AC9D3BDE8F08141
:1007B00010B54B07DB0E9A40C90800EB8100016AB7
:1007C0000F249C40A1430162016A1143016210BDE4
:1007D0000246002012690A4200D00120704741837E
:1007E00070470183704710B5FFF78CFEBDE81040DD
:1007F000FFF7DABEFFF7E8BEFFF7FCBEFFF7FEBD6E
:10080000FFF702BEFFF706BE4FF400710148FFF785
:10081000E8BF0000001402404FF400710148FFF7E8
:10082000DEBF0000001402404FF480610148FFF772
:10083000D8BF0000001402404FF480610148FFF768
:10084000CEBF000000140240FFF73ABE10B50028EA
:1008500009D001280BD002280DD1FFF7E5FFBDE834
:100860001040FFF7D1BFBDE81040FFF7CDBFBDE896
:100870001040FFF7D9BF10BD10B5002809D00128DE
:100880000BD002280DD1FFF7C7FFBDE81040FFF7DE
:10089000D3BFBDE81040FFF7BFBFBDE81040FFF772
:1008A000CBBF10BDFEE770477047FEE77047000002
:1008B00030B50F23C27801250178002A1FD0154AD0
:1008C000126802F4E062C2F5E062C2F30722C2F1EC
:1008D0000404D3404278A24084781C40144322018F
:1008E00001F1E02181F80024007800F01F018D4023
:1008F0004009800000F1E020C0F8005130BD01F057
:100900001F0085404809800000F1E020C0F88051B8
:1009100030BD00000CED00E00249084302490860C8
:10092000704700000000FA050CED00E07047000081
:10093000054A002903D0116801431160704711680E
:10094000814311607047000030380240054A002999
:1009500003D0116801431160704711688143116031
:10096000704700004438024070B5244B196801F00C
:100970000C01234C00291ED0661004291DD0082923
:100980001DD00460196801F0F00109091D4A545C8A
:100990000168E14041601C6804F4E054A40A145D5D
:1009A00021FA04F484601B6803F460435B0BD25C9F
:1009B000D140C16070BD0460E4E70660E2E70F4A21
:1009C000121F1168C1F38055116801F03F0135B164
:1009D000B6FBF1F11468C4F38814614305E0B4FB7D
:1009E000F1F11468C4F3881461431268C2F3014240
:1009F000521C5200B1FBF2F10160C3E7083802401B
:100A00000024F400BC0C00207047704770470000C1
:100A100010B58A07120F0F23934021F003040649F3
:100A2000214401F608010C689C430C600B6890405F
:100A300003430B6010BD0000003001400CB50022E4
:100A4000019200922749086840F4803008604FF412
:100A5000A043086800F4003000900198401C019009
:100A6000009810B901989842F3D10868800302D524
:100A70000120009000E000920098012831D119482F
:100A80004030026842F0805202601748026842F427
:100A9000404202601348083002680260026842F473
:100AA00000420260026842F4A0520260021F0F4B33
:100AB00013600A6842F080720A600A689201FCD5ED
:100AC0000B4A40F205711160016821F003010160D9
:100AD000016841F0020101600168C1F3810102294E
:100AE000FAD10CBD003802400070004008544007A5
:100AF000003C02404FF0E021042804D0086920F0B7
:100B0000040008617047086940F0040008617047FC
:100B10007047000010B51248016841F4700101608F
:100B20001048016841F0010101600E4A00210832BD
:100B3000116002680C4B1A400260031D0B4A1A60D8
:100B4000026822F48022026006480C300160FFF740
:100B500075FF03494FF000608039086010BD000048
:100B600088ED00E000380240FFFFF6FE1030002460
:100B700070B5064D40F225542146284600F023F872
:100B800021462846BDE8704000F002B80010014040
:100B900040F66A120A0A01219140C9430180704758
:100BA000002904D0818941F40051818170478189F5
:100BB00021F40051818170470246002012880A42C8
:100BC00000D00120704770B5002440F66A12C1F3CE
:100BD000421301F01F05012606FA05F2012B0CD085
:100BE000022B0DD0838A1340090A8E4000883040C2
:100BF0000BB100B10124204670BD83891340F3E797
:100C0000038A1340F0E710B540F66A13C1F34213AC
:100C100001F01F040121A140012B07D0022B07D0B6
:100C200014303AB102680A43026010BD0C30F8E794
:100C30001030F6E702688A43026010BD7FB50446B3
:100C40000D46208A20F44051E88808432082A0897C
:100C500041F20C618843A9882A8911436A890243B9
:100C60001143A181A08A20F44071A8890843A08281
:100C70006846FFF779FE1E48844202D01D48844230
:100C800001D1039800E00298A189090408D500EB7E
:100C9000C00101EB001029684900B0FBF1F007E04A
:100CA00000EBC00101EB001029688900B0FBF1F0F6
:100CB0006422B0FBF2F109010B096FF018056B43D8
:100CC00000EB8300A3891D044FF0320307D503EB2B
:100CD000C000B0FBF2F000F00700084306E003EBB1
:100CE0000010B0FBF2F000F00F00084320817FBD40
:100CF0000010014000140140C1F3080181807047D9
:100D0000FEE770470FB4054B10B503A9044A0298DB
:100D100000F008F810BC5DF814FB0000250C002062
:100D2000D80C00202DE9FF4F8BB09A460F460546A0
:100D3000002606E025280BD052460D9990476D1CE1
:100D4000761C28780028F5D10FB03046BDE8F08F2A
:100D50000024A0460122604900E0044315F8013F49
:100D6000203B02FA03F00842F7D128782E2817D149
:100D700015F8010F44F004042A280ED06FF02F025A
:100D80002878A0F1300109290AD808EB880102EB84
:100D9000410100EB01086D1CF2E757F8048B6D1C54
:100DA000287869283ED006DC0028CDD063280BD0F7
:100DB000642804D136E0732810D075284BD05246F1
:100DC0000D999047761C85E017F8040B8DF800000C
:100DD00000208DF80100E946012003E057F8049B4C
:100DE0004FF0FF3061074FF0000401D40AE0641CAB
:100DF00044450DDA8442FADB19F804100029F6D1D3
:100E000006E0641C8442FCDB19F804100029F8D1C8
:100E1000264404E019F8010B52460D999047641ED0
:100E2000F8D257E001CF4FF00A0B002802DA404217
:100E30002D2102E0210504D52B218DF8241001215C
:100E400003E0E10705D02021F7E70DF12009089123
:100E50000CE00021F9E701CF4FF00A0BF9E7594602
:100E6000FFF72AFA01F1300209F8012D0028F6D126
:100E7000ADEB090000F1200B600701D44FF0010831
:100E8000D84502DDA8EB0B0000E0002080460024DE
:100E900006E009A85246005D0D999047641C761C37
:100EA00008988442F5DB04E0302052460D999047C3
:100EB000761CB8F10001A8F10108F5DC05E019F88D
:100EC000010B52460D999047761CBBF10001ABF126
:100ED000010BF4DC6D1C34E70928010070B50446F1
:100EE000064DE1B22846FFF707FF80212846FFF7AD
:100EF00063FE0028F9D0204670BD000000100140BC
:100F0000FFF7F0F9FFF778FAFFF73CFA0448002101
:100F100041600168491C01604168491C4160F8E773
:100F2000CC0C00204170705F48575F496E697400B7
:100F300044656275673A203C25732C2025643E3A4F
:100F400020737973636C6B203A2025642C206863CE
:100F50006C6B203A2025642C2070636C6B31203A36
:100F60002025642C2070636C6B32203A202564208D
:100F70000D0A000000000000010203040102030446
:100F8000060708090800000000000000000000003B
:040F9000000000005D
:040000050800018965
:00000001FF
