:020000040800F2
:1000000090970020590200083F0B0008750900086E
:1000100077090008B10400087D0E00080000000008
:10002000000000000000000000000000A101000826
:10003000B304000800000000F5010008E50C00080A
:1000400073020008730200087302000873020008BC
:1000500073020008730200087302000873020008AC
:100060004D05000873020008BD0500087302000872
:10007000730200087302000873020008730200088C
:10008000730200087302000873020008730200087C
:10009000730200087302000873020008730200086C
:1000A000730200087302000873020008730200085C
:1000B000730200087302000873020008730200084C
:1000C000730200087302000873020008730200083C
:1000D000730200087302000873020008730200082C
:1000E000730200087302000873020008730200081C
:1000F000730200087302000873020008730200080C
:1001000073020008730200087302000873020008FB
:100110007302000873020008450D0008730200080E
:1001200073020008730200087302000873020008DB
:1001300073020008730200087302000873020008CB
:1001400073020008730200087302000873020008BB
:1001500073020008730200087302000873020008AB
:10016000730200087302000873020008730200089B
:10017000730200087302000873020008730200088B
:100180007302000873020008DFF810D000F0CCF80A
:1001900000480047D9110008AFF300809097002075
:1001A0002A4B19680868B0E8F04F80F30988BFF35C
:1001B0006F8F4FF0000080F311887047000000003F
:1001C00006480068006880F3088862B661B6BFF32D
:1001D0004F8FBFF36F8F00DF00BF00BF08ED00E05F
:1001E000DFF80C00016841F470010160704700BF46
:1001F00088ED00E0EFF30980BFF36F8F134B1A68AF
:100200001EF0100F08BF20ED108A20E9F04F10609B
:1002100008B44FF0500080F31188BFF34F8FBFF345
:100220006F8F01F0C7FC4FF0000080F3118808BC0D
:1002300019680868B0E8F04F1EF0100F08BFB0EC66
:10024000108A80F30988BFF36F8F70472400002065
:10025000EFF30580704700000648804706480047D6
:10026000FEE7FEE7FEE7FEE7FEE7FEE7FEE7FEE766
:10027000FEE7FEE7E90C00088901000840EA0103F7
:100280009B0703D009E008C9121F08C0042AFAD24C
:1002900003E011F8013B00F8013B521EF9D2704710
:1002A000D2B201E000F8012B491EFBD270470022B8
:1002B000F6E710B513460A4604461946FFF7F0FF65
:1002C000204610BD2DE9F05F0546002092469B4672
:1002D00088460646814640241BE02846414647465C
:1002E000224600F042F853465A46C01A914110D3B4
:1002F00011461846224600F029F82D1A67EB01082E
:100300004F4622460120002100F020F817EB00099B
:100310004E41201EA4F10104DFDC484631462A4646
:100320004346BDE8F09F0000064C074D06E0E0683C
:1003300040F0010394E8070098471034AC42F6D32C
:10034000FFF726FF9C220008BC220008202A04DBBD
:10035000203A00FA02F1002070479140C2F12003D8
:1003600020FA03F3194390407047202A04DB203A17
:1003700021FA02F00021704721FA02F3D040C2F1C5
:1003800020029140084319467047000010B501F063
:1003900001FA00F061F90448006801F04BFBBDE888
:1003A000104001F033BA00009400002000B587B07F
:1003B0004FF4407000F0C4FB00F01DFA03A800F0F9
:1003C000E5FBDDE904120698CDE9001202903C221B
:1003D00004490548039B00F053FD00F035F907B0D0
:1003E00000BD000024220008582200081CB508485F
:1003F0000121CDE900104A02002306A1094801F0BD
:100400008FFD012803D1BDE81C4001F07DBB1CBD60
:10041000940000204170705461736B437265617485
:10042000650000008D0300081021014800F0D8B9D4
:10043000001002400421014800F0D2B9001002402F
:100440001CB50121102000F085FB14200090002035
:100450008DF8040001208DF8070002208DF80500BA
:100460006946024800F06EF91CBD00000010024011
:100470007CB50121202000F06DFB4FF4C064009496
:1004800001208DF8040000228DF806208DF8070069
:1004900003208DF80500054D6946284600F052F905
:1004A0002146284600F0A5F97CBD0000001402405A
:1004B000FEE7704770B586B00121084600F04AFBA0
:1004C0000121102000F054FB1E4E07220A21304665
:1004D00000F076F907220921304600F071F9002476
:1004E0008DF8164001208DF8170002258DF8145064
:1004F000410204918DF8155004A9304600F022F90C
:100500008DF814506802049004A9304600F01AF9DE
:100510004FF4E1300090ADF80440ADF80640ADF87E
:100520000840ADF80C400C20ADF80A00064C6946B6
:10053000204600F041FC0121204600F02AFC06B0D4
:1005400070BD0000000002400010014008B500200E
:100550000090042000F06EF8E8B100F050F950B9B6
:100560000F486A460021006801F07AFC012806D095
:100570000CA000F085FC0098012804D00BE00CA032
:1005800000F07EFCF7E70C494FF080500860BFF3A5
:100590004F8FBFF36F8F042000F046F808BD0000B6
:1005A000980000204E6F20746F20540D0A00000048
:1005B0005420310D0A00000004ED00E008B50020D1
:1005C0000090102000F036F8E0B100F016F9C8B93C
:1005D0000E486946006801F0E3FB012806D00CA034
:1005E00000F04EFC0098012804D00BE00BA000F0B6
:1005F00047FCF7E70B494FF080500860BFF34F8F7F
:10060000BFF36F8F102000F00FF808BD9800002096
:100610004E6F20746F20470D0A0000004720310DF7
:100620000A00000004ED00E0014908607047000086
:10063000143C014001460020024A12680A4200D0E0
:1006400001207047143C014010B500F02DF9BDE8C1
:10065000104000F0D6B800001CB512480224CDE9C5
:1006600000400023802210A1134801F059FC20B162
:100670002922124912A000F003FC0A480023001DA1
:10068000CDE9004080221CA11F4801F049FC002850
:1006900007D002B03422BDE8104008491BA000F08A
:1006A000EFBB1CBDA00000204D656D6F72795F4CE3
:1006B00045445F5461736B002D0B00083A2200081B
:1006C000496E666F3A203C25732C2025643E3A2003
:1006D0004D656D6F72795F4C45445F5461736B205B
:1006E00043726561742073756363657373202E2E86
:1006F0002E200D0A000000004D656D6F72795F4B72
:1007000045595F5461736B0079090008496E666F43
:100710003A203C25732C2025643E3A204D656D6FB0
:1007200072795F4B45595F5461736B204372656109
:10073000742073756363657373202E2E2E200D0A4B
:10074000000000002DE9F041002201274FF0030CCA
:1007500007FA02F50B682B40AB422CD10668530018
:100760000CFA03F4A64306600E79D0F800809E4090
:1007700046EA080606600E79012E01D0022E12D13B
:100780008668A64386604E79D0F808809E4046EA87
:10079000080686604668AE43466045688E79964096
:1007A000B6B235434560C568A543C560CC799C4069
:1007B000C3681C43C460521C102AC9D3BDE8F08131
:1007C00010B54B07DB0E9A40C90800EB8100016AA7
:1007D0000F249C40A1430162016A1143016210BDD4
:1007E0000246002012690A4200D00120704741836E
:1007F000704701837047FFF75DBEFFF715BEFFF737
:1008000019BEFFF71DBE2DE9F0410F46002600245A
:1008100049F64045012802D0022811D020E0FFF718
:10082000ECFFE8B9641CAC42FCD3FFF7E6FFB8B9B3
:100830000126012F14D1FFF7E0FF0028FBD00FE0C5
:10084000FFF7DDFF60B9641CAC42FCD3FFF7D7FFB4
:1008500030B90126012F03D1FFF7D1FF0028FBD0CB
:100860003046BDE8F08100004FF400710148FFF709
:10087000C0BF0000001402404FF400710148FFF7B0
:10088000B6BF0000001402404FF480610148FFF73A
:10089000B0BF0000001402404FF480610148FFF730
:1008A000A6BF000000140240FFF7E2BD10B500280B
:1008B00009D001280BD002280DD1FFF7E5FFBDE8D4
:1008C0001040FFF7D1BFBDE81040FFF7CDBFBDE836
:1008D0001040FFF7D9BF10BD10B5002809D001287E
:1008E0000BD002280DD1FFF7C7FFBDE81040FFF77E
:1008F000D3BFBDE81040FFF7BFBFBDE81040FFF712
:10090000CBBF10BD70B51A4C0025012621780028F8
:100910000ED0012817D0022809D101B3012906D130
:100920000020FFF7C3FF0120FFF7C0FF257070BD57
:1009300029B10129FBD1FFF7B9FF257070BDFFF781
:10094000CBFF267070BD617829B10129FAD1FFF77C
:10095000ADFF657070BDFFF7BFFF667070BD002012
:10096000FFF7BAFF0120FFF7B7FF267070BD000048
:1009700090000020FEE7FEE7264C01210846FFF725
:1009800042FF28B1206800281DD023A000F078FA8B
:1009900001210220FFF737FF0028EED0216800294F
:1009A00033D026A000F06CFA27A000F069FA206886
:1009B00000F060FF0020206001F04EF9014626A003
:1009C00000F05EFAD9E701F047F901462DA000F0EA
:1009D00057FA4FF4806000F001FE20600028D7D065
:1009E0002FA000F04DFA34A0216800F049FA01F080
:1009F00033F9014638A000F043FA01F0C1FA02468B
:100A00003CA1206800F04CFAC2E73FA000F038FAA1
:100A1000B3E700009C000020456E746572204B65B2
:100A200079203220546F2046726565204D656D6FC8
:100A30007279202E2E2E200D0A000000526561646E
:100A4000203A20257300000046726565204D656DD3
:100A5000202E2E2E200D0A0053797320437572200C
:100A60004D656D73697A65206973202564202C209B
:100A70004D656D204672656520737563636573739C
:100A8000200D0A0053797320437572204D656D73F4
:100A9000697A65206973202564200D0A0000000032
:100AA0004D616C6C6F63206D656D2073756363655C
:100AB0007373200D0A0000004D616C6C6F63206D34
:100AC000656D2061646472657373206973202523EA
:100AD00078200D0A000000005379732043757220BE
:100AE0005359204D656D73697A65206973202564BB
:100AF000200D0A00437572205469636B436F756E55
:100B000074202564200D0A00456E746572204B65C3
:100B100079203020546F204D616C6C6F63204D65DF
:100B20006D6F7279202E2E2E200D0A004FF47A74EC
:100B30000220FFF7E7FE204600F040FFF8E770478D
:100B40000249084302490860704700000000FA05A6
:100B50000CED00E0054A002903D011680143116043
:100B600070471168814311607047000030380240BF
:100B7000054A002903D011680143116070471168CC
:100B800081431160704700004438024070B5244B27
:100B9000196801F00C01234C00291ED066100429AD
:100BA0001DD008291DD00460196801F0F001090961
:100BB0001D4A545C0168E14041601C6804F4E05443
:100BC000A40A145D21FA04F484601B6803F46043F2
:100BD0005B0BD25CD140C16070BD0460E4E706608D
:100BE000E2E70F4A121F1168C1F38055116801F046
:100BF0003F0135B1B6FBF1F11468C4F388146143C9
:100C000005E0B4FBF1F11468C4F388146143126881
:100C1000C2F30142521C5200B1FBF2F10160C3E782
:100C2000083802400024F400140000200CB5002213
:100C3000019200922749086840F4803008604FF420
:100C4000A043086800F4003000900198401C019017
:100C5000009810B901989842F3D10868800302D532
:100C60000120009000E000920098012831D119483D
:100C70004030026842F0805202601748026842F435
:100C8000404202601348083002680260026842F481
:100C900000420260026842F4A0520260021F0F4B41
:100CA00013600A6842F080720A600A689201FCD5FB
:100CB0000B4A40F205711160016821F003010160E7
:100CC000016841F0020101600168C1F3810102295C
:100CD000FAD10CBD003802400070004008544007B3
:100CE000003C024001F046B810B51248016841F4DA
:100CF000700101601048016841F0010101600E4A75
:100D000000210832116002680C4B1A400260031D7A
:100D10000B4A1A60026822F48022026006480C30F6
:100D20000160FFF783FF03494FF0006080390860DE
:100D300010BD000088ED00E000380240FFFFF6FE25
:100D40001030002410B5094C0121204600F015F8A0
:100D5000002809D006480168491C01602046BDE80A
:100D60001040012100F006B810BD00000010004046
:100D70008C000020C9430182704702460020138A7C
:100D80000B4092890A40002B02D0002A00D001209B
:100D90007047002904D0818941F400518181704756
:100DA000818921F400518181704702460020128818
:100DB0000A4200D0012070477FB504460D46208AC4
:100DC00020F44051E88808432082A08941F20C6158
:100DD0008843A9882A8911436A8902431143A18162
:100DE000A08A20F44071A8890843A0826846FFF7D2
:100DF000CDFE1E48844202D01D48844201D1039892
:100E000000E00298A189090408D500EBC00101EBBC
:100E1000001029684900B0FBF1F007E000EBC001C9
:100E200001EB001029688900B0FBF1F06422B0FBEF
:100E3000F2F109010B096FF018056B4300EB830019
:100E4000A3891D044FF0320307D503EBC000B0FBAC
:100E5000F2F000F00700084306E003EB0010B0FBDF
:100E6000F2F000F00F00084320817FBD0010014028
:100E700000140140C1F3080181807047FEE70000C3
:100E80000FB4054B10B503A9044A029800F02CF8E2
:100E900010BC5DF814FB0000B5110008A80000208C
:100EA0000FB4084B10B504A902AA039800F01CF86F
:100EB000044602A9002000F077F9204610BC5DF836
:100EC00014FB0000A911000802E008C8121F08C1A5
:100ED000002AFAD170477047002001E001C1121FBB
:100EE000002AFBD1704700002DE9FF4F8DB09B46D3
:100EF0000F460446002606E025280BD05A460F99D7
:100F00009047641C761C20780028F5D111B030463B
:100F1000BDE8F08F0025A8460122984900E005436E
:100F200014F8013F203B02FA03F00842F7D1207881
:100F30002E2817D114F8010F45F004052A280ED0E9
:100F40006FF02F022078A0F1300109290AD808EBB0
:100F5000880102EB410100EB0108641CF2E757F83D
:100F6000048B641C20786C280DD004DC4C2812D033
:100F70006A2811D104E074280DD07A280CD10AE037
:100F800045F4001507E0617845F48015814202D1EF
:100F9000641C05F58015641C2078692844D008DCA1
:100FA0000028B3D0582867D063280FD0642808D110
:100FB0003AE0702865D0732812D075285AD0782866
:100FC0005AD05A460F999047761CD5E017F8040B73
:100FD0008DF8000000208DF80100E946012003E0B3
:100FE00057F8049B4FF0FF3069074FF0000501D41C
:100FF0000AE06D1C45450DDA8542FADB19F805104B
:101000000029F6D106E06D1C8542FCDB19F80510BD
:101010000029F8D12E4404E019F8010B5A460F9923
:1010200090476D1EF8D2A7E00A200021CDE9080103
:10103000C5F3025002280CD001CFC117021E71F176
:1010400000020CDA0023D0EB030063EB01012D2238
:1010500008E0FF1D27F00707F7E80201EEE72A0581
:1010600004D52B228DF8282001223CE0EA073AD053
:101070002022F7E70A2000E010200021CDE9080136
:1010800007E01020002145F00405CDE908014FF0EC
:101090000808C5F30250022810D001CF00214FF0FC
:1010A000000A2A0720D52278702A0DD0DDE908C36E
:1010B0008CF0100C5CEA030C0CD015E0FF1D27F03F
:1010C0000707F7E80201EAE740228DF828204FF0F1
:1010D000010A0CE050EA010306D030238DF82830D5
:1010E0008DF82920022292462278582A04D024A280
:1010F0000DF120090B9209E026A2F9E7DDE90823AA
:10110000FFF7E0F80B9B9B5C09F8013D50EA0102F8
:10111000F4D1ADEB090020300890680701D44FF0FE
:1011200001080899884503DD0898A8EB000000E055
:1011300000208046002506E00AA85A46405D0F9927
:1011400090476D1C761C5545F6DB04E030205A466E
:101150000F999047761CB8F10001A8F10108F5DC61
:1011600005E019F8010B5A460F999047761C08992B
:10117000481E08900029F4DC641CC4E6092801001C
:1011800030313233343536373839616263646566FD
:1011900000000000303132333435363738394142BF
:1011A00043444546000000000A68531C0B60107061
:1011B0007047000070B50446064DE1B22846FFF7BF
:1011C00059FE80212846FFF7F0FD0028F9D020467F
:1011D00070BD000000100140FFF7E8F8FFF706F9C6
:1011E000FEE700002DE9F04104460F46174EF56872
:1011F0003068001D00F08AFA38B9306890F82C1079
:1012000001208840316981433161601C07D137B1C9
:101210003168BDE8F041091D0D4800F0AFBA2C441B
:1012200030684460AC4206D23168306C091DBDE8BC
:10123000F04100F08BBA3168F06B091D00F086FABE
:10124000B06A844200D2B462BDE8F081240000207C
:101250007C03002070B5044600F09CFA1D4DA86880
:10126000401CA860286810B1686938B10CE02C6097
:10127000A868012808D100F017F905E02868E16A9C
:10128000C06A884200D82C60686A401C686260644A
:10129000E06A01212A698140114329610E4900EB6E
:1012A000800001EB8000211D00F068FA00F0AEFA2A
:1012B000686900280CD02868E16AC06A884207D2B1
:1012C00006494FF080500860BFF34F8FBFF36F8F18
:1012D00070BD000024000020AC00002004ED00E000
:1012E00070B5124E124D1CE000F05CFC306820B16D
:1012F000002400F017FFA4B901E00124F9E700F091
:1013000049FAF068C468201D00F000FAA868401E81
:10131000A8606868401E686000F078FA204600F017
:101320001DF868680028DFD170BD00006803002048
:101330002400002030B40B46026C002A0CD0C16897
:101340001144C1604468A14201D30168C160C16811
:1013500030BC1846FEF792BF30BC704710B504464B
:10136000206B00F087FA2046BDE8104000F082BAFA
:101370004FF410410F48420706D0C01D20F007006F
:101380000C49411AC1F510410B4A1060002353600B
:101390000144083921F00701103A11604B600B60DD
:1013A0000B1A436001604068906050604FF000404D
:1013B000D06070479003002078000020074E4FF067
:1013C0008054074DFFF78CFF30680128FAD92C6054
:1013D000BFF34F8FBFF36F8FF4E70000AC00002026
:1013E00004ED00E02DE9F047DDE908580A9C81464C
:1013F0000E4617469A46B900A522206BFEF750FF0D
:10140000206B7F1E00EB870020F00707780705D0D0
:1014100040F22B3219A120A0FFF732FD0020221844
:10142000315C82F83410315C11B1401C1028F6D3C5
:10143000002684F84360202D00D31F25E562E56473
:101440002665201D00F07FF904F1180000F07BF9FB
:101450002461C5F12000A06164626665A66584F818
:101460005C6052464946384600F03EF92060B8F1CB
:10147000000F01D0C8F80040BDE8F0872E2E5C2E8A
:101480002E5C4672656552544F535C7372635C7494
:1014900061736B732E6300004572726F723A25732D
:1014A0002C25640D0A00000070B50024114D04EBDA
:1014B000840005EB800000F03BF9641C202CF6D37F
:1014C0000D4800F035F90C48143000F031F90A48A5
:1014D000283000F02DF908483C3000F029F9064882
:1014E000503000F025F905480349C1631431016407
:1014F00070BD0000AC0000202C0300202400002060
:1015000030B5134900E011460A688242FBD34B68AC
:101510005C18844203D140681844486008460D684E
:1015200044682318AB420DD1094B103B1B689A420B
:1015300006D05268224442600A681268026002E0E3
:10154000036000E00260814200D0086030BD00000E
:10155000780000200748C16B0968002905D0C16BDD
:10156000C968C9684968816270474FF0FF3181627C
:10157000704700002400002008484068401C05D047
:1015800040F20F1206A111A0FFF77AFC502080F361
:101590001188BFF34F8FBFF36F8FFEE780000020ED
:1015A0002E2E5C2E2E5C4672656552544F535C7035
:1015B0006F72745C525644535C41524D5F434D34DC
:1015C000465C706F72742E63000000004572726F8B
:1015D000723A25732C25640D0A0000002DE9F041B4
:1015E0000546002600F0DEFA304F386808B9FFF7EC
:1015F000BFFEF86805424BD175B1083568070BD0BE
:1016000005F00700C0F108000544680704D0BF22B8
:1016100027A131A0FFF734FC002D39D0786885422E
:1016200036D8224910310846046801E021460446B4
:101630006068A84202D220680028F7D13868844246
:1016400026D00E680836206808606068401B1028A5
:1016500011D904EB05085FEA487004D0EC2214A10C
:101660001DA0FFF70DFC6068401BC8F80400656012
:101670004046FFF745FF61687868401A7860BA68AD
:10168000904200D2B860F868014361600020206099
:1016900000F048FD700705D04FF4967204A10EA02B
:1016A000FFF7EEFB3046BDE8F08100006800002047
:1016B0002E2E5C2E2E5C4672656552544F535C7024
:1016C0006F72745C4D656D4D616E675C68656170CD
:1016D0005F342E63000000004572726F723A25730A
:1016E0002C25640D0A00000024384FF0807303623B
:1016F00021F00101C1610449816142606FF0020182
:1017000040F8201970470000791500080169D0E9F8
:1017100001329A60D0E901235A604A68824201D1BD
:1017200082684A60002202610868401E08607047B3
:1017300000F1080141604FF0FF328260C160016139
:1017400000210160704700210161704730B50C68CD
:10175000621C02D000F1080202E0026904E01A46AD
:1017600053681D68A542FAD953684B6099608A6036
:10177000516008610168491C016030BD42684A60DF
:1017800093688B6093685960916008610168491C97
:1017900001607047502080F31188BFF34F8FBFF373
:1017A0006F8F09494868401C486001280AD10748E2
:1017B000006810F0FF0F05D040F2B91204A10FA08D
:1017C000FFF75EBB704700008000002004ED00E0E2
:1017D0002E2E5C2E2E5C4672656552544F535C7003
:1017E0006F72745C525644535C41524D5F434D34AA
:1017F000465C706F72742E63000000004572726F59
:10180000723A25732C25640D0A00000010B5094CAE
:101810006068002805D14FF4E07207A111A0FFF71E
:101820002FFB6068401E6060002801D180F31188A2
:1018300010BD0000800000202E2E5C2E2E5C467213
:10184000656552544F535C706F72745C52564453CA
:101850005C41524D5F434D34465C706F72742E6331
:10186000000000004572726F723A25732C25640DDA
:101870000A00000070B500282AD008380446154D2B
:101880006068E968084205D14FF4A07212A11CA05B
:10189000FFF7F6FA206828B140F241120EA118A015
:1018A000FFF7EEFA6068E968084211D02268002A62
:1018B0000ED18843606000F075F96068696808447B
:1018C00068602046FFF71CFEBDE8704000F02ABCAF
:1018D00070BD0000680000202E2E5C2E2E5C46722B
:1018E000656552544F535C706F72745C4D656D4DFD
:1018F000616E675C686561705F342E630000000094
:101900004572726F723A25732C25640D0A0000002F
:1019100006484FF47A710068B0FBF1F14FF0E02017
:10192000491E41610721016170470000000000204D
:1019300010B5FEF78DFC104C10280CD300F1E02000
:1019400090F8F0032178884205D24FF440720BA141
:1019500015A0FFF795FA18480068A16800F4E06048
:10196000884207D9BDE810404FF4447203A10EA08D
:10197000FFF786BA10BD0000800000202E2E5C2EDE
:101980002E5C4672656552544F535C706F72745C86
:10199000525644535C41524D5F434D34465C706F28
:1019A00072742E63000000004572726F723A2573E4
:1019B0002C25640D0A0000000CED00E010B5044673
:1019C0000020002C10D00E48006B28B140F2CF420E
:1019D0000CA113A0FFF754FA00F0E4F80021204610
:1019E000FFF700FC00F09EFB002807D110494FF0E4
:1019F00080500860BFF34F8FBFF36F8F10BD0000A2
:101A0000240000202E2E5C2E2E5C467265655254FA
:101A10004F535C7372635C7461736B732E6300006D
:101A20004572726F723A25732C25640D0A0000000E
:101A300004ED00E070B50446FFF7ACFE234D04B999
:101A40002C68201DFFF762FE58B9E06A204A00EBBF
:101A5000800152F8211021B9012181402869884371
:101A60002861A06A18B104F11800FFF74FFE686AF8
:101A7000401C68622868844207D1211D1548FFF781
:101A80007DFE6868401C686007E0A868401EA8608A
:101A90002046FFF763FCFFF75DFDFFF7B7FE6869BF
:101AA000002812D0286884420FD1286B28B140F258
:101AB000654209A10FA0FFF7E3F912494FF08050EA
:101AC0000860BFF34F8FBFF36F8F70BD24000020FD
:101AD000AC000020680300202E2E5C2E2E5C467287
:101AE000656552544F535C7372635C7461736B73BE
:101AF0002E6300004572726F723A25732C25640DB7
:101B00000A00000004ED00E01CB516480024CDE9F1
:101B100000402346802214A1154800F001FA012854
:101B20000AD0401C1DD102B040F28472BDE81040C2
:101B300010A117A0FFF7A4B9502080F31188BFF3BC
:101B40004F8FBFF36F8F07484FF0FF312C38816202
:101B500001214161C46012480460BDE81C4000F0EE
:101B600081B81CBD5000002049444C4500000000D5
:101B7000BD1300082E2E5C2E2E5C467265655254F5
:101B80004F535C7372635C7461736B732E630000FC
:101B90004572726F723A25732C25640D0A0000009D
:101BA0008C0000200248016B491C01637047000053
:101BB0002400002070B51A4D286B002802D00120A7
:101BC000E86170BD0020E86116480068A8636A6B90
:101BD000904204D92968821A4B6D1A444A65686399
:101BE0002869B0FA80F0C0F11F000F4E00EB8004AE
:101BF00056F8240028B940F6F6220CA112A0FFF7EF
:101C00003FF906EB840041684968416000F1080231
:101C1000914201D1496841604068C068286070BD48
:101C2000240000208C000020AC0000202E2E5C2E12
:101C30002E5C4672656552544F535C7372635C74DC
:101C400061736B732E6300004572726F723A257375
:101C50002C25640D0A000000014840687047000010
:101C6000680000201CB52F4C20682F49884205D100
:101C700040F259122DA138A0FFF702F920682A4935
:101C8000491E884205D14FF4AD7228A132A0FFF75A
:101C9000F7F8354C20780190FF20207020780090D4
:101CA0009DF800009DF8001000F0F000884205D07B
:101CB00040F273121DA128A0FFF7E2F89DF8000082
:101CC0002A4A00F0500010700720906006E09068EB
:101CD000401E90609DF80000400000909DF80000BC
:101CE0000006F4D4107A000200F4E06090600198DD
:101CF00020700C482030016841F4700101600168D7
:101D000041F070410160FFF703FE00205060FEF7D4
:101D100067FA1748016841F040410160FEF750FA48
:101D200000201CBD00ED00E071C20F412E2E5C2E84
:101D30002E5C4672656552544F535C706F72745CD2
:101D4000525644535C41524D5F434D34465C706F74
:101D500072742E63000000004572726F723A257330
:101D60002C25640D0A00000000E400E08000002043
:101D700034EF00E010B5502080F31188BFF34F8F8F
:101D8000BFF36F8F00F002F918B104494FF0805093
:101D90000860002080F3118810BD000004ED00E011
:101DA00070B504460E46002C05D140F23C4221A1FC
:101DB00027A0FFF765F8206C28B14FF488621DA1B9
:101DC00023A0FFF75DF8206838B9606828B140F2B9
:101DD000454218A11EA0FFF753F8FFF7A9FD5020B8
:101DE000EFF3118580F31188BFF34F8FBFF36F8F2F
:101DF000A26BE06B904218D994F94500521CA26383
:101E0000411C04D0401C84F8450001200EE0606AAB
:101E10000028FAD004F1240000F032F90028F4D0B0
:101E2000002EF2D001203060EFE7002085F311880A
:101E300070BD00002E2E5C2E2E5C467265655254DD
:101E40004F535C7372635C71756575652E6300003A
:101E50004572726F723A25732C25640D0A000000DA
:101E60002DE9F047044689469046002C05D14FF4F1
:101E7000B46220A126A0FFF703F8B9F1000F07D143
:101E8000206C28B140F2A1521AA121A0FEF7F8FF60
:101E9000FFF74EFD5020EFF3118780F31188BFF359
:101EA0004F8FBFF36F8FA66BF6B194F9445049463C
:101EB0002046FFF73FFA761EA663681C04D06D1C0F
:101EC00084F84450012010E020690028FAD004F181
:101ED000100000F0D5F80028F4D0B8F1000FF1D0D0
:101EE0000120C8F80000EDE7002087F31188BDE865
:101EF000F08700002E2E5C2E2E5C467265655254D3
:101F00004F535C7372635C71756575652E63000079
:101F10004572726F723A25732C25640D0A00000019
:101F20002DE9FF5F8146DDE90E788A4616469B461D
:101F3000B000FFF753FB054628000AD06020FFF7EA
:101F40004DFB04460CB1256304E02846FFF792FCE4
:101F500000E000248CB10020CDE90240CDE90078FA
:101F60005B46324651464846FFF73CFA2046FFF7AB
:101F700071F9012004B0BDE8F09F4FF0FF30F9E7A0
:101F80000148C06870470000240000202DE9F0419E
:101F900000262E4F386B002808D0B869401CB86165
:101FA000F86900B101263046BDE8F081FD686D1C7E
:101FB000FD608DB9F86B006828B140F6D91224A1F4
:101FC0002AA0FEF75DFFF86B396CF9633864386A54
:101FD000401C3862FFF7BEFAB86ADFF8A08085427D
:101FE0000DD3F86B006838B1F86BC068C4686068DE
:101FF00085420ED2B86202E04FF0FF30B862386816
:10200000C06A00EB800058F820000128C8D90126DA
:10201000C6E7201DFFF77AFBA06A18B104F118008B
:10202000FFF774FBE06A01213A698140114339618D
:1020300000EB800008EB8000211DFFF79FFBE06AAA
:102040003968C96A8842CCD30126CAE72400002037
:102050002E2E5C2E2E5C4672656552544F535C7377
:1020600072635C7461736B732E6300004572726FF0
:10207000723A25732C25640D0A000000AC00002084
:102080002DE9F041C068C468002C05D140F66132EA
:1020900016A11DA0FEF7F4FE04F118000746FFF795
:1020A00035FB1D4D2A6B012662B139461B48FFF7EF
:1020B00065FBE06A2968C96A884215D90120EE618A
:1020C000BDE8F081201DFFF721FBE06A2A6906FACE
:1020D00000F111432961124900EB800001EB8000FF
:1020E000211DFFF74BFBE4E70020E9E72E2E5C2ED5
:1020F0002E5C4672656552544F535C7372635C7418
:1021000061736B732E6300004572726F723A2573B0
:102110002C25640D0A000000240000205403002038
:10212000AC0000202DE9F041002400272B4D286B46
:10213000002805D14FF4FD6229A130A0FEF7A0FED2
:10214000FFF728FB286B401E2863286BF0BBA868AC
:10215000E0B3DFF8B88001261DE0D8F80C00C468B1
:1021600004F11800FFF7D2FA201DFFF7CFFAE06A5A
:102170002A6906FA00F111432961254900EB800024
:1021800001EB8000211DFFF7F9FAE06A2968C96AAE
:10219000884200D3EE61D8F800000028DDD10CB1F0
:1021A000FFF7D8F9AC6944B1FFF7F0FE00B1EE617A
:1021B000641E002CF8D10020A861E86930B1012725
:1021C000144938070860BFF34F8F00E001E0BFF308
:1021D0006F8FFFF71BFB3846BDE8F081240000201D
:1021E0002E2E5C2E2E5C4672656552544F535C73E6
:1021F00072635C7461736B732E6300004572726F5F
:10220000723A25732C25640D0A0000005403002047
:10221000AC00002004ED00E04170705F48575F495A
:102220006E6974004170705F4672656552544F5319
:102230005F4253505F496E6974004672656552543F
:102240004F535F4D656D6F72795F4D616E6765725B
:102250005F5461736B00000044656275673A203C0F
:1022600025732C2025643E3A20737973636C6B20B0
:102270003A2025642C2068636C6B203A2025642C5E
:102280002070636C6B31203A2025642C2070636CC5
:102290006B32203A202564200D0A0000BC22000881
:1022A00000000020AC000000C80E000868230008F1
:1022B000AC000020E4960000D80E0008007A030A63
:1022C00000000000000000000102030406070809E6
:1022D00000000000010203040102030406070809CC
:1022E00000000000000000000000000000000000EE
:1022F00000000000000000000000000000000000DE
:1023000000000000000000000000000000000000CD
:1023100000000000000000000000000000000000BD
:1023200000000000000000000000000000000000AD
:10233000000000000000000000000000000000009D
:10234000AAAAAAAA000000000000000000000000E5
:10235000000000000000000000000000000000007D
:08236000000000000000000075
:040000050800018965
:00000001FF
