:020000040800F2
:1040000018040020A1410008AD450008A54500089E
:10401000AB45000819430008C9480008000000002B
:10402000000000000000000000000000A54600089D
:104030001B43000800000000C54500087D4700083C
:10404000CB480008BB410008BB410008BB41000849
:10405000BB410008BB410008BB41000855440008B3
:10406000BB410008BB41000857440008BB410008A1
:10407000BB410008BB410008BB410008BB41000830
:10408000BB410008BB410008BB410008BB41000820
:10409000BB410008BB410008BB410008BB41000810
:1040A000BB410008BB410008BB410008BB41000800
:1040B000BB410008BB410008BB410008A9450008FE
:1040C000A7450008BB410008BB410008BB410008F0
:1040D000BB410008BB410008BB410008BB410008D0
:1040E000BB410008A1460008BB410008BB410008D5
:1040F000BB410008BB410008BB410008BB410008B0
:10410000BB410008A3460008BB410008BB410008B2
:10411000BB410008BB410008BB410008BB4100088F
:10412000BB410008BB410008BB410008BB4100087F
:10413000BB410008BB410008BB410008BB4100086F
:10414000BB410008BB410008BB410008BB4100085F
:10415000BB410008BB410008BB410008BB4100084F
:10416000BB410008BB410008BB410008BB4100083F
:10417000BB410008BB410008BB410008BB4100082F
:10418000BB410008BB410008DFF810D000F030F858
:1041900000480047E94A0008AFF3008018040020F7
:1041A0000648804706480047FEE7FEE7FEE7FEE7D1
:1041B000FEE7FEE7FEE7FEE7FEE7FEE781470008D1
:1041C0008941000830B50B46014600202022012419
:1041D00009E021FA02F59D4205D303FA02F5491BD5
:1041E00004FA02F52844151EA2F10102F1DC30BDEB
:1041F000064C074D06E0E06840F0010394E8070034
:1042000098471034AC42F6D3FFF7C2FF484B000882
:10421000684B000800B587B00F490E4808604FF49E
:10422000A06000F0C5F9A82000F06AF900F066F976
:1042300003A800F0E5F9DDE904120698CDE90012C3
:104240000290172205490648039B00F03FFB07B088
:1042500000BD00000040000808ED00E0F64A00083C
:10426000044B000800F070F94FF47A7413A000F0CA
:104270002DFB002000F080F9204600F043F90020DB
:1042800000F064F9204600F03DF9012000F074F9D7
:10429000204600F037F9012000F058F9204600F0E0
:1042A00031F9022000F068F9204600F02BF90220D5
:1042B00000F04CF9204600F025F9D7E754686973FF
:1042C000206973204170702031202E2E2E200D0A7F
:1042D00000000000704700007CB50121202000F0A4
:1042E00073F94FF4C064009401208DF8040000229B
:1042F0008DF806208DF8070003208DF80500054D88
:104300006946284600F0A8F82146284600F0F4F84F
:104310007CBD000000140240FEE7704770B586B017
:104320000121084600F050F90121102000F05AF94F
:104330001E4E07220A21304600F0CCF80722092140
:10434000304600F0C7F800248DF8164001208DF8A3
:10435000170002258DF81450410204918DF8155074
:1043600004A9304600F078F88DF8145068020490E3
:1043700004A9304600F070F84FF4E1300090ADF839
:104380000440ADF80640ADF80840ADF80C400C20F4
:10439000ADF80A00064C6946204600F033FA0121C8
:1043A000204600F01BFA06B070BD0000000002407D
:1043B0000010014010B504466FF0040000F0D0F981
:1043C0000649E008087000EB4002C2EBC0104FF64F
:1043D000FF7202EAC000488010BD000010000020FB
:1043E00070B504464FF47A7502E0284600F004F8F0
:1043F000641E601CF9D170BD10B504460D4884429E
:1044000002D90DA000F062FA11484FF0E0210078C7
:1044100044434C61086940F0010008610869C20723
:1044200001D0C003FAD5086920F00100086100201E
:10443000486110BDC2300C006E7573206973207422
:104440006F6F206C61726765202E2E2E200D0A0082
:1044500010000020704770472DE9F041002201272D
:104460004FF0030C07FA02F50B682B40AB422CD13E
:10447000066853000CFA03F4A64306600E79D0F8E0
:1044800000809E4046EA080606600E79012E01D0A3
:10449000022E12D18668A64386604E79D0F8088035
:1044A0009E4046EA080686604668AE434660456818
:1044B0008E799640B6B235434560C568A543C56060
:1044C000CC799C40C3681C43C460521C102AC9D3D9
:1044D000BDE8F08110B54B07DB0E9A40C90800EB30
:1044E0008100016A0F249C40A1430162016A1143CB
:1044F000016210BD4183704701837047FFF70EBF13
:10450000FFF758BFFFF76CBF4FF400710148FFF78A
:10451000F3BF0000001402404FF400710148FFF7A0
:10452000E9BF0000001402404FF480610148FFF72A
:10453000E3BF0000001402404FF480610148FFF720
:10454000D9BF000000140240FFF7C6BE10B5002816
:1045500009D001280BD002280DD1FFF7E5FFBDE8F7
:104560001040FFF7D1BFBDE81040FFF7CDBFBDE859
:104570001040FFF7D9BF10BD10B5002809D00128A1
:104580000BD002280DD1FFF7C7FFBDE81040FFF7A1
:10459000D3BFBDE81040FFF7BFBFBDE81040FFF735
:1045A000CBBF10BDFEE770477047FEE770470000C5
:1045B0000249084302490860704700000000FA05FC
:1045C0000CED00E070470000054A002903D0116897
:1045D000014311607047116881431160704700000A
:1045E00030380240054A002903D0116801431160A8
:1045F00070471168814311607047000044380240E1
:1046000070B5244B196801F00C01234C00291ED011
:10461000661004291DD008291DD00460196801F016
:10462000F00109091D4A545C0168E14041601C68C1
:1046300004F4E054A40A145D21FA04F484601B68B5
:1046400003F460435B0BD25CD140C16070BD046079
:10465000E4E70660E2E70F4A121F1168C1F38055D4
:10466000116801F03F0135B1B6FBF1F11468C4F3F4
:104670008814614305E0B4FBF1F11468C4F38814B5
:1046800061431268C2F30142521C5200B1FBF2F1C5
:104690000160C3E7083802400024F4000000002055
:1046A00070477047704700000CB5002201920092DD
:1046B0002749086840F4803008604FF4A043086838
:1046C00000F4003000900198401C0190009810B94F
:1046D00001989842F3D10868800302D50120009028
:1046E00000E000920098012831D11948403002685A
:1046F00042F0805202601748026842F44042026071
:104700001348083002680260026842F40042026006
:10471000026842F4A0520260021F0F4B13600A6845
:1047200042F080720A600A689201FCD50B4A40F29E
:1047300005711160016821F003010160016841F019
:10474000020101600168C1F381010229FAD10CBDA7
:10475000003802400070004008544007003C02400E
:104760004FF0E021042804D0086920F0040008611B
:104770007047086940F00400086170477047000006
:1047800010B51248016841F47001016010480168D9
:1047900041F0010101600E4A0021083211600268F7
:1047A0000C4B1A400260031D0B4A1A60026822F487
:1047B0008022026006480C300160FFF775FF034954
:1047C0004FF000608039086010BD000088ED00E007
:1047D00000380240FFFFF6FE10300024002904D00C
:1047E000818941F4005181817047818921F4005110
:1047F000818170470246002012880A4200D00120C1
:10480000704700007FB504460D46208A20F44051D1
:10481000E88808432082A08941F20C618843A98876
:104820002A8911436A8902431143A181A08A20F495
:104830004071A8890843A0826846FFF7E1FE1E4840
:10484000844202D01D48844201D1039800E00298BE
:10485000A189090408D500EBC00101EB001029680B
:104860004900B0FBF1F007E000EBC00101EB0010E4
:1048700029688900B0FBF1F06422B0FBF2F1090174
:104880000B096FF018056B4300EB8300A3891D042F
:104890004FF0320307D503EBC000B0FBF2F000F09D
:1048A0000700084306E003EB0010B0FBF2F000F055
:1048B0000F00084320817FBD00100140001401401B
:1048C000C1F3080181807047FEE770470FB4054BC4
:1048D00010B503A9044A029800F018F810BC5DF85E
:1048E00014FB0000C54A00081400002002E008C8BC
:1048F000121F08C1002AFAD170477047002001E05A
:1049000001C1121F002AFBD1704700002DE9FF4FA3
:104910008BB09A460F460546002606E025280BD0A8
:1049200052460D9990476D1C761C28780028F5D1C9
:104930000FB03046BDE8F08F0024A0460122604948
:1049400000E0044315F8013F203B02FA03F008425F
:10495000F7D128782E2817D115F8010F44F0040458
:104960002A280ED06FF02F022878A0F130010929F3
:104970000AD808EB880102EB410100EB01086D1C2D
:10498000F2E757F8048B6D1C287869283ED006DCC6
:104990000028CDD063280BD0642804D136E07328DA
:1049A00010D075284BD052460D999047761C85E063
:1049B00017F8040B8DF8000000208DF80100E9467F
:1049C000012003E057F8049B4FF0FF3061074FF0E0
:1049D000000401D40AE0641C44450DDA8442FADB89
:1049E00019F804100029F6D106E0641C8442FCDBAF
:1049F00019F804100029F8D1264404E019F8010B35
:104A000052460D999047641EF8D257E001CF4FF0FF
:104A10000A0B002802DA40422D2102E0210504D5CC
:104A20002B218DF82410012103E0E10705D020217E
:104A3000F7E70DF1200908910CE00021F9E701CF1B
:104A40004FF00A0BF9E75946FFF7BCFB01F13002C2
:104A500009F8012D0028F6D1ADEB090000F1200B7B
:104A6000600701D44FF00108D84502DDA8EB0B0028
:104A700000E000208046002406E009A85246005DC0
:104A80000D999047641C761C08988442F5DB04E07D
:104A9000302052460D999047761CB8F10001A8F1DC
:104AA0000108F5DC05E019F8010B52460D99904715
:104AB000761CBBF10001ABF1010BF4DC6D1C34E79B
:104AC0000928010070B50446064DE1B22846FFF7FB
:104AD000F7FE80212846FFF78DFE0028F9D02046FA
:104AE00070BD000000100140FFF794FBFFF7F2FBE0
:104AF000FFF7B8FBFEE74170705F48575F496E698A
:104B00007400000044656275673A203C25732C20D0
:104B100025643E3A20737973636C6B203A202564D8
:104B20002C2068636C6B203A2025642C2070636C09
:104B30006B31203A2025642C2070636C6B32203A54
:104B4000202564200D0A0000684B000800000020AA
:104B500018000000EC480008804B000818000020F6
:104B600000040000FC4800080000000001020304EB
:104B7000010203040607080900000000000000000D
:040000050800418925
:00000001FF
