:020000040800F2
:1000000020A40020A1010008650D00085D0D000876
:10001000630D0008930800089D110008000000000F
:10002000000000000000000000000000C50E0008F5
:100030009508000800000000E50D00089D0F00086D
:100040009F110008BB010008BB010008BB010008AC
:10005000BB010008BB010008BB0100081D0A000825
:10006000BB010008BB0100081F0A0008BB01000813
:10007000BB010008BB010008BB010008BB01000870
:10008000BB010008BB010008BB010008BB01000860
:10009000BB010008BB010008BB010008BB01000850
:1000A000BB010008BB010008BB010008BB01000840
:1000B000BB010008BB010008BB010008610D00087E
:1000C0005F0D0008BB010008BB010008BB01000870
:1000D000BB010008FD0F0008BB010008BB010008C0
:1000E000BB010008C10E0008BB010008BB010008ED
:1000F000BB010008BB010008BB010008BB010008F0
:10010000BB010008C30E0008BB010008BB010008CA
:10011000BB010008BB010008BB010008BB010008CF
:10012000BB010008BB010008BB010008BB010008BF
:10013000BB010008BB010008BB010008BB010008AF
:10014000BB010008BB010008BB010008BB0100089F
:10015000BB010008BB010008BB010008BB0100088F
:10016000BB010008BB010008BB010008BB0100087F
:10017000BB010008BB010008BB010008BB0100086F
:10018000BB010008BB010008DFF810D000F05EF8EA
:10019000004800475D160008AFF3008020A400204F
:1001A0000648804706480047FEE7FEE7FEE7FEE711
:1001B000FEE7FEE7FEE7FEE7FEE7FEE7A10F000829
:1001C00089010008D2B201E000F8012B491EFBD2E0
:1001D00070470022F6E710B513460A460446194652
:1001E000FFF7F0FF204610BD2DE9F05F0546002027
:1001F00092469B4688460646814640241BE0284698
:1002000041464746224600F042F853465A46C01A35
:10021000914110D311461846224600F029F82D1AB4
:1002200067EB01084F4622460120002100F020F82C
:1002300017EB00094E41201EA4F10104DFDC484603
:1002400031462A464346BDE8F09F0000064C074D64
:1002500006E0E06840F0010394E807009847103496
:10026000AC42F6D3FFF794FF441700086417000868
:10027000202A04DB203A00FA02F100207047914066
:10028000C2F1200320FA03F3194390407047202A5B
:1002900004DB203A21FA02F00021704721FA02F330
:1002A000D040C2F120029140084319467047000037
:1002B00010B500F0B6FC044A024B11685854491CB2
:1002C000116010BD1C0000201400002000B587B094
:1002D0004FF4A06000F07CFDA82000F0A4FC00F02A
:1002E00099FC03A800F09CFDDDE904120698CDE915
:1002F00000120290132203490348039B00F050FFB1
:1003000007B000BDA6160008B416000810B500F02E
:1003100023FDBDE8104000F01DBD000010B511A088
:1003200000F03EFF1AA000F03BFF1AA000F038FFDB
:1003300023A000F035FF2DA000F032FF4FF48042E3
:10034000510335A000F02CFF4FF470323B493CA024
:1003500000F026FF43A000F023FFBDE810400CA0F2
:1003600000F01EBF2D2D2D2D2D2D2D2D2D2D204599
:100370006E74657220426F6F744C6F616465722099
:100380002D2D2D2D2D2D2D2D2D2D0D0A0000000094
:100390000D0A00003D3D3D3D3D3D3D3D20666C610B
:1003A00073682070726174696F6E207461626C652D
:1003B000203D3D3D3D3D3D3D3D3D0D0A00000000E1
:1003C0007C206E616D6520202020207C206F666679
:1003D00073657420202020207C2073697A6520209A
:1003E00020202020207C0D0A000000002D2D2D2D26
:1003F0002D2D2D2D2D2D2D2D2D2D2D2D2D2D2D2D2D
:100400002D2D2D2D2D2D2D2D2D2D2D2D2D2D2D2D1C
:100410002D2D0D0A000000007C20626F6F742020DB
:100420002020207C20307825303858207C203078DF
:1004300025303858207C0D0A0000000000400008DC
:100440007C206170702020202020207C20307825A6
:10045000303858207C20307825303858207C0D0AE0
:10046000000000003D3D3D3D3D3D3D3D3D3D3D3DB0
:100470003D3D3D3D3D3D3D3D3D3D3D3D3D3D3D3DAC
:100480003D3D3D3D3D3D3D3D3D3D0D0A00000000F3
:10049000FFF73CFF00F05CFC234D00283DD1FFF747
:1004A0003DFF22A000F07CFE05244FF47A76214621
:1004B0002CA000F075FE304600F0B7FB00F048FCC1
:1004C00018B9641EE4B2002CF1D1002C25D04FF4F1
:1004D000204421462A48FFF77CFE2A4800F060FEAF
:1004E00000F036FC0028FBD127A000F059FE214681
:1004F000284600F09DFB2246294627A000F050FE2A
:1005000030A000F04DFE22461D49284600F0D6FBE3
:10051000224629462FA000F043FE39A000F040FEFD
:10052000284600F013FCFEE700400008506C6561AF
:1005300073652072656C65617365204B6579302049
:100540006265666F72652074686520636F756E748E
:10055000646F776E20656E647320202E2E2E0D0A38
:1005600000000000436F756E74646F776E206973CE
:100570002025642073202E2E2E200D0A000000005E
:100580001C000020F8160008457261736520417058
:1005900070202E2E2E0D0A00457261736520446F67
:1005A0006E65206164647228307825303878292C93
:1005B0002073697A652830782530387829202E2EE6
:1005C0002E0D0A00577269746520417070202E2E1E
:1005D0002E0D0A00577269746520446F6E652061A4
:1005E00064647228307825303878292C2073697A31
:1005F000652830782530387829202E2E2E0D0A00D7
:10060000426F6F7420417070205374617274202E99
:100610002E2E0D0A0D0A000070470020421E810098
:1006200001F1E021C1F88021C1F88022401CC0B254
:100630000828F4D37047000070B504460D4600F05A
:100640006FFA144800F0ECF966191DE0204600F03E
:100650004DF805460221284600F0E8F915F0070F8D
:1006600012D1E8100C280FD2DFE800F006060606CB
:1006700006090C0C0C0C0C0C04F5804404E004F589
:10068000803401E004F58034A642DFD8BDE8704034
:1006900000F022BAF30001002DE9F04106460C46B5
:1006A00017464FF00008002500F03AFA0E4800F017
:1006B000B7F90FE02178304600F016FA092806D184
:1006C00020783178884202D04FF0FF3804E06D1C6A
:1006D000641C761CBD42EDD300F0FEF9BD4200D192
:1006E000B8464046BDE8F081F3000100A0F100618A
:1006F0004FF48042914201D20020704723490144C7
:10070000914201D20820704721490144914201D20F
:10071000102070471F490144914201D218207047B0
:100720001D490144B1F5803F01D2202070471B498B
:100730004FF400320144914201D2282070471849F9
:100740000144914201D23020704716490144914240
:1007500001D23820704714490144914201D240200F
:10076000704712490144914201D248207047104914
:100770000144914201D2502070470E4908449042F2
:1007800001D25820704700207047000000C0FFF7DA
:100790000080FFF70040FFF70000FFF70000FEF7C2
:1007A0000000FCF70000FAF70000F8F70000F6F789
:1007B0000000F4F70000F2F710B5034672B600F03F
:1007C0004BF8FFF72AFF00F05DF862B65868196829
:1007D00081F30888BDE8104000470000102101485F
:1007E00000F00FBA001002401CB50121102000F0EB
:1007F000FBFA1420009000208DF8040001208DF8F1
:10080000070002208DF805006946024800F0ABF9A8
:100810001CBD0000001002407CB50121202000F02A
:10082000E3FA4FF4C064009401208DF80400002224
:100830008DF806208DF8070003208DF80500054D82
:100840006946284600F08FF92146284600F0E0F975
:100850007CBD000000140240094A4FF0FF301060D8
:1008600000211160121D10601160121D10601160D6
:10087000034A103210601160121D10601160704741
:10088000103802404FF0E020002101614161816198
:100890007047FEE77047000070B586B0012108463A
:1008A00000F0A2FA0121102000F0ACFA214E07223C
:1008B0000A21304600F095F907220921304600F060
:1008C00090F900248DF8164001208DF817000225BC
:1008D0008DF81450410204918DF8155004A930464A
:1008E00000F041F98DF814506802049004A93046D4
:1008F00000F039F94FF4E1300090ADF80440ADF864
:100900000640ADF80840ADF80C400C20ADF80A00E8
:10091000094C6946204600F0DBFB012240F22551DC
:10092000204600F0BAFB0121204600F083FB06B010
:1009300070BD0000000002400010014008B52520F5
:100940008DF8000001208DF8010002218DF80210C1
:100950008DF80300684600F007FA08BD10B5064C94
:100960002021204600F072FB0028F9D02046BDE887
:10097000104000F00BBC00000010014010B5044610
:100980006FF0040000F0FCFA0649E008087000EB84
:100990004002C2EBC0104FF6FF7202EAC00048806E
:1009A00010BD00001000002070B504464FF47A75A9
:1009B00002E0284600F004F8641E601CF9D170BD06
:1009C00010B504460D48844202D90DA000F0E8FBA2
:1009D00011484FF0E021007844434C61086940F031
:1009E000010008610869C20701D0C003FAD508698F
:1009F00020F0010008610020486110BDC2300C00E9
:100A00006E757320697320746F6F206C61726765F7
:100A1000202E2E2E200D0A00100000207047704757
:100A200001490860704700000C3C024070B5064662
:100A30000025002905D0012927D0022928D04FF40C
:100A4000407500F07FF809281ED1134C206820F46F
:100A500040702060206828432060206820F0F80063
:100A60002060206846F0020108432060206840F4BE
:100A70008030206000F066F8216821F002012160DA
:100A8000216821F0F801216070BD4FF48075D8E72E
:100A90004FF40075D5E70000103C024009200D49D5
:100AA0000A68D20301D5012070470A68D20601D531
:100AB000062070470A68D20501D5022070470A68EF
:100AC00012F0E00F01D00720704709688907FBD5B5
:100AD000082070470C3C02400248016841F0004188
:100AE00001607047103C024070B506460D4600F0AC
:100AF00029F8092811D1094C206820F440702060A1
:100B000020682060206840F001002060357000F00F
:100B100019F8216821F00101216070BD103C0240EC
:100B200005480068002805DA034804490C380160CC
:100B30000349016070470000103C024023016745F3
:100B4000AB89EFCD08B509200090FFF7A7FF009013
:100B500002E0FFF7A3FF00909DF800000128F8D005
:100B60009DF8000008BD2DE9F041002201274FF05B
:100B7000030C07FA02F50B682B40AB422CD1066838
:100B800053000CFA03F4A64306600E79D0F80080F7
:100B90009E4046EA080606600E79012E01D0022E1C
:100BA00012D18668A64386604E79D0F808809E40B0
:100BB00046EA080686604668AE43466045688E7918
:100BC0009640B6B235434560C568A543C560CC794B
:100BD0009C40C3681C43C460521C102AC9D3BDE8A2
:100BE000F08110B54B07DB0E9A40C90800EB81007D
:100BF000016A0F249C40A1430162016A1143016212
:100C000010BD0246002012690A4200D00120704740
:100C10000183704710B5FFF73FFEBDE81040FFF7B6
:100C20008DBEFFF79BBEFFF7A9BEFFF7BDBE00005C
:100C300070B505460C46002C0ED00B4A291991427E
:100C400004D9342209490AA000F0AAFA214628460C
:100C5000FFF7F2FC002070BD2F2204490EA000F027
:100C60009FFA4FF0FF3070BD000004089116000895
:100C7000496E666F3A203C25732C2025643E3A204D
:100C800073697A6520697320746F206C617267657F
:100C9000202E2E2E200D0A00496E666F3A203C252C
:100CA000732C2025643E3A204572722073697A6560
:100CB000203C2031202E2E2E200D0A0070B5054636
:100CC0000E461446002C0FD00B4B2A199A4204D919
:100CD0001F220A490AA000F063FA2246314628463C
:100CE000BDE87040FFF7D8BC1A2204490EA000F0FE
:100CF00057FA4FF0FF3070BD000004087D16000861
:100D0000496E666F3A203C25732C2025643E3A20BC
:100D100073697A6520697320746F206C61726765EE
:100D2000202E2E2E200D0A00496E666F3A203C259B
:100D3000732C2025643E3A204572722073697A65CF
:100D4000203C2031202E2E2E200D0A00FFF734BD2E
:100D5000FFF744BDFFF748BDFFF75EBDFEE77047F4
:100D60007047FEE77047000030B50F23C2780125B9
:100D70000178002A1FD0154A126802F4E062C2F519
:100D8000E062C2F30722C2F10404D3404278A240D9
:100D900084781C401443220101F1E02181F80024F1
:100DA000007800F01F018D404009800000F1E02034
:100DB000C0F8005130BD01F01F0085404809800097
:100DC00000F1E020C0F8805130BD00000CED00E0E3
:100DD0000249084302490860704700000000FA0514
:100DE0000CED00E070470000054A002903D01168AF
:100DF0000143116070471168814311607047000022
:100E000030380240054A002903D0116801431160BF
:100E100070471168814311607047000044380240F8
:100E200070B5244B196801F00C01234C00291ED029
:100E3000661004291DD008291DD00460196801F02E
:100E4000F00109091D4A545C0168E14041601C68D9
:100E500004F4E054A40A145D21FA04F484601B68CD
:100E600003F460435B0BD25CD140C16070BD046091
:100E7000E4E70660E2E70F4A121F1168C1F38055EC
:100E8000116801F03F0135B1B6FBF1F11468C4F30C
:100E90008814614305E0B4FBF1F11468C4F38814CD
:100EA00061431268C2F30142521C5200B1FBF2F1DD
:100EB0000160C3E7083802400024F400000000206D
:100EC00070477047704700000CB5002201920092F5
:100ED0002749086840F4803008604FF4A043086850
:100EE00000F4003000900198401C0190009810B967
:100EF00001989842F3D10868800302D50120009040
:100F000000E000920098012831D119484030026871
:100F100042F0805202601748026842F44042026088
:100F20001348083002680260026842F4004202601E
:100F3000026842F4A0520260021F0F4B13600A685D
:100F400042F080720A600A689201FCD50B4A40F2B6
:100F500005711160016821F003010160016841F031
:100F6000020101600168C1F381010229FAD10CBDBF
:100F7000003802400070004008544007003C024026
:100F80004FF0E021042804D0086920F00400086133
:100F90007047086940F0040008617047704700001E
:100FA00010B51248016841F47001016010480168F1
:100FB00041F0010101600E4A00210832116002680F
:100FC0000C4B1A400260031D0B4A1A60026822F49F
:100FD0008022026006480C300160FFF775FF03496C
:100FE0004FF000608039086010BD000088ED00E01F
:100FF00000380240FFFFF6FE1030002470B5084DA7
:1010000040F225542146284600F027F808B1FFF7A2
:101010004FF921462846BDE8704000F003B80000B3
:101020000010014040F66A120A0A01219140C943AA
:1010300001807047002904D0818941F400518181E9
:101040007047818921F40051818170470246002058
:1010500012880A4200D00120704770B5002440F683
:101060006A12C1F3421301F01F05012606FA05F2C8
:10107000012B0CD0022B0DD0838A1340090A8E401D
:10108000008830400BB100B10124204670BD838937
:101090001340F3E7038A1340F0E710B540F66A13F4
:1010A000C1F3421301F01F040121A140012B07D01D
:1010B000022B07D014303AB102680A43026010BD17
:1010C0000C30F8E71030F6E702688A43026010BD82
:1010D0007FB504460D46208A20F44051E888084335
:1010E0002082A08941F20C618843A9882A89114392
:1010F0006A8902431143A181A08A20F44071A88922
:101100000843A0826846FFF78BFE1E48844202D047
:101110001D48844201D1039800E00298A189090486
:1011200008D500EBC00101EB001029684900B0FBB5
:10113000F1F007E000EBC00101EB00102968890025
:10114000B0FBF1F06422B0FBF2F109010B096FF082
:1011500018056B4300EB8300A3891D044FF0320395
:1011600007D503EBC000B0FBF2F000F00700084326
:1011700006E003EB0010B0FBF2F000F00F000843B4
:1011800020817FBD00100140001401408088C0F321
:1011900008007047C1F3080181807047FEE770477F
:1011A0000FB4054B10B503A9044A029800F018F8D3
:1011B00010BC5DF814FB0000391600081800002070
:1011C00002E008C8121F08C1002AFAD17047704710
:1011D000002001E001C1121F002AFBD1704700006E
:1011E0002DE9FF4F8DB00F460546002606E0252865
:1011F0000BD0DDE90F1290476D1C761C2878002873
:10120000F5D111B03046BDE8F08F0024A246A146CA
:101210000122E94900E0044315F8013F203B02FAAE
:1012200003F00842F7D128782A2810D06FF02F0257
:101230002878A0F13001092914D80AEB8A0102EBC1
:10124000410144F0020400EB010A6D1CF0E701CFFC
:101250005FEA000A03D544F40054CAF1000A44F0DE
:1012600002046D1C28782E2817D115F8010F44F0C0
:1012700004042A280ED06FF02F022878A0F1300144
:1012800009290AD809EB890102EB410100EB0109A8
:101290006D1CF2E757F8049B6D1C28786C280FD062
:1012A00006DC4C2817D068280DD06A2814D104E039
:1012B000742810D07A280FD10DE044F400140AE00D
:1012C00044F4801401E044F440146978814202D16E
:1012D00004F580146D1C6D1C28786E281ED00CDC63
:1012E000632830D004DC00288BD0582811D19FE02F
:1012F000642867D069280CD164E073282DD004DC01
:101300006F2872D0702804D194E075286ED07828A8
:101310006DD0DDE90F129047761C4BE1C4F302500B
:10132000022806D0032809D0042801CF09D006607E
:1013300040E101CFF117C0E900613BE101CF068038
:1013400038E1067036E117F8040B8DF80000002034
:101350008DF80100EB46012003E057F804BB4FF085
:10136000FF3061074FF0000102D40DE008F10101E8
:10137000884649450FDA8045F8DB1BF8081000293C
:10138000F4D108E008F1010188468142FADB1BF83C
:1013900008100029F6D1DDE90F23AAEB08008146E9
:1013A000214600F031F9304400EB080604E0DDE9A5
:1013B0000F121BF8010B9047B8F10108F7D2214634
:1013C0004846F2E00A21C4F302524FF0000B0891A4
:1013D000022A04D001CFC117032A09D00AE0FF1D59
:1013E00027F00707F7E8020108E02CE01EE01FE005
:1013F00000B2C117042A01D140B2C117021E71F117
:10140000000206DA0023D0EB030063EB01012D227A
:1014100002E0220504D52B228DF82420012203E0CE
:10142000E20701D02022F7E7904653E00A210BE0C3
:10143000102109E010214FF0000B44F004044FF09C
:101440000809089103E008214FF0000B0891C4F34C
:101450000252022A04D001CF0021032A06D006E05E
:10146000FF1D27F00707F7E8020103E080B2042A16
:1014700000D1C0B24FF0000822072BD52A78702A7D
:1014800007D0DDF820C08CF0100C5CEA0B0C05D006
:101490000EE040228DF82420012208E050EA0103EA
:1014A00006D030238DF824308DF825200222904676
:1014B000089B83F0080353EA0B030BD150EA0102A7
:1014C00001D1620706D530228DF824204FF00108A3
:1014D000A9F101092A78582A04D038A20B9208AA47
:1014E0000A920BE03AA2F9E75B46089AFEF77CFE07
:1014F0000B9B9B5C0A9A521E0A92137050EA0102DF
:10150000F2D10A98ADEB000000F1200B600702D584
:1015100024F4803401E04FF00109D94502DDA9EB44
:101520000B0000E0002000EB0B0141440890AAEB07
:10153000010AE00306D4DDE90F232146504600F0FE
:1015400063F806444FF0000908E009A911F8090002
:10155000DDE90F12904709F10109761CC145F4DB62
:10156000E0030CD5DDE90F232146504600F04CF88E
:10157000064404E0DDE90F1230209047761C0899FC
:10158000481E08900029F5DC08E00A980A990078BE
:10159000491C0A91DDE90F129047761CBBF100014E
:1015A000ABF1010BF1DC21465046DDE90F2300F0E1
:1015B00019F806446D1C21E6092801003031323348
:1015C000343536373839616263646566000000007F
:1015D0003031323334353637383941424344454669
:1015E000000000002DE9F041044600251E46174684
:1015F000880404D405E039462020B0476D1C641EE1
:10160000F9D52846BDE8F0812DE9F04104460025D2
:101610001E469046C80301D5302700E020278804E5
:1016200004D505E041463846B0476D1C641EF9D527
:101630002846BDE8F081000070B50446064DE1B2D1
:101640002846FFF7A7FD80212846FFF7FFFC00286A
:10165000F9D0204670BD000000100140FEF736FEB4
:10166000FEF7DAFFFEF714FFFEE748616C5F466C99
:101670006173685F526561645F4C656E0048616CC0
:101680005F466C6173685F57726974655F4C656E25
:101690000048616C5F45617273655F466C61736899
:1016A0005F53697A65004170705F48575F496E69A2
:1016B0007400000044656275673A203C25732C2055
:1016C00025643E3A20737973636C6B203A2025645D
:1016D0002C2068636C6B203A2025642C2070636C8E
:1016E0006B31203A2025642C2070636C6B32203AD9
:1016F000202564200D0A0000506C6561736520731D
:10170000656E64204170705F46696C652074687214
:101710006F7567682020557361727420616E642054
:10172000656E746572204B65793020746F2075701A
:1017300064617465204170705F46696C65202E2E6F
:101740002E0D0A0064170008000000201C00000095
:10175000C0110008801700081C00002004A400002D
:10176000D01100080000000001020304010203047C
:10177000060708090000000000000000000000004B
:040000050800018965
:00000001FF
